{"blockchain/contracts/game.sol":{"DominoGame":{"abi":[{"anonymous":false,"inputs":[{"indexed":false,"internalType":"uint256","name":"gameId","type":"uint256"}],"name":"GameCanceled","type":"event"},{"anonymous":false,"inputs":[{"indexed":false,"internalType":"uint256","name":"gameId","type":"uint256"},{"indexed":false,"internalType":"address","name":"winner","type":"address"}],"name":"GameCompleted","type":"event"},{"anonymous":false,"inputs":[{"indexed":false,"internalType":"uint256","name":"gameId","type":"uint256"},{"indexed":false,"internalType":"address","name":"owner","type":"address"},{"indexed":false,"internalType":"uint256","name":"entryFee","type":"uint256"}],"name":"GameCreated","type":"event"},{"anonymous":false,"inputs":[{"indexed":false,"internalType":"uint256","name":"gameId","type":"uint256"}],"name":"GameDraw","type":"event"},{"anonymous":false,"inputs":[{"indexed":false,"internalType":"uint256","name":"gameId","type":"uint256"}],"name":"GameStarted","type":"event"},{"anonymous":false,"inputs":[{"indexed":false,"internalType":"uint256","name":"gameId","type":"uint256"},{"indexed":false,"internalType":"address","name":"player","type":"address"}],"name":"PlayerJoined","type":"event"},{"anonymous":false,"inputs":[{"indexed":false,"internalType":"uint256","name":"gameId","type":"uint256"},{"indexed":false,"internalType":"address","name":"player","type":"address"},{"indexed":false,"internalType":"uint256","name":"piece","type":"uint256"}],"name":"PlayerMoved","type":"event"},{"inputs":[{"internalType":"address","name":"","type":"address"}],"name":"balances","outputs":[{"internalType":"uint256","name":"","type":"uint256"}],"stateMutability":"view","type":"function"},{"inputs":[{"internalType":"uint256","name":"gameId","type":"uint256"}],"name":"cancelGame","outputs":[],"stateMutability":"nonpayable","type":"function"},{"inputs":[{"internalType":"string","name":"name","type":"string"},{"internalType":"uint256","name":"entryFee","type":"uint256"},{"internalType":"bool","name":"isPlayer","type":"bool"}],"name":"createGame","outputs":[],"stateMutability":"payable","type":"function"},{"inputs":[],"name":"gameCounter","outputs":[{"internalType":"uint256","name":"","type":"uint256"}],"stateMutability":"view","type":"function"},{"inputs":[{"internalType":"uint256","name":"","type":"uint256"}],"name":"games","outputs":[{"internalType":"uint256","name":"id","type":"uint256"},{"internalType":"string","name":"name","type":"string"},{"internalType":"address","name":"owner","type":"address"},{"internalType":"address","name":"winner","type":"address"},{"internalType":"enum DominoGame.GameStatus","name":"status","type":"uint8"},{"internalType":"uint256","name":"entryFee","type":"uint256"},{"internalType":"uint256","name":"prizePool","type":"uint256"},{"internalType":"uint256","name":"maxPlayers","type":"uint256"},{"internalType":"uint256","name":"currentPlayerIndex","type":"uint256"}],"stateMutability":"view","type":"function"},{"inputs":[],"name":"getAllGames","outputs":[{"components":[{"internalType":"uint256","name":"id","type":"uint256"},{"internalType":"string","name":"name","type":"string"},{"internalType":"address","name":"owner","type":"address"},{"internalType":"address","name":"winner","type":"address"},{"internalType":"enum DominoGame.GameStatus","name":"status","type":"uint8"},{"internalType":"uint256","name":"entryFee","type":"uint256"},{"internalType":"uint256","name":"prizePool","type":"uint256"},{"internalType":"uint256","name":"maxPlayers","type":"uint256"},{"internalType":"address[]","name":"players","type":"address[]"},{"internalType":"address[]","name":"activePlayers","type":"address[]"},{"internalType":"uint256[]","name":"gameDeck","type":"uint256[]"},{"internalType":"uint256[]","name":"boardDeck","type":"uint256[]"},{"internalType":"uint256[]","name":"playerDeck","type":"uint256[]"}],"internalType":"struct DominoGame.GameResponse[]","name":"","type":"tuple[]"}],"stateMutability":"view","type":"function"},{"inputs":[{"internalType":"uint256","name":"gameId","type":"uint256"}],"name":"getGame","outputs":[{"components":[{"internalType":"uint256","name":"id","type":"uint256"},{"internalType":"string","name":"name","type":"string"},{"internalType":"address","name":"owner","type":"address"},{"internalType":"address","name":"winner","type":"address"},{"internalType":"enum DominoGame.GameStatus","name":"status","type":"uint8"},{"internalType":"uint256","name":"entryFee","type":"uint256"},{"internalType":"uint256","name":"prizePool","type":"uint256"},{"internalType":"uint256","name":"maxPlayers","type":"uint256"},{"internalType":"address[]","name":"players","type":"address[]"},{"internalType":"address[]","name":"activePlayers","type":"address[]"},{"internalType":"uint256[]","name":"gameDeck","type":"uint256[]"},{"internalType":"uint256[]","name":"boardDeck","type":"uint256[]"},{"internalType":"uint256[]","name":"playerDeck","type":"uint256[]"}],"internalType":"struct DominoGame.GameResponse","name":"","type":"tuple"}],"stateMutability":"view","type":"function"},{"inputs":[{"internalType":"uint256","name":"gameId","type":"uint256"}],"name":"joinGame","outputs":[],"stateMutability":"payable","type":"function"},{"inputs":[{"internalType":"uint256","name":"gameId","type":"uint256"},{"internalType":"uint256","name":"left","type":"uint256"},{"internalType":"uint256","name":"right","type":"uint256"}],"name":"makeMove","outputs":[],"stateMutability":"nonpayable","type":"function"},{"inputs":[{"internalType":"uint256","name":"gameId","type":"uint256"}],"name":"startGame","outputs":[],"stateMutability":"nonpayable","type":"function"},{"inputs":[],"name":"withdraw","outputs":[],"stateMutability":"nonpayable","type":"function"}],"evm":{"bytecode":{"linkReferences":{},"object":"6080604052348015600f57600080fd5b506121838061001f6000396000f3fe60806040526004361061009c5760003560e01c806369958ab91161006457806369958ab91461015a578063a2f77bcc1461017a578063cfc2f5ff146101a7578063db1c45f9146101c7578063e5ed1d59146101e9578063efaa55a01461020957600080fd5b8063117a5b90146100a157806327e235e3146100df5780632e0be39a1461011a5780633ccfd60b1461013057806343dbf0ef14610147575b600080fd5b3480156100ad57600080fd5b506100c16100bc366004611ad5565b61021c565b6040516100d699989796959493929190611b6c565b60405180910390f35b3480156100eb57600080fd5b5061010c6100fa366004611bd4565b60026020526000908152604090205481565b6040519081526020016100d6565b34801561012657600080fd5b5061010c60005481565b34801561013c57600080fd5b506101456102ff565b005b610145610155366004611c2f565b610396565b34801561016657600080fd5b50610145610175366004611ad5565b610465565b34801561018657600080fd5b5061019a610195366004611ad5565b61061f565b6040516100d69190611e92565b3480156101b357600080fd5b506101456101c2366004611ea5565b61096a565b3480156101d357600080fd5b506101dc610b94565b6040516100d69190611ed1565b3480156101f557600080fd5b50610145610204366004611ad5565b610f16565b610145610217366004611ad5565b61118d565b60016020819052600091825260409091208054918101805461023d90611f36565b80601f016020809104026020016040519081016040528092919081815260200182805461026990611f36565b80156102b65780601f1061028b576101008083540402835291602001916102b6565b820191906000526020600020905b81548152906001019060200180831161029957829003601f168201915b5050505060028301546003840154600485015460058601546006870154600c9097015495966001600160a01b03948516969484169550600160a01b90930460ff16939192909189565b33600090815260026020526040902054806103575760405162461bcd60e51b81526020600482015260136024820152726e6f42616c616e6365546f576974686472617760681b60448201526064015b60405180910390fd5b336000818152600260205260408082208290555183156108fc0291849190818181858888f19350505050158015610392573d6000803e3d6000fd5b5050565b600080548082526001602081905260409092209081559081016103b98582611fb8565b50600460068201556002810180546001600160a01b031916331790556003810180546000919060ff60a01b1916600160a01b830217905550600481018390556000546040805191825233602083015281018490527f7dfb67e9ff596fca4da65c7eedb128cd1aac553af54b3c0cb733625a2480d8bd9060600160405180910390a16000805490806104498361208d565b9190505550811561045f57805461045f9061118d565b50505050565b60008181526001602052604090206002015481906001600160a01b031633146104c25760405162461bcd60e51b815260206004820152600f60248201526e3737ba2a3432a3b0b6b2a7bbb732b960891b604482015260640161034e565b6000828152600160205260409020600380820154600160a01b900460ff1660048111156104f1576104f1611b34565b1415801561051f575060046003820154600160a01b900460ff16600481111561051c5761051c611b34565b14155b6105625760405162461bcd60e51b815260206004820152601460248201527319d85b59505b1c9958591e519a5b985b1a5e995960621b604482015260640161034e565b60038101805460ff60a01b1916600160a11b17905560005b60078201548110156105e5578160040154600260008460070184815481106105a4576105a46120a6565b60009182526020808320909101546001600160a01b03168352820192909252604001812080549091906105d89084906120bc565b909155505060010161057a565b506040518381527f8f1ffb72cf9e5acc4eddafab2be9e2951d12377b9e1e4bdc7bd686b19c91fd89906020015b60405180910390a1505050565b610627611a0c565b600082815260016020526040902060028101546001600160a01b031661067e5760405162461bcd60e51b815260206004820152600c60248201526b19d85b59539bdd119bdd5b9960a21b604482015260640161034e565b3360009081526009820160209081526040808320805482518185028101850190935280835291929091908301828280156106d757602002820191906000526020600020905b8154815260200190600101908083116106c3575b50505050509050604051806101a001604052808360000154815260200183600101805461070390611f36565b80601f016020809104026020016040519081016040528092919081815260200182805461072f90611f36565b801561077c5780601f106107515761010080835404028352916020019161077c565b820191906000526020600020905b81548152906001019060200180831161075f57829003601f168201915b505050918352505060028401546001600160a01b03908116602083015260038501549081166040830152606090910190600160a01b900460ff1660048111156107c7576107c7611b34565b81526020018360040154815260200183600501548152602001836006015481526020018360070180548060200260200160405190810160405280929190818152602001828054801561084257602002820191906000526020600020905b81546001600160a01b03168152600190910190602001808311610824575b50505050508152602001836008018054806020026020016040519081016040528092919081815260200182805480156108a457602002820191906000526020600020905b81546001600160a01b03168152600190910190602001808311610886575b5050505050815260200183600a018054806020026020016040519081016040528092919081815260200182805480156108fc57602002820191906000526020600020905b8154815260200190600101908083116108e8575b5050505050815260200183600b0180548060200260200160405190810160405280929190818152602001828054801561095457602002820191906000526020600020905b815481526020019060010190808311610940575b5050509183525050602001919091529392505050565b8261097581336113c2565b6109b55760405162461bcd60e51b81526020600482015260116024820152703737ba20b720b1ba34bb32a83630bcb2b960791b604482015260640161034e565b6000848152600160208190526040909120906003820154600160a01b900460ff1660048111156109e7576109e7611b34565b14610a265760405162461bcd60e51b815260206004820152600f60248201526e67616d6549734e6f7441637469766560881b604482015260640161034e565b600083610a3486600a6120cf565b610a3e91906120bc565b3360009081526009840160205260409020909150610a5c9082611437565b610aa85760405162461bcd60e51b815260206004820152601960248201527f706c61796572446f65734e6f7448617665546865506965636500000000000000604482015260640161034e565b3360009081526009830160205260409020610ac39082611483565b600b820180546001810182556000918252602080832090910183905533825260098401905260408120549003610b0457610afd8633611535565b505061045f565b6000610b0f83611644565b905080610b2757610b1f876117b7565b50505061045f565b6008830154600c840154610b3c9060016120bc565b610b4691906120fc565b600c840155604080518881523360208201529081018390527f953a0c0baf4a6e0dc4e5e310567187c0e370783b04a1c4ddbe4e721c8aac945c9060600160405180910390a150505050505050565b60606000805467ffffffffffffffff811115610bb257610bb2611c04565b604051908082528060200260200182016040528015610beb57816020015b610bd8611a0c565b815260200190600190039081610bd05790505b50905060005b600054811015610f105760008181526001602090815260408083203384526009810183528184208054835181860281018601909452808452919493909190830182828015610c5e57602002820191906000526020600020905b815481526020019060010190808311610c4a575b50505050509050604051806101a0016040528083600001548152602001836001018054610c8a90611f36565b80601f0160208091040260200160405190810160405280929190818152602001828054610cb690611f36565b8015610d035780601f10610cd857610100808354040283529160200191610d03565b820191906000526020600020905b815481529060010190602001808311610ce657829003601f168201915b505050918352505060028401546001600160a01b03908116602083015260038501549081166040830152606090910190600160a01b900460ff166004811115610d4e57610d4e611b34565b815260200183600401548152602001836005015481526020018360060154815260200183600701805480602002602001604051908101604052809291908181526020018280548015610dc957602002820191906000526020600020905b81546001600160a01b03168152600190910190602001808311610dab575b5050505050815260200183600801805480602002602001604051908101604052809291908181526020018280548015610e2b57602002820191906000526020600020905b81546001600160a01b03168152600190910190602001808311610e0d575b5050505050815260200183600a01805480602002602001604051908101604052809291908181526020018280548015610e8357602002820191906000526020600020905b815481526020019060010190808311610e6f575b5050505050815260200183600b01805480602002602001604051908101604052809291908181526020018280548015610edb57602002820191906000526020600020905b815481526020019060010190808311610ec7575b5050505050815260200182815250848481518110610efb57610efb6120a6565b60209081029190910101525050600101610bf1565b50919050565b60008181526001602052604090206002015481906001600160a01b03163314610f735760405162461bcd60e51b815260206004820152600f60248201526e3737ba2a3432a3b0b6b2a7bbb732b960891b604482015260640161034e565b6000828152600160205260409020600781015460021115610fc95760405162461bcd60e51b815260206004820152601060248201526f6e6f74456e6f756768506c617965727360801b604482015260640161034e565b60006003820154600160a01b900460ff166004811115610feb57610feb611b34565b1461102e5760405162461bcd60e51b815260206004820152601360248201527219d85b59539bdd149958591e551bd4dd185c9d606a1b604482015260640161034e565b611036611878565b805161104c91600a840191602090910190611a75565b5061105981600a01611925565b60005b60078201548110156111405760005b6006811161113757600a830180546000919061108990600190612110565b81548110611099576110996120a6565b906000526020600020015490508360090160008560070185815481106110c1576110c16120a6565b60009182526020808320909101546001600160a01b031683528281019390935260409091018120805460018101825590825291902001819055600a840180548061110d5761110d612123565b6001900381819060005260206000200160009055905550808061112f9061208d565b91505061106b565b5060010161105c565b5060038101805460ff60a01b1916600160a01b1790556000600c8201556040518381527f50ad08f58a27f2851d7e3a1b3a6a46b290f2ce677e99642d30ff639721e7779090602001610612565b6000818152600160205260408120906003820154600160a01b900460ff1660048111156111bc576111bc611b34565b146112095760405162461bcd60e51b815260206004820152601760248201527f67616d654e6f74416363657074696e67506c6179657273000000000000000000604482015260640161034e565b806004015434146112505760405162461bcd60e51b8152602060048201526011602482015270696e636f7272656374456e74727946656560781b604482015260640161034e565b60068101546007820154106112945760405162461bcd60e51b815260206004820152600a60248201526919d85b59525cd19d5b1b60b21b604482015260640161034e565b60005b600782015481101561132257336001600160a01b03168260070182815481106112c2576112c26120a6565b6000918252602090912001546001600160a01b03160361131a5760405162461bcd60e51b8152602060048201526013602482015272706c61796572416c7265616479496e47616d6560681b604482015260640161034e565b600101611297565b5060078101805460018082018355600092835260208084209092018054336001600160a01b031991821681179092556008860180549384018155855292842090910180549092161790556005820180543492906113809084906120bc565b9091555050604080518381523360208201527f87969bc7faf902221a147b95ceba76e011c5efb0339a0a8ee7a2bb82d9cfbbd691015b60405180910390a15050565b6000828152600160205260408120815b600882015481101561142a57836001600160a01b03168260080182815481106113fd576113fd6120a6565b6000918252602090912001546001600160a01b03160361142257600192505050611431565b6001016113d2565b5060009150505b92915050565b6000805b83548110156114795782848281548110611457576114576120a6565b906000526020600020015403611471576001915050611431565b60010161143b565b5060009392505050565b60005b825481101561153057818382815481106114a2576114a26120a6565b90600052602060002001540361152857825483906114c290600190612110565b815481106114d2576114d26120a6565b90600052602060002001548382815481106114ef576114ef6120a6565b90600052602060002001819055508280548061150d5761150d612123565b60019003818190600052602060002001600090559055505050565b600101611486565b505050565b6000828152600160208190526040909120906003820154600160a01b900460ff16600481111561156757611567611b34565b146115a65760405162461bcd60e51b815260206004820152600f60248201526e67616d6549734e6f7441637469766560881b604482015260640161034e565b60038101805460ff60a01b1916600360a01b17905560058101546001600160a01b038316600090815260026020526040812080549091906115e89084906120bc565b90915550506003810180546001600160a01b0319166001600160a01b0384169081179091556040805185815260208101929092527f7f40df5127524300187445e867486da572aab86769c0212e0b392bd87c4ca97f9101610612565b6000805b60088301548110156117ae57600083600801828154811061166b5761166b6120a6565b60009182526020808320909101546001600160a01b03168083526009870190915260408220909250905b81548110156117a35760008282815481106116b2576116b26120a6565b600091825260208220015491506116ca600a83612139565b905060006116d9600a846120fc565b9050600089600b016000815481106116f3576116f36120a6565b6000918252602082200154600b8c0180549193509061171490600190612110565b81548110611724576117246120a6565b90600052602060002001549050600a8261173e9190612139565b8414806117545750611751600a83612139565b83145b806117685750611765600a826120fc565b84145b8061177c5750611779600a826120fc565b83145b15611792575060019a9950505050505050505050565b505060019093019250611695915050565b505050600101611648565b50600092915050565b600081815260016020526040812060038101805460ff60a01b1916600160a21b179055905b600782015481101561184757816004015460026000846007018481548110611806576118066120a6565b60009182526020808320909101546001600160a01b031683528201929092526040018120805490919061183a9084906120bc565b90915550506001016117dc565b506040518281527fbde3492a0339dd7cc8e00379877e059a377bad88cd45be37d94fc781910b95c9906020016113b6565b60408051601c8082526103a082019092526060916000919060208201610380803683370190505090506000805b6006811161191d57805b6006811161190a57806118c383600a6120cf565b6118cd91906120bc565b8484815181106118df576118df6120a6565b6020908102919091010152826118f48161208d565b93505080806119029061208d565b9150506118af565b50806119158161208d565b9150506118a5565b509092915050565b60005b8154811015610392578154600090611941908390612110565b6040805142602082015244918101919091526060016040516020818303038152906040528051906020012060001c61197991906120fc565b61198390836120bc565b90506000838281548110611999576119996120a6565b906000526020600020015490508383815481106119b8576119b86120a6565b90600052602060002001548483815481106119d5576119d56120a6565b9060005260206000200181905550808484815481106119f6576119f66120a6565b6000918252602090912001555050600101611928565b604080516101a0810182526000808252606060208301819052928201819052918101829052906080820190815260200160008152602001600081526020016000815260200160608152602001606081526020016060815260200160608152602001606081525090565b828054828255906000526020600020908101928215611ab0579160200282015b82811115611ab0578251825591602001919060010190611a95565b50611abc929150611ac0565b5090565b5b80821115611abc5760008155600101611ac1565b600060208284031215611ae757600080fd5b5035919050565b6000815180845260005b81811015611b1457602081850181015186830182015201611af8565b506000602082860101526020601f19601f83011685010191505092915050565b634e487b7160e01b600052602160045260246000fd5b60058110611b6857634e487b7160e01b600052602160045260246000fd5b9052565b89815261012060208201526000611b8761012083018b611aee565b6001600160a01b038a81166040850152891660608401529050611bad6080830188611b4a565b8560a08301528460c08301528360e0830152826101008301529a9950505050505050505050565b600060208284031215611be657600080fd5b81356001600160a01b0381168114611bfd57600080fd5b9392505050565b634e487b7160e01b600052604160045260246000fd5b80358015158114611c2a57600080fd5b919050565b600080600060608486031215611c4457600080fd5b833567ffffffffffffffff811115611c5b57600080fd5b8401601f81018613611c6c57600080fd5b803567ffffffffffffffff811115611c8657611c86611c04565b604051601f8201601f19908116603f0116810167ffffffffffffffff81118282101715611cb557611cb5611c04565b604052818152828201602001881015611ccd57600080fd5b816020840160208301376000602092820183015294508501359250611cf6905060408501611c1a565b90509250925092565b600081518084526020840193506020830160005b82811015611d3a5781516001600160a01b0316865260209586019590910190600101611d13565b5093949350505050565b600081518084526020840193506020830160005b82811015611d3a578151865260209586019590910190600101611d58565b80518252600060208201516101a06020850152611d976101a0850182611aee565b90506040830151611db360408601826001600160a01b03169052565b506060830151611dce60608601826001600160a01b03169052565b506080830151611de16080860182611b4a565b5060a083015160a085015260c083015160c085015260e083015160e0850152610100830151848203610100860152611e198282611cff565b915050610120830151848203610120860152611e358282611cff565b915050610140830151848203610140860152611e518282611d44565b915050610160830151848203610160860152611e6d8282611d44565b915050610180830151848203610180860152611e898282611d44565b95945050505050565b602081526000611bfd6020830184611d76565b600080600060608486031215611eba57600080fd5b505081359360208301359350604090920135919050565b6000602082016020835280845180835260408501915060408160051b86010192506020860160005b82811015611f2a57603f19878603018452611f15858351611d76565b94506020938401939190910190600101611ef9565b50929695505050505050565b600181811c90821680611f4a57607f821691505b602082108103610f1057634e487b7160e01b600052602260045260246000fd5b601f82111561153057806000526020600020601f840160051c81016020851015611f915750805b601f840160051c820191505b81811015611fb15760008155600101611f9d565b5050505050565b815167ffffffffffffffff811115611fd257611fd2611c04565b611fe681611fe08454611f36565b84611f6a565b6020601f82116001811461201a57600083156120025750848201515b600019600385901b1c1916600184901b178455611fb1565b600084815260208120601f198516915b8281101561204a578785015182556020948501946001909201910161202a565b50848210156120685786840151600019600387901b60f8161c191681555b50505050600190811b01905550565b634e487b7160e01b600052601160045260246000fd5b60006001820161209f5761209f612077565b5060010190565b634e487b7160e01b600052603260045260246000fd5b8082018082111561143157611431612077565b808202811582820484141761143157611431612077565b634e487b7160e01b600052601260045260246000fd5b60008261210b5761210b6120e6565b500690565b8181038181111561143157611431612077565b634e487b7160e01b600052603160045260246000fd5b600082612148576121486120e6565b50049056fea26469706673582212209e70542240afedbafcab1462f75a0bb300e98a1148fe028861d5f8e48078357e64736f6c634300081c0033","opcodes":"PUSH1 0x80 PUSH1 0x40 MSTORE CALLVALUE DUP1 ISZERO PUSH1 0xF JUMPI PUSH1 0x0 DUP1 REVERT JUMPDEST POP PUSH2 0x2183 DUP1 PUSH2 0x1F PUSH1 0x0 CODECOPY PUSH1 0x0 RETURN INVALID PUSH1 0x80 PUSH1 0x40 MSTORE PUSH1 0x4 CALLDATASIZE LT PUSH2 0x9C JUMPI PUSH1 0x0 CALLDATALOAD PUSH1 0xE0 SHR DUP1 PUSH4 0x69958AB9 GT PUSH2 0x64 JUMPI DUP1 PUSH4 0x69958AB9 EQ PUSH2 0x15A JUMPI DUP1 PUSH4 0xA2F77BCC EQ PUSH2 0x17A JUMPI DUP1 PUSH4 0xCFC2F5FF EQ PUSH2 0x1A7 JUMPI DUP1 PUSH4 0xDB1C45F9 EQ PUSH2 0x1C7 JUMPI DUP1 PUSH4 0xE5ED1D59 EQ PUSH2 0x1E9 JUMPI DUP1 PUSH4 0xEFAA55A0 EQ PUSH2 0x209 JUMPI PUSH1 0x0 DUP1 REVERT JUMPDEST DUP1 PUSH4 0x117A5B90 EQ PUSH2 0xA1 JUMPI DUP1 PUSH4 0x27E235E3 EQ PUSH2 0xDF JUMPI DUP1 PUSH4 0x2E0BE39A EQ PUSH2 0x11A JUMPI DUP1 PUSH4 0x3CCFD60B EQ PUSH2 0x130 JUMPI DUP1 PUSH4 0x43DBF0EF EQ PUSH2 0x147 JUMPI JUMPDEST PUSH1 0x0 DUP1 REVERT JUMPDEST CALLVALUE DUP1 ISZERO PUSH2 0xAD JUMPI PUSH1 0x0 DUP1 REVERT JUMPDEST POP PUSH2 0xC1 PUSH2 0xBC CALLDATASIZE PUSH1 0x4 PUSH2 0x1AD5 JUMP JUMPDEST PUSH2 0x21C JUMP JUMPDEST PUSH1 0x40 MLOAD PUSH2 0xD6 SWAP10 SWAP9 SWAP8 SWAP7 SWAP6 SWAP5 SWAP4 SWAP3 SWAP2 SWAP1 PUSH2 0x1B6C JUMP JUMPDEST PUSH1 0x40 MLOAD DUP1 SWAP2 SUB SWAP1 RETURN JUMPDEST CALLVALUE DUP1 ISZERO PUSH2 0xEB JUMPI PUSH1 0x0 DUP1 REVERT JUMPDEST POP PUSH2 0x10C PUSH2 0xFA CALLDATASIZE PUSH1 0x4 PUSH2 0x1BD4 JUMP JUMPDEST PUSH1 0x2 PUSH1 0x20 MSTORE PUSH1 0x0 SWAP1 DUP2 MSTORE PUSH1 0x40 SWAP1 KECCAK256 SLOAD DUP2 JUMP JUMPDEST PUSH1 0x40 MLOAD SWAP1 DUP2 MSTORE PUSH1 0x20 ADD PUSH2 0xD6 JUMP JUMPDEST CALLVALUE DUP1 ISZERO PUSH2 0x126 JUMPI PUSH1 0x0 DUP1 REVERT JUMPDEST POP PUSH2 0x10C PUSH1 0x0 SLOAD DUP2 JUMP JUMPDEST CALLVALUE DUP1 ISZERO PUSH2 0x13C JUMPI PUSH1 0x0 DUP1 REVERT JUMPDEST POP PUSH2 0x145 PUSH2 0x2FF JUMP JUMPDEST STOP JUMPDEST PUSH2 0x145 PUSH2 0x155 CALLDATASIZE PUSH1 0x4 PUSH2 0x1C2F JUMP JUMPDEST PUSH2 0x396 JUMP JUMPDEST CALLVALUE DUP1 ISZERO PUSH2 0x166 JUMPI PUSH1 0x0 DUP1 REVERT JUMPDEST POP PUSH2 0x145 PUSH2 0x175 CALLDATASIZE PUSH1 0x4 PUSH2 0x1AD5 JUMP JUMPDEST PUSH2 0x465 JUMP JUMPDEST CALLVALUE DUP1 ISZERO PUSH2 0x186 JUMPI PUSH1 0x0 DUP1 REVERT JUMPDEST POP PUSH2 0x19A PUSH2 0x195 CALLDATASIZE PUSH1 0x4 PUSH2 0x1AD5 JUMP JUMPDEST PUSH2 0x61F JUMP JUMPDEST PUSH1 0x40 MLOAD PUSH2 0xD6 SWAP2 SWAP1 PUSH2 0x1E92 JUMP JUMPDEST CALLVALUE DUP1 ISZERO PUSH2 0x1B3 JUMPI PUSH1 0x0 DUP1 REVERT JUMPDEST POP PUSH2 0x145 PUSH2 0x1C2 CALLDATASIZE PUSH1 0x4 PUSH2 0x1EA5 JUMP JUMPDEST PUSH2 0x96A JUMP JUMPDEST CALLVALUE DUP1 ISZERO PUSH2 0x1D3 JUMPI PUSH1 0x0 DUP1 REVERT JUMPDEST POP PUSH2 0x1DC PUSH2 0xB94 JUMP JUMPDEST PUSH1 0x40 MLOAD PUSH2 0xD6 SWAP2 SWAP1 PUSH2 0x1ED1 JUMP JUMPDEST CALLVALUE DUP1 ISZERO PUSH2 0x1F5 JUMPI PUSH1 0x0 DUP1 REVERT JUMPDEST POP PUSH2 0x145 PUSH2 0x204 CALLDATASIZE PUSH1 0x4 PUSH2 0x1AD5 JUMP JUMPDEST PUSH2 0xF16 JUMP JUMPDEST PUSH2 0x145 PUSH2 0x217 CALLDATASIZE PUSH1 0x4 PUSH2 0x1AD5 JUMP JUMPDEST PUSH2 0x118D JUMP JUMPDEST PUSH1 0x1 PUSH1 0x20 DUP2 SWAP1 MSTORE PUSH1 0x0 SWAP2 DUP3 MSTORE PUSH1 0x40 SWAP1 SWAP2 KECCAK256 DUP1 SLOAD SWAP2 DUP2 ADD DUP1 SLOAD PUSH2 0x23D SWAP1 PUSH2 0x1F36 JUMP JUMPDEST DUP1 PUSH1 0x1F ADD PUSH1 0x20 DUP1 SWAP2 DIV MUL PUSH1 0x20 ADD PUSH1 0x40 MLOAD SWAP1 DUP2 ADD PUSH1 0x40 MSTORE DUP1 SWAP3 SWAP2 SWAP1 DUP2 DUP2 MSTORE PUSH1 0x20 ADD DUP3 DUP1 SLOAD PUSH2 0x269 SWAP1 PUSH2 0x1F36 JUMP JUMPDEST DUP1 ISZERO PUSH2 0x2B6 JUMPI DUP1 PUSH1 0x1F LT PUSH2 0x28B JUMPI PUSH2 0x100 DUP1 DUP4 SLOAD DIV MUL DUP4 MSTORE SWAP2 PUSH1 0x20 ADD SWAP2 PUSH2 0x2B6 JUMP JUMPDEST DUP3 ADD SWAP2 SWAP1 PUSH1 0x0 MSTORE PUSH1 0x20 PUSH1 0x0 KECCAK256 SWAP1 JUMPDEST DUP2 SLOAD DUP2 MSTORE SWAP1 PUSH1 0x1 ADD SWAP1 PUSH1 0x20 ADD DUP1 DUP4 GT PUSH2 0x299 JUMPI DUP3 SWAP1 SUB PUSH1 0x1F AND DUP3 ADD SWAP2 JUMPDEST POP POP POP POP PUSH1 0x2 DUP4 ADD SLOAD PUSH1 0x3 DUP5 ADD SLOAD PUSH1 0x4 DUP6 ADD SLOAD PUSH1 0x5 DUP7 ADD SLOAD PUSH1 0x6 DUP8 ADD SLOAD PUSH1 0xC SWAP1 SWAP8 ADD SLOAD SWAP6 SWAP7 PUSH1 0x1 PUSH1 0x1 PUSH1 0xA0 SHL SUB SWAP5 DUP6 AND SWAP7 SWAP5 DUP5 AND SWAP6 POP PUSH1 0x1 PUSH1 0xA0 SHL SWAP1 SWAP4 DIV PUSH1 0xFF AND SWAP4 SWAP2 SWAP3 SWAP1 SWAP2 DUP10 JUMP JUMPDEST CALLER PUSH1 0x0 SWAP1 DUP2 MSTORE PUSH1 0x2 PUSH1 0x20 MSTORE PUSH1 0x40 SWAP1 KECCAK256 SLOAD DUP1 PUSH2 0x357 JUMPI PUSH1 0x40 MLOAD PUSH3 0x461BCD PUSH1 0xE5 SHL DUP2 MSTORE PUSH1 0x20 PUSH1 0x4 DUP3 ADD MSTORE PUSH1 0x13 PUSH1 0x24 DUP3 ADD MSTORE PUSH19 0x6E6F42616C616E6365546F5769746864726177 PUSH1 0x68 SHL PUSH1 0x44 DUP3 ADD MSTORE PUSH1 0x64 ADD JUMPDEST PUSH1 0x40 MLOAD DUP1 SWAP2 SUB SWAP1 REVERT JUMPDEST CALLER PUSH1 0x0 DUP2 DUP2 MSTORE PUSH1 0x2 PUSH1 0x20 MSTORE PUSH1 0x40 DUP1 DUP3 KECCAK256 DUP3 SWAP1 SSTORE MLOAD DUP4 ISZERO PUSH2 0x8FC MUL SWAP2 DUP5 SWAP2 SWAP1 DUP2 DUP2 DUP2 DUP6 DUP9 DUP9 CALL SWAP4 POP POP POP POP ISZERO DUP1 ISZERO PUSH2 0x392 JUMPI RETURNDATASIZE PUSH1 0x0 DUP1 RETURNDATACOPY RETURNDATASIZE PUSH1 0x0 REVERT JUMPDEST POP POP JUMP JUMPDEST PUSH1 0x0 DUP1 SLOAD DUP1 DUP3 MSTORE PUSH1 0x1 PUSH1 0x20 DUP2 SWAP1 MSTORE PUSH1 0x40 SWAP1 SWAP3 KECCAK256 SWAP1 DUP2 SSTORE SWAP1 DUP2 ADD PUSH2 0x3B9 DUP6 DUP3 PUSH2 0x1FB8 JUMP JUMPDEST POP PUSH1 0x4 PUSH1 0x6 DUP3 ADD SSTORE PUSH1 0x2 DUP2 ADD DUP1 SLOAD PUSH1 0x1 PUSH1 0x1 PUSH1 0xA0 SHL SUB NOT AND CALLER OR SWAP1 SSTORE PUSH1 0x3 DUP2 ADD DUP1 SLOAD PUSH1 0x0 SWAP2 SWAP1 PUSH1 0xFF PUSH1 0xA0 SHL NOT AND PUSH1 0x1 PUSH1 0xA0 SHL DUP4 MUL OR SWAP1 SSTORE POP PUSH1 0x4 DUP2 ADD DUP4 SWAP1 SSTORE PUSH1 0x0 SLOAD PUSH1 0x40 DUP1 MLOAD SWAP2 DUP3 MSTORE CALLER PUSH1 0x20 DUP4 ADD MSTORE DUP2 ADD DUP5 SWAP1 MSTORE PUSH32 0x7DFB67E9FF596FCA4DA65C7EEDB128CD1AAC553AF54B3C0CB733625A2480D8BD SWAP1 PUSH1 0x60 ADD PUSH1 0x40 MLOAD DUP1 SWAP2 SUB SWAP1 LOG1 PUSH1 0x0 DUP1 SLOAD SWAP1 DUP1 PUSH2 0x449 DUP4 PUSH2 0x208D JUMP JUMPDEST SWAP2 SWAP1 POP SSTORE POP DUP2 ISZERO PUSH2 0x45F JUMPI DUP1 SLOAD PUSH2 0x45F SWAP1 PUSH2 0x118D JUMP JUMPDEST POP POP POP POP JUMP JUMPDEST PUSH1 0x0 DUP2 DUP2 MSTORE PUSH1 0x1 PUSH1 0x20 MSTORE PUSH1 0x40 SWAP1 KECCAK256 PUSH1 0x2 ADD SLOAD DUP2 SWAP1 PUSH1 0x1 PUSH1 0x1 PUSH1 0xA0 SHL SUB AND CALLER EQ PUSH2 0x4C2 JUMPI PUSH1 0x40 MLOAD PUSH3 0x461BCD PUSH1 0xE5 SHL DUP2 MSTORE PUSH1 0x20 PUSH1 0x4 DUP3 ADD MSTORE PUSH1 0xF PUSH1 0x24 DUP3 ADD MSTORE PUSH15 0x3737BA2A3432A3B0B6B2A7BBB732B9 PUSH1 0x89 SHL PUSH1 0x44 DUP3 ADD MSTORE PUSH1 0x64 ADD PUSH2 0x34E JUMP JUMPDEST PUSH1 0x0 DUP3 DUP2 MSTORE PUSH1 0x1 PUSH1 0x20 MSTORE PUSH1 0x40 SWAP1 KECCAK256 PUSH1 0x3 DUP1 DUP3 ADD SLOAD PUSH1 0x1 PUSH1 0xA0 SHL SWAP1 DIV PUSH1 0xFF AND PUSH1 0x4 DUP2 GT ISZERO PUSH2 0x4F1 JUMPI PUSH2 0x4F1 PUSH2 0x1B34 JUMP JUMPDEST EQ ISZERO DUP1 ISZERO PUSH2 0x51F JUMPI POP PUSH1 0x4 PUSH1 0x3 DUP3 ADD SLOAD PUSH1 0x1 PUSH1 0xA0 SHL SWAP1 DIV PUSH1 0xFF AND PUSH1 0x4 DUP2 GT ISZERO PUSH2 0x51C JUMPI PUSH2 0x51C PUSH2 0x1B34 JUMP JUMPDEST EQ ISZERO JUMPDEST PUSH2 0x562 JUMPI PUSH1 0x40 MLOAD PUSH3 0x461BCD PUSH1 0xE5 SHL DUP2 MSTORE PUSH1 0x20 PUSH1 0x4 DUP3 ADD MSTORE PUSH1 0x14 PUSH1 0x24 DUP3 ADD MSTORE PUSH20 0x19D85B59505B1C9958591E519A5B985B1A5E9959 PUSH1 0x62 SHL PUSH1 0x44 DUP3 ADD MSTORE PUSH1 0x64 ADD PUSH2 0x34E JUMP JUMPDEST PUSH1 0x3 DUP2 ADD DUP1 SLOAD PUSH1 0xFF PUSH1 0xA0 SHL NOT AND PUSH1 0x1 PUSH1 0xA1 SHL OR SWAP1 SSTORE PUSH1 0x0 JUMPDEST PUSH1 0x7 DUP3 ADD SLOAD DUP2 LT ISZERO PUSH2 0x5E5 JUMPI DUP2 PUSH1 0x4 ADD SLOAD PUSH1 0x2 PUSH1 0x0 DUP5 PUSH1 0x7 ADD DUP5 DUP2 SLOAD DUP2 LT PUSH2 0x5A4 JUMPI PUSH2 0x5A4 PUSH2 0x20A6 JUMP JUMPDEST PUSH1 0x0 SWAP2 DUP3 MSTORE PUSH1 0x20 DUP1 DUP4 KECCAK256 SWAP1 SWAP2 ADD SLOAD PUSH1 0x1 PUSH1 0x1 PUSH1 0xA0 SHL SUB AND DUP4 MSTORE DUP3 ADD SWAP3 SWAP1 SWAP3 MSTORE PUSH1 0x40 ADD DUP2 KECCAK256 DUP1 SLOAD SWAP1 SWAP2 SWAP1 PUSH2 0x5D8 SWAP1 DUP5 SWAP1 PUSH2 0x20BC JUMP JUMPDEST SWAP1 SWAP2 SSTORE POP POP PUSH1 0x1 ADD PUSH2 0x57A JUMP JUMPDEST POP PUSH1 0x40 MLOAD DUP4 DUP2 MSTORE PUSH32 0x8F1FFB72CF9E5ACC4EDDAFAB2BE9E2951D12377B9E1E4BDC7BD686B19C91FD89 SWAP1 PUSH1 0x20 ADD JUMPDEST PUSH1 0x40 MLOAD DUP1 SWAP2 SUB SWAP1 LOG1 POP POP POP JUMP JUMPDEST PUSH2 0x627 PUSH2 0x1A0C JUMP JUMPDEST PUSH1 0x0 DUP3 DUP2 MSTORE PUSH1 0x1 PUSH1 0x20 MSTORE PUSH1 0x40 SWAP1 KECCAK256 PUSH1 0x2 DUP2 ADD SLOAD PUSH1 0x1 PUSH1 0x1 PUSH1 0xA0 SHL SUB AND PUSH2 0x67E JUMPI PUSH1 0x40 MLOAD PUSH3 0x461BCD PUSH1 0xE5 SHL DUP2 MSTORE PUSH1 0x20 PUSH1 0x4 DUP3 ADD MSTORE PUSH1 0xC PUSH1 0x24 DUP3 ADD MSTORE PUSH12 0x19D85B59539BDD119BDD5B99 PUSH1 0xA2 SHL PUSH1 0x44 DUP3 ADD MSTORE PUSH1 0x64 ADD PUSH2 0x34E JUMP JUMPDEST CALLER PUSH1 0x0 SWAP1 DUP2 MSTORE PUSH1 0x9 DUP3 ADD PUSH1 0x20 SWAP1 DUP2 MSTORE PUSH1 0x40 DUP1 DUP4 KECCAK256 DUP1 SLOAD DUP3 MLOAD DUP2 DUP6 MUL DUP2 ADD DUP6 ADD SWAP1 SWAP4 MSTORE DUP1 DUP4 MSTORE SWAP2 SWAP3 SWAP1 SWAP2 SWAP1 DUP4 ADD DUP3 DUP3 DUP1 ISZERO PUSH2 0x6D7 JUMPI PUSH1 0x20 MUL DUP3 ADD SWAP2 SWAP1 PUSH1 0x0 MSTORE PUSH1 0x20 PUSH1 0x0 KECCAK256 SWAP1 JUMPDEST DUP2 SLOAD DUP2 MSTORE PUSH1 0x20 ADD SWAP1 PUSH1 0x1 ADD SWAP1 DUP1 DUP4 GT PUSH2 0x6C3 JUMPI JUMPDEST POP POP POP POP POP SWAP1 POP PUSH1 0x40 MLOAD DUP1 PUSH2 0x1A0 ADD PUSH1 0x40 MSTORE DUP1 DUP4 PUSH1 0x0 ADD SLOAD DUP2 MSTORE PUSH1 0x20 ADD DUP4 PUSH1 0x1 ADD DUP1 SLOAD PUSH2 0x703 SWAP1 PUSH2 0x1F36 JUMP JUMPDEST DUP1 PUSH1 0x1F ADD PUSH1 0x20 DUP1 SWAP2 DIV MUL PUSH1 0x20 ADD PUSH1 0x40 MLOAD SWAP1 DUP2 ADD PUSH1 0x40 MSTORE DUP1 SWAP3 SWAP2 SWAP1 DUP2 DUP2 MSTORE PUSH1 0x20 ADD DUP3 DUP1 SLOAD PUSH2 0x72F SWAP1 PUSH2 0x1F36 JUMP JUMPDEST DUP1 ISZERO PUSH2 0x77C JUMPI DUP1 PUSH1 0x1F LT PUSH2 0x751 JUMPI PUSH2 0x100 DUP1 DUP4 SLOAD DIV MUL DUP4 MSTORE SWAP2 PUSH1 0x20 ADD SWAP2 PUSH2 0x77C JUMP JUMPDEST DUP3 ADD SWAP2 SWAP1 PUSH1 0x0 MSTORE PUSH1 0x20 PUSH1 0x0 KECCAK256 SWAP1 JUMPDEST DUP2 SLOAD DUP2 MSTORE SWAP1 PUSH1 0x1 ADD SWAP1 PUSH1 0x20 ADD DUP1 DUP4 GT PUSH2 0x75F JUMPI DUP3 SWAP1 SUB PUSH1 0x1F AND DUP3 ADD SWAP2 JUMPDEST POP POP POP SWAP2 DUP4 MSTORE POP POP PUSH1 0x2 DUP5 ADD SLOAD PUSH1 0x1 PUSH1 0x1 PUSH1 0xA0 SHL SUB SWAP1 DUP2 AND PUSH1 0x20 DUP4 ADD MSTORE PUSH1 0x3 DUP6 ADD SLOAD SWAP1 DUP2 AND PUSH1 0x40 DUP4 ADD MSTORE PUSH1 0x60 SWAP1 SWAP2 ADD SWAP1 PUSH1 0x1 PUSH1 0xA0 SHL SWAP1 DIV PUSH1 0xFF AND PUSH1 0x4 DUP2 GT ISZERO PUSH2 0x7C7 JUMPI PUSH2 0x7C7 PUSH2 0x1B34 JUMP JUMPDEST DUP2 MSTORE PUSH1 0x20 ADD DUP4 PUSH1 0x4 ADD SLOAD DUP2 MSTORE PUSH1 0x20 ADD DUP4 PUSH1 0x5 ADD SLOAD DUP2 MSTORE PUSH1 0x20 ADD DUP4 PUSH1 0x6 ADD SLOAD DUP2 MSTORE PUSH1 0x20 ADD DUP4 PUSH1 0x7 ADD DUP1 SLOAD DUP1 PUSH1 0x20 MUL PUSH1 0x20 ADD PUSH1 0x40 MLOAD SWAP1 DUP2 ADD PUSH1 0x40 MSTORE DUP1 SWAP3 SWAP2 SWAP1 DUP2 DUP2 MSTORE PUSH1 0x20 ADD DUP3 DUP1 SLOAD DUP1 ISZERO PUSH2 0x842 JUMPI PUSH1 0x20 MUL DUP3 ADD SWAP2 SWAP1 PUSH1 0x0 MSTORE PUSH1 0x20 PUSH1 0x0 KECCAK256 SWAP1 JUMPDEST DUP2 SLOAD PUSH1 0x1 PUSH1 0x1 PUSH1 0xA0 SHL SUB AND DUP2 MSTORE PUSH1 0x1 SWAP1 SWAP2 ADD SWAP1 PUSH1 0x20 ADD DUP1 DUP4 GT PUSH2 0x824 JUMPI JUMPDEST POP POP POP POP POP DUP2 MSTORE PUSH1 0x20 ADD DUP4 PUSH1 0x8 ADD DUP1 SLOAD DUP1 PUSH1 0x20 MUL PUSH1 0x20 ADD PUSH1 0x40 MLOAD SWAP1 DUP2 ADD PUSH1 0x40 MSTORE DUP1 SWAP3 SWAP2 SWAP1 DUP2 DUP2 MSTORE PUSH1 0x20 ADD DUP3 DUP1 SLOAD DUP1 ISZERO PUSH2 0x8A4 JUMPI PUSH1 0x20 MUL DUP3 ADD SWAP2 SWAP1 PUSH1 0x0 MSTORE PUSH1 0x20 PUSH1 0x0 KECCAK256 SWAP1 JUMPDEST DUP2 SLOAD PUSH1 0x1 PUSH1 0x1 PUSH1 0xA0 SHL SUB AND DUP2 MSTORE PUSH1 0x1 SWAP1 SWAP2 ADD SWAP1 PUSH1 0x20 ADD DUP1 DUP4 GT PUSH2 0x886 JUMPI JUMPDEST POP POP POP POP POP DUP2 MSTORE PUSH1 0x20 ADD DUP4 PUSH1 0xA ADD DUP1 SLOAD DUP1 PUSH1 0x20 MUL PUSH1 0x20 ADD PUSH1 0x40 MLOAD SWAP1 DUP2 ADD PUSH1 0x40 MSTORE DUP1 SWAP3 SWAP2 SWAP1 DUP2 DUP2 MSTORE PUSH1 0x20 ADD DUP3 DUP1 SLOAD DUP1 ISZERO PUSH2 0x8FC JUMPI PUSH1 0x20 MUL DUP3 ADD SWAP2 SWAP1 PUSH1 0x0 MSTORE PUSH1 0x20 PUSH1 0x0 KECCAK256 SWAP1 JUMPDEST DUP2 SLOAD DUP2 MSTORE PUSH1 0x20 ADD SWAP1 PUSH1 0x1 ADD SWAP1 DUP1 DUP4 GT PUSH2 0x8E8 JUMPI JUMPDEST POP POP POP POP POP DUP2 MSTORE PUSH1 0x20 ADD DUP4 PUSH1 0xB ADD DUP1 SLOAD DUP1 PUSH1 0x20 MUL PUSH1 0x20 ADD PUSH1 0x40 MLOAD SWAP1 DUP2 ADD PUSH1 0x40 MSTORE DUP1 SWAP3 SWAP2 SWAP1 DUP2 DUP2 MSTORE PUSH1 0x20 ADD DUP3 DUP1 SLOAD DUP1 ISZERO PUSH2 0x954 JUMPI PUSH1 0x20 MUL DUP3 ADD SWAP2 SWAP1 PUSH1 0x0 MSTORE PUSH1 0x20 PUSH1 0x0 KECCAK256 SWAP1 JUMPDEST DUP2 SLOAD DUP2 MSTORE PUSH1 0x20 ADD SWAP1 PUSH1 0x1 ADD SWAP1 DUP1 DUP4 GT PUSH2 0x940 JUMPI JUMPDEST POP POP POP SWAP2 DUP4 MSTORE POP POP PUSH1 0x20 ADD SWAP2 SWAP1 SWAP2 MSTORE SWAP4 SWAP3 POP POP POP JUMP JUMPDEST DUP3 PUSH2 0x975 DUP2 CALLER PUSH2 0x13C2 JUMP JUMPDEST PUSH2 0x9B5 JUMPI PUSH1 0x40 MLOAD PUSH3 0x461BCD PUSH1 0xE5 SHL DUP2 MSTORE PUSH1 0x20 PUSH1 0x4 DUP3 ADD MSTORE PUSH1 0x11 PUSH1 0x24 DUP3 ADD MSTORE PUSH17 0x3737BA20B720B1BA34BB32A83630BCB2B9 PUSH1 0x79 SHL PUSH1 0x44 DUP3 ADD MSTORE PUSH1 0x64 ADD PUSH2 0x34E JUMP JUMPDEST PUSH1 0x0 DUP5 DUP2 MSTORE PUSH1 0x1 PUSH1 0x20 DUP2 SWAP1 MSTORE PUSH1 0x40 SWAP1 SWAP2 KECCAK256 SWAP1 PUSH1 0x3 DUP3 ADD SLOAD PUSH1 0x1 PUSH1 0xA0 SHL SWAP1 DIV PUSH1 0xFF AND PUSH1 0x4 DUP2 GT ISZERO PUSH2 0x9E7 JUMPI PUSH2 0x9E7 PUSH2 0x1B34 JUMP JUMPDEST EQ PUSH2 0xA26 JUMPI PUSH1 0x40 MLOAD PUSH3 0x461BCD PUSH1 0xE5 SHL DUP2 MSTORE PUSH1 0x20 PUSH1 0x4 DUP3 ADD MSTORE PUSH1 0xF PUSH1 0x24 DUP3 ADD MSTORE PUSH15 0x67616D6549734E6F74416374697665 PUSH1 0x88 SHL PUSH1 0x44 DUP3 ADD MSTORE PUSH1 0x64 ADD PUSH2 0x34E JUMP JUMPDEST PUSH1 0x0 DUP4 PUSH2 0xA34 DUP7 PUSH1 0xA PUSH2 0x20CF JUMP JUMPDEST PUSH2 0xA3E SWAP2 SWAP1 PUSH2 0x20BC JUMP JUMPDEST CALLER PUSH1 0x0 SWAP1 DUP2 MSTORE PUSH1 0x9 DUP5 ADD PUSH1 0x20 MSTORE PUSH1 0x40 SWAP1 KECCAK256 SWAP1 SWAP2 POP PUSH2 0xA5C SWAP1 DUP3 PUSH2 0x1437 JUMP JUMPDEST PUSH2 0xAA8 JUMPI PUSH1 0x40 MLOAD PUSH3 0x461BCD PUSH1 0xE5 SHL DUP2 MSTORE PUSH1 0x20 PUSH1 0x4 DUP3 ADD MSTORE PUSH1 0x19 PUSH1 0x24 DUP3 ADD MSTORE PUSH32 0x706C61796572446F65734E6F7448617665546865506965636500000000000000 PUSH1 0x44 DUP3 ADD MSTORE PUSH1 0x64 ADD PUSH2 0x34E JUMP JUMPDEST CALLER PUSH1 0x0 SWAP1 DUP2 MSTORE PUSH1 0x9 DUP4 ADD PUSH1 0x20 MSTORE PUSH1 0x40 SWAP1 KECCAK256 PUSH2 0xAC3 SWAP1 DUP3 PUSH2 0x1483 JUMP JUMPDEST PUSH1 0xB DUP3 ADD DUP1 SLOAD PUSH1 0x1 DUP2 ADD DUP3 SSTORE PUSH1 0x0 SWAP2 DUP3 MSTORE PUSH1 0x20 DUP1 DUP4 KECCAK256 SWAP1 SWAP2 ADD DUP4 SWAP1 SSTORE CALLER DUP3 MSTORE PUSH1 0x9 DUP5 ADD SWAP1 MSTORE PUSH1 0x40 DUP2 KECCAK256 SLOAD SWAP1 SUB PUSH2 0xB04 JUMPI PUSH2 0xAFD DUP7 CALLER PUSH2 0x1535 JUMP JUMPDEST POP POP PUSH2 0x45F JUMP JUMPDEST PUSH1 0x0 PUSH2 0xB0F DUP4 PUSH2 0x1644 JUMP JUMPDEST SWAP1 POP DUP1 PUSH2 0xB27 JUMPI PUSH2 0xB1F DUP8 PUSH2 0x17B7 JUMP JUMPDEST POP POP POP PUSH2 0x45F JUMP JUMPDEST PUSH1 0x8 DUP4 ADD SLOAD PUSH1 0xC DUP5 ADD SLOAD PUSH2 0xB3C SWAP1 PUSH1 0x1 PUSH2 0x20BC JUMP JUMPDEST PUSH2 0xB46 SWAP2 SWAP1 PUSH2 0x20FC JUMP JUMPDEST PUSH1 0xC DUP5 ADD SSTORE PUSH1 0x40 DUP1 MLOAD DUP9 DUP2 MSTORE CALLER PUSH1 0x20 DUP3 ADD MSTORE SWAP1 DUP2 ADD DUP4 SWAP1 MSTORE PUSH32 0x953A0C0BAF4A6E0DC4E5E310567187C0E370783B04A1C4DDBE4E721C8AAC945C SWAP1 PUSH1 0x60 ADD PUSH1 0x40 MLOAD DUP1 SWAP2 SUB SWAP1 LOG1 POP POP POP POP POP POP POP JUMP JUMPDEST PUSH1 0x60 PUSH1 0x0 DUP1 SLOAD PUSH8 0xFFFFFFFFFFFFFFFF DUP2 GT ISZERO PUSH2 0xBB2 JUMPI PUSH2 0xBB2 PUSH2 0x1C04 JUMP JUMPDEST PUSH1 0x40 MLOAD SWAP1 DUP1 DUP3 MSTORE DUP1 PUSH1 0x20 MUL PUSH1 0x20 ADD DUP3 ADD PUSH1 0x40 MSTORE DUP1 ISZERO PUSH2 0xBEB JUMPI DUP2 PUSH1 0x20 ADD JUMPDEST PUSH2 0xBD8 PUSH2 0x1A0C JUMP JUMPDEST DUP2 MSTORE PUSH1 0x20 ADD SWAP1 PUSH1 0x1 SWAP1 SUB SWAP1 DUP2 PUSH2 0xBD0 JUMPI SWAP1 POP JUMPDEST POP SWAP1 POP PUSH1 0x0 JUMPDEST PUSH1 0x0 SLOAD DUP2 LT ISZERO PUSH2 0xF10 JUMPI PUSH1 0x0 DUP2 DUP2 MSTORE PUSH1 0x1 PUSH1 0x20 SWAP1 DUP2 MSTORE PUSH1 0x40 DUP1 DUP4 KECCAK256 CALLER DUP5 MSTORE PUSH1 0x9 DUP2 ADD DUP4 MSTORE DUP2 DUP5 KECCAK256 DUP1 SLOAD DUP4 MLOAD DUP2 DUP7 MUL DUP2 ADD DUP7 ADD SWAP1 SWAP5 MSTORE DUP1 DUP5 MSTORE SWAP2 SWAP5 SWAP4 SWAP1 SWAP2 SWAP1 DUP4 ADD DUP3 DUP3 DUP1 ISZERO PUSH2 0xC5E JUMPI PUSH1 0x20 MUL DUP3 ADD SWAP2 SWAP1 PUSH1 0x0 MSTORE PUSH1 0x20 PUSH1 0x0 KECCAK256 SWAP1 JUMPDEST DUP2 SLOAD DUP2 MSTORE PUSH1 0x20 ADD SWAP1 PUSH1 0x1 ADD SWAP1 DUP1 DUP4 GT PUSH2 0xC4A JUMPI JUMPDEST POP POP POP POP POP SWAP1 POP PUSH1 0x40 MLOAD DUP1 PUSH2 0x1A0 ADD PUSH1 0x40 MSTORE DUP1 DUP4 PUSH1 0x0 ADD SLOAD DUP2 MSTORE PUSH1 0x20 ADD DUP4 PUSH1 0x1 ADD DUP1 SLOAD PUSH2 0xC8A SWAP1 PUSH2 0x1F36 JUMP JUMPDEST DUP1 PUSH1 0x1F ADD PUSH1 0x20 DUP1 SWAP2 DIV MUL PUSH1 0x20 ADD PUSH1 0x40 MLOAD SWAP1 DUP2 ADD PUSH1 0x40 MSTORE DUP1 SWAP3 SWAP2 SWAP1 DUP2 DUP2 MSTORE PUSH1 0x20 ADD DUP3 DUP1 SLOAD PUSH2 0xCB6 SWAP1 PUSH2 0x1F36 JUMP JUMPDEST DUP1 ISZERO PUSH2 0xD03 JUMPI DUP1 PUSH1 0x1F LT PUSH2 0xCD8 JUMPI PUSH2 0x100 DUP1 DUP4 SLOAD DIV MUL DUP4 MSTORE SWAP2 PUSH1 0x20 ADD SWAP2 PUSH2 0xD03 JUMP JUMPDEST DUP3 ADD SWAP2 SWAP1 PUSH1 0x0 MSTORE PUSH1 0x20 PUSH1 0x0 KECCAK256 SWAP1 JUMPDEST DUP2 SLOAD DUP2 MSTORE SWAP1 PUSH1 0x1 ADD SWAP1 PUSH1 0x20 ADD DUP1 DUP4 GT PUSH2 0xCE6 JUMPI DUP3 SWAP1 SUB PUSH1 0x1F AND DUP3 ADD SWAP2 JUMPDEST POP POP POP SWAP2 DUP4 MSTORE POP POP PUSH1 0x2 DUP5 ADD SLOAD PUSH1 0x1 PUSH1 0x1 PUSH1 0xA0 SHL SUB SWAP1 DUP2 AND PUSH1 0x20 DUP4 ADD MSTORE PUSH1 0x3 DUP6 ADD SLOAD SWAP1 DUP2 AND PUSH1 0x40 DUP4 ADD MSTORE PUSH1 0x60 SWAP1 SWAP2 ADD SWAP1 PUSH1 0x1 PUSH1 0xA0 SHL SWAP1 DIV PUSH1 0xFF AND PUSH1 0x4 DUP2 GT ISZERO PUSH2 0xD4E JUMPI PUSH2 0xD4E PUSH2 0x1B34 JUMP JUMPDEST DUP2 MSTORE PUSH1 0x20 ADD DUP4 PUSH1 0x4 ADD SLOAD DUP2 MSTORE PUSH1 0x20 ADD DUP4 PUSH1 0x5 ADD SLOAD DUP2 MSTORE PUSH1 0x20 ADD DUP4 PUSH1 0x6 ADD SLOAD DUP2 MSTORE PUSH1 0x20 ADD DUP4 PUSH1 0x7 ADD DUP1 SLOAD DUP1 PUSH1 0x20 MUL PUSH1 0x20 ADD PUSH1 0x40 MLOAD SWAP1 DUP2 ADD PUSH1 0x40 MSTORE DUP1 SWAP3 SWAP2 SWAP1 DUP2 DUP2 MSTORE PUSH1 0x20 ADD DUP3 DUP1 SLOAD DUP1 ISZERO PUSH2 0xDC9 JUMPI PUSH1 0x20 MUL DUP3 ADD SWAP2 SWAP1 PUSH1 0x0 MSTORE PUSH1 0x20 PUSH1 0x0 KECCAK256 SWAP1 JUMPDEST DUP2 SLOAD PUSH1 0x1 PUSH1 0x1 PUSH1 0xA0 SHL SUB AND DUP2 MSTORE PUSH1 0x1 SWAP1 SWAP2 ADD SWAP1 PUSH1 0x20 ADD DUP1 DUP4 GT PUSH2 0xDAB JUMPI JUMPDEST POP POP POP POP POP DUP2 MSTORE PUSH1 0x20 ADD DUP4 PUSH1 0x8 ADD DUP1 SLOAD DUP1 PUSH1 0x20 MUL PUSH1 0x20 ADD PUSH1 0x40 MLOAD SWAP1 DUP2 ADD PUSH1 0x40 MSTORE DUP1 SWAP3 SWAP2 SWAP1 DUP2 DUP2 MSTORE PUSH1 0x20 ADD DUP3 DUP1 SLOAD DUP1 ISZERO PUSH2 0xE2B JUMPI PUSH1 0x20 MUL DUP3 ADD SWAP2 SWAP1 PUSH1 0x0 MSTORE PUSH1 0x20 PUSH1 0x0 KECCAK256 SWAP1 JUMPDEST DUP2 SLOAD PUSH1 0x1 PUSH1 0x1 PUSH1 0xA0 SHL SUB AND DUP2 MSTORE PUSH1 0x1 SWAP1 SWAP2 ADD SWAP1 PUSH1 0x20 ADD DUP1 DUP4 GT PUSH2 0xE0D JUMPI JUMPDEST POP POP POP POP POP DUP2 MSTORE PUSH1 0x20 ADD DUP4 PUSH1 0xA ADD DUP1 SLOAD DUP1 PUSH1 0x20 MUL PUSH1 0x20 ADD PUSH1 0x40 MLOAD SWAP1 DUP2 ADD PUSH1 0x40 MSTORE DUP1 SWAP3 SWAP2 SWAP1 DUP2 DUP2 MSTORE PUSH1 0x20 ADD DUP3 DUP1 SLOAD DUP1 ISZERO PUSH2 0xE83 JUMPI PUSH1 0x20 MUL DUP3 ADD SWAP2 SWAP1 PUSH1 0x0 MSTORE PUSH1 0x20 PUSH1 0x0 KECCAK256 SWAP1 JUMPDEST DUP2 SLOAD DUP2 MSTORE PUSH1 0x20 ADD SWAP1 PUSH1 0x1 ADD SWAP1 DUP1 DUP4 GT PUSH2 0xE6F JUMPI JUMPDEST POP POP POP POP POP DUP2 MSTORE PUSH1 0x20 ADD DUP4 PUSH1 0xB ADD DUP1 SLOAD DUP1 PUSH1 0x20 MUL PUSH1 0x20 ADD PUSH1 0x40 MLOAD SWAP1 DUP2 ADD PUSH1 0x40 MSTORE DUP1 SWAP3 SWAP2 SWAP1 DUP2 DUP2 MSTORE PUSH1 0x20 ADD DUP3 DUP1 SLOAD DUP1 ISZERO PUSH2 0xEDB JUMPI PUSH1 0x20 MUL DUP3 ADD SWAP2 SWAP1 PUSH1 0x0 MSTORE PUSH1 0x20 PUSH1 0x0 KECCAK256 SWAP1 JUMPDEST DUP2 SLOAD DUP2 MSTORE PUSH1 0x20 ADD SWAP1 PUSH1 0x1 ADD SWAP1 DUP1 DUP4 GT PUSH2 0xEC7 JUMPI JUMPDEST POP POP POP POP POP DUP2 MSTORE PUSH1 0x20 ADD DUP3 DUP2 MSTORE POP DUP5 DUP5 DUP2 MLOAD DUP2 LT PUSH2 0xEFB JUMPI PUSH2 0xEFB PUSH2 0x20A6 JUMP JUMPDEST PUSH1 0x20 SWAP1 DUP2 MUL SWAP2 SWAP1 SWAP2 ADD ADD MSTORE POP POP PUSH1 0x1 ADD PUSH2 0xBF1 JUMP JUMPDEST POP SWAP2 SWAP1 POP JUMP JUMPDEST PUSH1 0x0 DUP2 DUP2 MSTORE PUSH1 0x1 PUSH1 0x20 MSTORE PUSH1 0x40 SWAP1 KECCAK256 PUSH1 0x2 ADD SLOAD DUP2 SWAP1 PUSH1 0x1 PUSH1 0x1 PUSH1 0xA0 SHL SUB AND CALLER EQ PUSH2 0xF73 JUMPI PUSH1 0x40 MLOAD PUSH3 0x461BCD PUSH1 0xE5 SHL DUP2 MSTORE PUSH1 0x20 PUSH1 0x4 DUP3 ADD MSTORE PUSH1 0xF PUSH1 0x24 DUP3 ADD MSTORE PUSH15 0x3737BA2A3432A3B0B6B2A7BBB732B9 PUSH1 0x89 SHL PUSH1 0x44 DUP3 ADD MSTORE PUSH1 0x64 ADD PUSH2 0x34E JUMP JUMPDEST PUSH1 0x0 DUP3 DUP2 MSTORE PUSH1 0x1 PUSH1 0x20 MSTORE PUSH1 0x40 SWAP1 KECCAK256 PUSH1 0x7 DUP2 ADD SLOAD PUSH1 0x2 GT ISZERO PUSH2 0xFC9 JUMPI PUSH1 0x40 MLOAD PUSH3 0x461BCD PUSH1 0xE5 SHL DUP2 MSTORE PUSH1 0x20 PUSH1 0x4 DUP3 ADD MSTORE PUSH1 0x10 PUSH1 0x24 DUP3 ADD MSTORE PUSH16 0x6E6F74456E6F756768506C6179657273 PUSH1 0x80 SHL PUSH1 0x44 DUP3 ADD MSTORE PUSH1 0x64 ADD PUSH2 0x34E JUMP JUMPDEST PUSH1 0x0 PUSH1 0x3 DUP3 ADD SLOAD PUSH1 0x1 PUSH1 0xA0 SHL SWAP1 DIV PUSH1 0xFF AND PUSH1 0x4 DUP2 GT ISZERO PUSH2 0xFEB JUMPI PUSH2 0xFEB PUSH2 0x1B34 JUMP JUMPDEST EQ PUSH2 0x102E JUMPI PUSH1 0x40 MLOAD PUSH3 0x461BCD PUSH1 0xE5 SHL DUP2 MSTORE PUSH1 0x20 PUSH1 0x4 DUP3 ADD MSTORE PUSH1 0x13 PUSH1 0x24 DUP3 ADD MSTORE PUSH19 0x19D85B59539BDD149958591E551BD4DD185C9D PUSH1 0x6A SHL PUSH1 0x44 DUP3 ADD MSTORE PUSH1 0x64 ADD PUSH2 0x34E JUMP JUMPDEST PUSH2 0x1036 PUSH2 0x1878 JUMP JUMPDEST DUP1 MLOAD PUSH2 0x104C SWAP2 PUSH1 0xA DUP5 ADD SWAP2 PUSH1 0x20 SWAP1 SWAP2 ADD SWAP1 PUSH2 0x1A75 JUMP JUMPDEST POP PUSH2 0x1059 DUP2 PUSH1 0xA ADD PUSH2 0x1925 JUMP JUMPDEST PUSH1 0x0 JUMPDEST PUSH1 0x7 DUP3 ADD SLOAD DUP2 LT ISZERO PUSH2 0x1140 JUMPI PUSH1 0x0 JUMPDEST PUSH1 0x6 DUP2 GT PUSH2 0x1137 JUMPI PUSH1 0xA DUP4 ADD DUP1 SLOAD PUSH1 0x0 SWAP2 SWAP1 PUSH2 0x1089 SWAP1 PUSH1 0x1 SWAP1 PUSH2 0x2110 JUMP JUMPDEST DUP2 SLOAD DUP2 LT PUSH2 0x1099 JUMPI PUSH2 0x1099 PUSH2 0x20A6 JUMP JUMPDEST SWAP1 PUSH1 0x0 MSTORE PUSH1 0x20 PUSH1 0x0 KECCAK256 ADD SLOAD SWAP1 POP DUP4 PUSH1 0x9 ADD PUSH1 0x0 DUP6 PUSH1 0x7 ADD DUP6 DUP2 SLOAD DUP2 LT PUSH2 0x10C1 JUMPI PUSH2 0x10C1 PUSH2 0x20A6 JUMP JUMPDEST PUSH1 0x0 SWAP2 DUP3 MSTORE PUSH1 0x20 DUP1 DUP4 KECCAK256 SWAP1 SWAP2 ADD SLOAD PUSH1 0x1 PUSH1 0x1 PUSH1 0xA0 SHL SUB AND DUP4 MSTORE DUP3 DUP2 ADD SWAP4 SWAP1 SWAP4 MSTORE PUSH1 0x40 SWAP1 SWAP2 ADD DUP2 KECCAK256 DUP1 SLOAD PUSH1 0x1 DUP2 ADD DUP3 SSTORE SWAP1 DUP3 MSTORE SWAP2 SWAP1 KECCAK256 ADD DUP2 SWAP1 SSTORE PUSH1 0xA DUP5 ADD DUP1 SLOAD DUP1 PUSH2 0x110D JUMPI PUSH2 0x110D PUSH2 0x2123 JUMP JUMPDEST PUSH1 0x1 SWAP1 SUB DUP2 DUP2 SWAP1 PUSH1 0x0 MSTORE PUSH1 0x20 PUSH1 0x0 KECCAK256 ADD PUSH1 0x0 SWAP1 SSTORE SWAP1 SSTORE POP DUP1 DUP1 PUSH2 0x112F SWAP1 PUSH2 0x208D JUMP JUMPDEST SWAP2 POP POP PUSH2 0x106B JUMP JUMPDEST POP PUSH1 0x1 ADD PUSH2 0x105C JUMP JUMPDEST POP PUSH1 0x3 DUP2 ADD DUP1 SLOAD PUSH1 0xFF PUSH1 0xA0 SHL NOT AND PUSH1 0x1 PUSH1 0xA0 SHL OR SWAP1 SSTORE PUSH1 0x0 PUSH1 0xC DUP3 ADD SSTORE PUSH1 0x40 MLOAD DUP4 DUP2 MSTORE PUSH32 0x50AD08F58A27F2851D7E3A1B3A6A46B290F2CE677E99642D30FF639721E77790 SWAP1 PUSH1 0x20 ADD PUSH2 0x612 JUMP JUMPDEST PUSH1 0x0 DUP2 DUP2 MSTORE PUSH1 0x1 PUSH1 0x20 MSTORE PUSH1 0x40 DUP2 KECCAK256 SWAP1 PUSH1 0x3 DUP3 ADD SLOAD PUSH1 0x1 PUSH1 0xA0 SHL SWAP1 DIV PUSH1 0xFF AND PUSH1 0x4 DUP2 GT ISZERO PUSH2 0x11BC JUMPI PUSH2 0x11BC PUSH2 0x1B34 JUMP JUMPDEST EQ PUSH2 0x1209 JUMPI PUSH1 0x40 MLOAD PUSH3 0x461BCD PUSH1 0xE5 SHL DUP2 MSTORE PUSH1 0x20 PUSH1 0x4 DUP3 ADD MSTORE PUSH1 0x17 PUSH1 0x24 DUP3 ADD MSTORE PUSH32 0x67616D654E6F74416363657074696E67506C6179657273000000000000000000 PUSH1 0x44 DUP3 ADD MSTORE PUSH1 0x64 ADD PUSH2 0x34E JUMP JUMPDEST DUP1 PUSH1 0x4 ADD SLOAD CALLVALUE EQ PUSH2 0x1250 JUMPI PUSH1 0x40 MLOAD PUSH3 0x461BCD PUSH1 0xE5 SHL DUP2 MSTORE PUSH1 0x20 PUSH1 0x4 DUP3 ADD MSTORE PUSH1 0x11 PUSH1 0x24 DUP3 ADD MSTORE PUSH17 0x696E636F7272656374456E747279466565 PUSH1 0x78 SHL PUSH1 0x44 DUP3 ADD MSTORE PUSH1 0x64 ADD PUSH2 0x34E JUMP JUMPDEST PUSH1 0x6 DUP2 ADD SLOAD PUSH1 0x7 DUP3 ADD SLOAD LT PUSH2 0x1294 JUMPI PUSH1 0x40 MLOAD PUSH3 0x461BCD PUSH1 0xE5 SHL DUP2 MSTORE PUSH1 0x20 PUSH1 0x4 DUP3 ADD MSTORE PUSH1 0xA PUSH1 0x24 DUP3 ADD MSTORE PUSH10 0x19D85B59525CD19D5B1B PUSH1 0xB2 SHL PUSH1 0x44 DUP3 ADD MSTORE PUSH1 0x64 ADD PUSH2 0x34E JUMP JUMPDEST PUSH1 0x0 JUMPDEST PUSH1 0x7 DUP3 ADD SLOAD DUP2 LT ISZERO PUSH2 0x1322 JUMPI CALLER PUSH1 0x1 PUSH1 0x1 PUSH1 0xA0 SHL SUB AND DUP3 PUSH1 0x7 ADD DUP3 DUP2 SLOAD DUP2 LT PUSH2 0x12C2 JUMPI PUSH2 0x12C2 PUSH2 0x20A6 JUMP JUMPDEST PUSH1 0x0 SWAP2 DUP3 MSTORE PUSH1 0x20 SWAP1 SWAP2 KECCAK256 ADD SLOAD PUSH1 0x1 PUSH1 0x1 PUSH1 0xA0 SHL SUB AND SUB PUSH2 0x131A JUMPI PUSH1 0x40 MLOAD PUSH3 0x461BCD PUSH1 0xE5 SHL DUP2 MSTORE PUSH1 0x20 PUSH1 0x4 DUP3 ADD MSTORE PUSH1 0x13 PUSH1 0x24 DUP3 ADD MSTORE PUSH19 0x706C61796572416C7265616479496E47616D65 PUSH1 0x68 SHL PUSH1 0x44 DUP3 ADD MSTORE PUSH1 0x64 ADD PUSH2 0x34E JUMP JUMPDEST PUSH1 0x1 ADD PUSH2 0x1297 JUMP JUMPDEST POP PUSH1 0x7 DUP2 ADD DUP1 SLOAD PUSH1 0x1 DUP1 DUP3 ADD DUP4 SSTORE PUSH1 0x0 SWAP3 DUP4 MSTORE PUSH1 0x20 DUP1 DUP5 KECCAK256 SWAP1 SWAP3 ADD DUP1 SLOAD CALLER PUSH1 0x1 PUSH1 0x1 PUSH1 0xA0 SHL SUB NOT SWAP2 DUP3 AND DUP2 OR SWAP1 SWAP3 SSTORE PUSH1 0x8 DUP7 ADD DUP1 SLOAD SWAP4 DUP5 ADD DUP2 SSTORE DUP6 MSTORE SWAP3 DUP5 KECCAK256 SWAP1 SWAP2 ADD DUP1 SLOAD SWAP1 SWAP3 AND OR SWAP1 SSTORE PUSH1 0x5 DUP3 ADD DUP1 SLOAD CALLVALUE SWAP3 SWAP1 PUSH2 0x1380 SWAP1 DUP5 SWAP1 PUSH2 0x20BC JUMP JUMPDEST SWAP1 SWAP2 SSTORE POP POP PUSH1 0x40 DUP1 MLOAD DUP4 DUP2 MSTORE CALLER PUSH1 0x20 DUP3 ADD MSTORE PUSH32 0x87969BC7FAF902221A147B95CEBA76E011C5EFB0339A0A8EE7A2BB82D9CFBBD6 SWAP2 ADD JUMPDEST PUSH1 0x40 MLOAD DUP1 SWAP2 SUB SWAP1 LOG1 POP POP JUMP JUMPDEST PUSH1 0x0 DUP3 DUP2 MSTORE PUSH1 0x1 PUSH1 0x20 MSTORE PUSH1 0x40 DUP2 KECCAK256 DUP2 JUMPDEST PUSH1 0x8 DUP3 ADD SLOAD DUP2 LT ISZERO PUSH2 0x142A JUMPI DUP4 PUSH1 0x1 PUSH1 0x1 PUSH1 0xA0 SHL SUB AND DUP3 PUSH1 0x8 ADD DUP3 DUP2 SLOAD DUP2 LT PUSH2 0x13FD JUMPI PUSH2 0x13FD PUSH2 0x20A6 JUMP JUMPDEST PUSH1 0x0 SWAP2 DUP3 MSTORE PUSH1 0x20 SWAP1 SWAP2 KECCAK256 ADD SLOAD PUSH1 0x1 PUSH1 0x1 PUSH1 0xA0 SHL SUB AND SUB PUSH2 0x1422 JUMPI PUSH1 0x1 SWAP3 POP POP POP PUSH2 0x1431 JUMP JUMPDEST PUSH1 0x1 ADD PUSH2 0x13D2 JUMP JUMPDEST POP PUSH1 0x0 SWAP2 POP POP JUMPDEST SWAP3 SWAP2 POP POP JUMP JUMPDEST PUSH1 0x0 DUP1 JUMPDEST DUP4 SLOAD DUP2 LT ISZERO PUSH2 0x1479 JUMPI DUP3 DUP5 DUP3 DUP2 SLOAD DUP2 LT PUSH2 0x1457 JUMPI PUSH2 0x1457 PUSH2 0x20A6 JUMP JUMPDEST SWAP1 PUSH1 0x0 MSTORE PUSH1 0x20 PUSH1 0x0 KECCAK256 ADD SLOAD SUB PUSH2 0x1471 JUMPI PUSH1 0x1 SWAP2 POP POP PUSH2 0x1431 JUMP JUMPDEST PUSH1 0x1 ADD PUSH2 0x143B JUMP JUMPDEST POP PUSH1 0x0 SWAP4 SWAP3 POP POP POP JUMP JUMPDEST PUSH1 0x0 JUMPDEST DUP3 SLOAD DUP2 LT ISZERO PUSH2 0x1530 JUMPI DUP2 DUP4 DUP3 DUP2 SLOAD DUP2 LT PUSH2 0x14A2 JUMPI PUSH2 0x14A2 PUSH2 0x20A6 JUMP JUMPDEST SWAP1 PUSH1 0x0 MSTORE PUSH1 0x20 PUSH1 0x0 KECCAK256 ADD SLOAD SUB PUSH2 0x1528 JUMPI DUP3 SLOAD DUP4 SWAP1 PUSH2 0x14C2 SWAP1 PUSH1 0x1 SWAP1 PUSH2 0x2110 JUMP JUMPDEST DUP2 SLOAD DUP2 LT PUSH2 0x14D2 JUMPI PUSH2 0x14D2 PUSH2 0x20A6 JUMP JUMPDEST SWAP1 PUSH1 0x0 MSTORE PUSH1 0x20 PUSH1 0x0 KECCAK256 ADD SLOAD DUP4 DUP3 DUP2 SLOAD DUP2 LT PUSH2 0x14EF JUMPI PUSH2 0x14EF PUSH2 0x20A6 JUMP JUMPDEST SWAP1 PUSH1 0x0 MSTORE PUSH1 0x20 PUSH1 0x0 KECCAK256 ADD DUP2 SWAP1 SSTORE POP DUP3 DUP1 SLOAD DUP1 PUSH2 0x150D JUMPI PUSH2 0x150D PUSH2 0x2123 JUMP JUMPDEST PUSH1 0x1 SWAP1 SUB DUP2 DUP2 SWAP1 PUSH1 0x0 MSTORE PUSH1 0x20 PUSH1 0x0 KECCAK256 ADD PUSH1 0x0 SWAP1 SSTORE SWAP1 SSTORE POP POP POP JUMP JUMPDEST PUSH1 0x1 ADD PUSH2 0x1486 JUMP JUMPDEST POP POP POP JUMP JUMPDEST PUSH1 0x0 DUP3 DUP2 MSTORE PUSH1 0x1 PUSH1 0x20 DUP2 SWAP1 MSTORE PUSH1 0x40 SWAP1 SWAP2 KECCAK256 SWAP1 PUSH1 0x3 DUP3 ADD SLOAD PUSH1 0x1 PUSH1 0xA0 SHL SWAP1 DIV PUSH1 0xFF AND PUSH1 0x4 DUP2 GT ISZERO PUSH2 0x1567 JUMPI PUSH2 0x1567 PUSH2 0x1B34 JUMP JUMPDEST EQ PUSH2 0x15A6 JUMPI PUSH1 0x40 MLOAD PUSH3 0x461BCD PUSH1 0xE5 SHL DUP2 MSTORE PUSH1 0x20 PUSH1 0x4 DUP3 ADD MSTORE PUSH1 0xF PUSH1 0x24 DUP3 ADD MSTORE PUSH15 0x67616D6549734E6F74416374697665 PUSH1 0x88 SHL PUSH1 0x44 DUP3 ADD MSTORE PUSH1 0x64 ADD PUSH2 0x34E JUMP JUMPDEST PUSH1 0x3 DUP2 ADD DUP1 SLOAD PUSH1 0xFF PUSH1 0xA0 SHL NOT AND PUSH1 0x3 PUSH1 0xA0 SHL OR SWAP1 SSTORE PUSH1 0x5 DUP2 ADD SLOAD PUSH1 0x1 PUSH1 0x1 PUSH1 0xA0 SHL SUB DUP4 AND PUSH1 0x0 SWAP1 DUP2 MSTORE PUSH1 0x2 PUSH1 0x20 MSTORE PUSH1 0x40 DUP2 KECCAK256 DUP1 SLOAD SWAP1 SWAP2 SWAP1 PUSH2 0x15E8 SWAP1 DUP5 SWAP1 PUSH2 0x20BC JUMP JUMPDEST SWAP1 SWAP2 SSTORE POP POP PUSH1 0x3 DUP2 ADD DUP1 SLOAD PUSH1 0x1 PUSH1 0x1 PUSH1 0xA0 SHL SUB NOT AND PUSH1 0x1 PUSH1 0x1 PUSH1 0xA0 SHL SUB DUP5 AND SWAP1 DUP2 OR SWAP1 SWAP2 SSTORE PUSH1 0x40 DUP1 MLOAD DUP6 DUP2 MSTORE PUSH1 0x20 DUP2 ADD SWAP3 SWAP1 SWAP3 MSTORE PUSH32 0x7F40DF5127524300187445E867486DA572AAB86769C0212E0B392BD87C4CA97F SWAP2 ADD PUSH2 0x612 JUMP JUMPDEST PUSH1 0x0 DUP1 JUMPDEST PUSH1 0x8 DUP4 ADD SLOAD DUP2 LT ISZERO PUSH2 0x17AE JUMPI PUSH1 0x0 DUP4 PUSH1 0x8 ADD DUP3 DUP2 SLOAD DUP2 LT PUSH2 0x166B JUMPI PUSH2 0x166B PUSH2 0x20A6 JUMP JUMPDEST PUSH1 0x0 SWAP2 DUP3 MSTORE PUSH1 0x20 DUP1 DUP4 KECCAK256 SWAP1 SWAP2 ADD SLOAD PUSH1 0x1 PUSH1 0x1 PUSH1 0xA0 SHL SUB AND DUP1 DUP4 MSTORE PUSH1 0x9 DUP8 ADD SWAP1 SWAP2 MSTORE PUSH1 0x40 DUP3 KECCAK256 SWAP1 SWAP3 POP SWAP1 JUMPDEST DUP2 SLOAD DUP2 LT ISZERO PUSH2 0x17A3 JUMPI PUSH1 0x0 DUP3 DUP3 DUP2 SLOAD DUP2 LT PUSH2 0x16B2 JUMPI PUSH2 0x16B2 PUSH2 0x20A6 JUMP JUMPDEST PUSH1 0x0 SWAP2 DUP3 MSTORE PUSH1 0x20 DUP3 KECCAK256 ADD SLOAD SWAP2 POP PUSH2 0x16CA PUSH1 0xA DUP4 PUSH2 0x2139 JUMP JUMPDEST SWAP1 POP PUSH1 0x0 PUSH2 0x16D9 PUSH1 0xA DUP5 PUSH2 0x20FC JUMP JUMPDEST SWAP1 POP PUSH1 0x0 DUP10 PUSH1 0xB ADD PUSH1 0x0 DUP2 SLOAD DUP2 LT PUSH2 0x16F3 JUMPI PUSH2 0x16F3 PUSH2 0x20A6 JUMP JUMPDEST PUSH1 0x0 SWAP2 DUP3 MSTORE PUSH1 0x20 DUP3 KECCAK256 ADD SLOAD PUSH1 0xB DUP13 ADD DUP1 SLOAD SWAP2 SWAP4 POP SWAP1 PUSH2 0x1714 SWAP1 PUSH1 0x1 SWAP1 PUSH2 0x2110 JUMP JUMPDEST DUP2 SLOAD DUP2 LT PUSH2 0x1724 JUMPI PUSH2 0x1724 PUSH2 0x20A6 JUMP JUMPDEST SWAP1 PUSH1 0x0 MSTORE PUSH1 0x20 PUSH1 0x0 KECCAK256 ADD SLOAD SWAP1 POP PUSH1 0xA DUP3 PUSH2 0x173E SWAP2 SWAP1 PUSH2 0x2139 JUMP JUMPDEST DUP5 EQ DUP1 PUSH2 0x1754 JUMPI POP PUSH2 0x1751 PUSH1 0xA DUP4 PUSH2 0x2139 JUMP JUMPDEST DUP4 EQ JUMPDEST DUP1 PUSH2 0x1768 JUMPI POP PUSH2 0x1765 PUSH1 0xA DUP3 PUSH2 0x20FC JUMP JUMPDEST DUP5 EQ JUMPDEST DUP1 PUSH2 0x177C JUMPI POP PUSH2 0x1779 PUSH1 0xA DUP3 PUSH2 0x20FC JUMP JUMPDEST DUP4 EQ JUMPDEST ISZERO PUSH2 0x1792 JUMPI POP PUSH1 0x1 SWAP11 SWAP10 POP POP POP POP POP POP POP POP POP POP JUMP JUMPDEST POP POP PUSH1 0x1 SWAP1 SWAP4 ADD SWAP3 POP PUSH2 0x1695 SWAP2 POP POP JUMP JUMPDEST POP POP POP PUSH1 0x1 ADD PUSH2 0x1648 JUMP JUMPDEST POP PUSH1 0x0 SWAP3 SWAP2 POP POP JUMP JUMPDEST PUSH1 0x0 DUP2 DUP2 MSTORE PUSH1 0x1 PUSH1 0x20 MSTORE PUSH1 0x40 DUP2 KECCAK256 PUSH1 0x3 DUP2 ADD DUP1 SLOAD PUSH1 0xFF PUSH1 0xA0 SHL NOT AND PUSH1 0x1 PUSH1 0xA2 SHL OR SWAP1 SSTORE SWAP1 JUMPDEST PUSH1 0x7 DUP3 ADD SLOAD DUP2 LT ISZERO PUSH2 0x1847 JUMPI DUP2 PUSH1 0x4 ADD SLOAD PUSH1 0x2 PUSH1 0x0 DUP5 PUSH1 0x7 ADD DUP5 DUP2 SLOAD DUP2 LT PUSH2 0x1806 JUMPI PUSH2 0x1806 PUSH2 0x20A6 JUMP JUMPDEST PUSH1 0x0 SWAP2 DUP3 MSTORE PUSH1 0x20 DUP1 DUP4 KECCAK256 SWAP1 SWAP2 ADD SLOAD PUSH1 0x1 PUSH1 0x1 PUSH1 0xA0 SHL SUB AND DUP4 MSTORE DUP3 ADD SWAP3 SWAP1 SWAP3 MSTORE PUSH1 0x40 ADD DUP2 KECCAK256 DUP1 SLOAD SWAP1 SWAP2 SWAP1 PUSH2 0x183A SWAP1 DUP5 SWAP1 PUSH2 0x20BC JUMP JUMPDEST SWAP1 SWAP2 SSTORE POP POP PUSH1 0x1 ADD PUSH2 0x17DC JUMP JUMPDEST POP PUSH1 0x40 MLOAD DUP3 DUP2 MSTORE PUSH32 0xBDE3492A0339DD7CC8E00379877E059A377BAD88CD45BE37D94FC781910B95C9 SWAP1 PUSH1 0x20 ADD PUSH2 0x13B6 JUMP JUMPDEST PUSH1 0x40 DUP1 MLOAD PUSH1 0x1C DUP1 DUP3 MSTORE PUSH2 0x3A0 DUP3 ADD SWAP1 SWAP3 MSTORE PUSH1 0x60 SWAP2 PUSH1 0x0 SWAP2 SWAP1 PUSH1 0x20 DUP3 ADD PUSH2 0x380 DUP1 CALLDATASIZE DUP4 CALLDATACOPY ADD SWAP1 POP POP SWAP1 POP PUSH1 0x0 DUP1 JUMPDEST PUSH1 0x6 DUP2 GT PUSH2 0x191D JUMPI DUP1 JUMPDEST PUSH1 0x6 DUP2 GT PUSH2 0x190A JUMPI DUP1 PUSH2 0x18C3 DUP4 PUSH1 0xA PUSH2 0x20CF JUMP JUMPDEST PUSH2 0x18CD SWAP2 SWAP1 PUSH2 0x20BC JUMP JUMPDEST DUP5 DUP5 DUP2 MLOAD DUP2 LT PUSH2 0x18DF JUMPI PUSH2 0x18DF PUSH2 0x20A6 JUMP JUMPDEST PUSH1 0x20 SWAP1 DUP2 MUL SWAP2 SWAP1 SWAP2 ADD ADD MSTORE DUP3 PUSH2 0x18F4 DUP2 PUSH2 0x208D JUMP JUMPDEST SWAP4 POP POP DUP1 DUP1 PUSH2 0x1902 SWAP1 PUSH2 0x208D JUMP JUMPDEST SWAP2 POP POP PUSH2 0x18AF JUMP JUMPDEST POP DUP1 PUSH2 0x1915 DUP2 PUSH2 0x208D JUMP JUMPDEST SWAP2 POP POP PUSH2 0x18A5 JUMP JUMPDEST POP SWAP1 SWAP3 SWAP2 POP POP JUMP JUMPDEST PUSH1 0x0 JUMPDEST DUP2 SLOAD DUP2 LT ISZERO PUSH2 0x392 JUMPI DUP2 SLOAD PUSH1 0x0 SWAP1 PUSH2 0x1941 SWAP1 DUP4 SWAP1 PUSH2 0x2110 JUMP JUMPDEST PUSH1 0x40 DUP1 MLOAD TIMESTAMP PUSH1 0x20 DUP3 ADD MSTORE PREVRANDAO SWAP2 DUP2 ADD SWAP2 SWAP1 SWAP2 MSTORE PUSH1 0x60 ADD PUSH1 0x40 MLOAD PUSH1 0x20 DUP2 DUP4 SUB SUB DUP2 MSTORE SWAP1 PUSH1 0x40 MSTORE DUP1 MLOAD SWAP1 PUSH1 0x20 ADD KECCAK256 PUSH1 0x0 SHR PUSH2 0x1979 SWAP2 SWAP1 PUSH2 0x20FC JUMP JUMPDEST PUSH2 0x1983 SWAP1 DUP4 PUSH2 0x20BC JUMP JUMPDEST SWAP1 POP PUSH1 0x0 DUP4 DUP3 DUP2 SLOAD DUP2 LT PUSH2 0x1999 JUMPI PUSH2 0x1999 PUSH2 0x20A6 JUMP JUMPDEST SWAP1 PUSH1 0x0 MSTORE PUSH1 0x20 PUSH1 0x0 KECCAK256 ADD SLOAD SWAP1 POP DUP4 DUP4 DUP2 SLOAD DUP2 LT PUSH2 0x19B8 JUMPI PUSH2 0x19B8 PUSH2 0x20A6 JUMP JUMPDEST SWAP1 PUSH1 0x0 MSTORE PUSH1 0x20 PUSH1 0x0 KECCAK256 ADD SLOAD DUP5 DUP4 DUP2 SLOAD DUP2 LT PUSH2 0x19D5 JUMPI PUSH2 0x19D5 PUSH2 0x20A6 JUMP JUMPDEST SWAP1 PUSH1 0x0 MSTORE PUSH1 0x20 PUSH1 0x0 KECCAK256 ADD DUP2 SWAP1 SSTORE POP DUP1 DUP5 DUP5 DUP2 SLOAD DUP2 LT PUSH2 0x19F6 JUMPI PUSH2 0x19F6 PUSH2 0x20A6 JUMP JUMPDEST PUSH1 0x0 SWAP2 DUP3 MSTORE PUSH1 0x20 SWAP1 SWAP2 KECCAK256 ADD SSTORE POP POP PUSH1 0x1 ADD PUSH2 0x1928 JUMP JUMPDEST PUSH1 0x40 DUP1 MLOAD PUSH2 0x1A0 DUP2 ADD DUP3 MSTORE PUSH1 0x0 DUP1 DUP3 MSTORE PUSH1 0x60 PUSH1 0x20 DUP4 ADD DUP2 SWAP1 MSTORE SWAP3 DUP3 ADD DUP2 SWAP1 MSTORE SWAP2 DUP2 ADD DUP3 SWAP1 MSTORE SWAP1 PUSH1 0x80 DUP3 ADD SWAP1 DUP2 MSTORE PUSH1 0x20 ADD PUSH1 0x0 DUP2 MSTORE PUSH1 0x20 ADD PUSH1 0x0 DUP2 MSTORE PUSH1 0x20 ADD PUSH1 0x0 DUP2 MSTORE PUSH1 0x20 ADD PUSH1 0x60 DUP2 MSTORE PUSH1 0x20 ADD PUSH1 0x60 DUP2 MSTORE PUSH1 0x20 ADD PUSH1 0x60 DUP2 MSTORE PUSH1 0x20 ADD PUSH1 0x60 DUP2 MSTORE PUSH1 0x20 ADD PUSH1 0x60 DUP2 MSTORE POP SWAP1 JUMP JUMPDEST DUP3 DUP1 SLOAD DUP3 DUP3 SSTORE SWAP1 PUSH1 0x0 MSTORE PUSH1 0x20 PUSH1 0x0 KECCAK256 SWAP1 DUP2 ADD SWAP3 DUP3 ISZERO PUSH2 0x1AB0 JUMPI SWAP2 PUSH1 0x20 MUL DUP3 ADD JUMPDEST DUP3 DUP2 GT ISZERO PUSH2 0x1AB0 JUMPI DUP3 MLOAD DUP3 SSTORE SWAP2 PUSH1 0x20 ADD SWAP2 SWAP1 PUSH1 0x1 ADD SWAP1 PUSH2 0x1A95 JUMP JUMPDEST POP PUSH2 0x1ABC SWAP3 SWAP2 POP PUSH2 0x1AC0 JUMP JUMPDEST POP SWAP1 JUMP JUMPDEST JUMPDEST DUP1 DUP3 GT ISZERO PUSH2 0x1ABC JUMPI PUSH1 0x0 DUP2 SSTORE PUSH1 0x1 ADD PUSH2 0x1AC1 JUMP JUMPDEST PUSH1 0x0 PUSH1 0x20 DUP3 DUP5 SUB SLT ISZERO PUSH2 0x1AE7 JUMPI PUSH1 0x0 DUP1 REVERT JUMPDEST POP CALLDATALOAD SWAP2 SWAP1 POP JUMP JUMPDEST PUSH1 0x0 DUP2 MLOAD DUP1 DUP5 MSTORE PUSH1 0x0 JUMPDEST DUP2 DUP2 LT ISZERO PUSH2 0x1B14 JUMPI PUSH1 0x20 DUP2 DUP6 ADD DUP2 ADD MLOAD DUP7 DUP4 ADD DUP3 ADD MSTORE ADD PUSH2 0x1AF8 JUMP JUMPDEST POP PUSH1 0x0 PUSH1 0x20 DUP3 DUP7 ADD ADD MSTORE PUSH1 0x20 PUSH1 0x1F NOT PUSH1 0x1F DUP4 ADD AND DUP6 ADD ADD SWAP2 POP POP SWAP3 SWAP2 POP POP JUMP JUMPDEST PUSH4 0x4E487B71 PUSH1 0xE0 SHL PUSH1 0x0 MSTORE PUSH1 0x21 PUSH1 0x4 MSTORE PUSH1 0x24 PUSH1 0x0 REVERT JUMPDEST PUSH1 0x5 DUP2 LT PUSH2 0x1B68 JUMPI PUSH4 0x4E487B71 PUSH1 0xE0 SHL PUSH1 0x0 MSTORE PUSH1 0x21 PUSH1 0x4 MSTORE PUSH1 0x24 PUSH1 0x0 REVERT JUMPDEST SWAP1 MSTORE JUMP JUMPDEST DUP10 DUP2 MSTORE PUSH2 0x120 PUSH1 0x20 DUP3 ADD MSTORE PUSH1 0x0 PUSH2 0x1B87 PUSH2 0x120 DUP4 ADD DUP12 PUSH2 0x1AEE JUMP JUMPDEST PUSH1 0x1 PUSH1 0x1 PUSH1 0xA0 SHL SUB DUP11 DUP2 AND PUSH1 0x40 DUP6 ADD MSTORE DUP10 AND PUSH1 0x60 DUP5 ADD MSTORE SWAP1 POP PUSH2 0x1BAD PUSH1 0x80 DUP4 ADD DUP9 PUSH2 0x1B4A JUMP JUMPDEST DUP6 PUSH1 0xA0 DUP4 ADD MSTORE DUP5 PUSH1 0xC0 DUP4 ADD MSTORE DUP4 PUSH1 0xE0 DUP4 ADD MSTORE DUP3 PUSH2 0x100 DUP4 ADD MSTORE SWAP11 SWAP10 POP POP POP POP POP POP POP POP POP POP JUMP JUMPDEST PUSH1 0x0 PUSH1 0x20 DUP3 DUP5 SUB SLT ISZERO PUSH2 0x1BE6 JUMPI PUSH1 0x0 DUP1 REVERT JUMPDEST DUP2 CALLDATALOAD PUSH1 0x1 PUSH1 0x1 PUSH1 0xA0 SHL SUB DUP2 AND DUP2 EQ PUSH2 0x1BFD JUMPI PUSH1 0x0 DUP1 REVERT JUMPDEST SWAP4 SWAP3 POP POP POP JUMP JUMPDEST PUSH4 0x4E487B71 PUSH1 0xE0 SHL PUSH1 0x0 MSTORE PUSH1 0x41 PUSH1 0x4 MSTORE PUSH1 0x24 PUSH1 0x0 REVERT JUMPDEST DUP1 CALLDATALOAD DUP1 ISZERO ISZERO DUP2 EQ PUSH2 0x1C2A JUMPI PUSH1 0x0 DUP1 REVERT JUMPDEST SWAP2 SWAP1 POP JUMP JUMPDEST PUSH1 0x0 DUP1 PUSH1 0x0 PUSH1 0x60 DUP5 DUP7 SUB SLT ISZERO PUSH2 0x1C44 JUMPI PUSH1 0x0 DUP1 REVERT JUMPDEST DUP4 CALLDATALOAD PUSH8 0xFFFFFFFFFFFFFFFF DUP2 GT ISZERO PUSH2 0x1C5B JUMPI PUSH1 0x0 DUP1 REVERT JUMPDEST DUP5 ADD PUSH1 0x1F DUP2 ADD DUP7 SGT PUSH2 0x1C6C JUMPI PUSH1 0x0 DUP1 REVERT JUMPDEST DUP1 CALLDATALOAD PUSH8 0xFFFFFFFFFFFFFFFF DUP2 GT ISZERO PUSH2 0x1C86 JUMPI PUSH2 0x1C86 PUSH2 0x1C04 JUMP JUMPDEST PUSH1 0x40 MLOAD PUSH1 0x1F DUP3 ADD PUSH1 0x1F NOT SWAP1 DUP2 AND PUSH1 0x3F ADD AND DUP2 ADD PUSH8 0xFFFFFFFFFFFFFFFF DUP2 GT DUP3 DUP3 LT OR ISZERO PUSH2 0x1CB5 JUMPI PUSH2 0x1CB5 PUSH2 0x1C04 JUMP JUMPDEST PUSH1 0x40 MSTORE DUP2 DUP2 MSTORE DUP3 DUP3 ADD PUSH1 0x20 ADD DUP9 LT ISZERO PUSH2 0x1CCD JUMPI PUSH1 0x0 DUP1 REVERT JUMPDEST DUP2 PUSH1 0x20 DUP5 ADD PUSH1 0x20 DUP4 ADD CALLDATACOPY PUSH1 0x0 PUSH1 0x20 SWAP3 DUP3 ADD DUP4 ADD MSTORE SWAP5 POP DUP6 ADD CALLDATALOAD SWAP3 POP PUSH2 0x1CF6 SWAP1 POP PUSH1 0x40 DUP6 ADD PUSH2 0x1C1A JUMP JUMPDEST SWAP1 POP SWAP3 POP SWAP3 POP SWAP3 JUMP JUMPDEST PUSH1 0x0 DUP2 MLOAD DUP1 DUP5 MSTORE PUSH1 0x20 DUP5 ADD SWAP4 POP PUSH1 0x20 DUP4 ADD PUSH1 0x0 JUMPDEST DUP3 DUP2 LT ISZERO PUSH2 0x1D3A JUMPI DUP2 MLOAD PUSH1 0x1 PUSH1 0x1 PUSH1 0xA0 SHL SUB AND DUP7 MSTORE PUSH1 0x20 SWAP6 DUP7 ADD SWAP6 SWAP1 SWAP2 ADD SWAP1 PUSH1 0x1 ADD PUSH2 0x1D13 JUMP JUMPDEST POP SWAP4 SWAP5 SWAP4 POP POP POP POP JUMP JUMPDEST PUSH1 0x0 DUP2 MLOAD DUP1 DUP5 MSTORE PUSH1 0x20 DUP5 ADD SWAP4 POP PUSH1 0x20 DUP4 ADD PUSH1 0x0 JUMPDEST DUP3 DUP2 LT ISZERO PUSH2 0x1D3A JUMPI DUP2 MLOAD DUP7 MSTORE PUSH1 0x20 SWAP6 DUP7 ADD SWAP6 SWAP1 SWAP2 ADD SWAP1 PUSH1 0x1 ADD PUSH2 0x1D58 JUMP JUMPDEST DUP1 MLOAD DUP3 MSTORE PUSH1 0x0 PUSH1 0x20 DUP3 ADD MLOAD PUSH2 0x1A0 PUSH1 0x20 DUP6 ADD MSTORE PUSH2 0x1D97 PUSH2 0x1A0 DUP6 ADD DUP3 PUSH2 0x1AEE JUMP JUMPDEST SWAP1 POP PUSH1 0x40 DUP4 ADD MLOAD PUSH2 0x1DB3 PUSH1 0x40 DUP7 ADD DUP3 PUSH1 0x1 PUSH1 0x1 PUSH1 0xA0 SHL SUB AND SWAP1 MSTORE JUMP JUMPDEST POP PUSH1 0x60 DUP4 ADD MLOAD PUSH2 0x1DCE PUSH1 0x60 DUP7 ADD DUP3 PUSH1 0x1 PUSH1 0x1 PUSH1 0xA0 SHL SUB AND SWAP1 MSTORE JUMP JUMPDEST POP PUSH1 0x80 DUP4 ADD MLOAD PUSH2 0x1DE1 PUSH1 0x80 DUP7 ADD DUP3 PUSH2 0x1B4A JUMP JUMPDEST POP PUSH1 0xA0 DUP4 ADD MLOAD PUSH1 0xA0 DUP6 ADD MSTORE PUSH1 0xC0 DUP4 ADD MLOAD PUSH1 0xC0 DUP6 ADD MSTORE PUSH1 0xE0 DUP4 ADD MLOAD PUSH1 0xE0 DUP6 ADD MSTORE PUSH2 0x100 DUP4 ADD MLOAD DUP5 DUP3 SUB PUSH2 0x100 DUP7 ADD MSTORE PUSH2 0x1E19 DUP3 DUP3 PUSH2 0x1CFF JUMP JUMPDEST SWAP2 POP POP PUSH2 0x120 DUP4 ADD MLOAD DUP5 DUP3 SUB PUSH2 0x120 DUP7 ADD MSTORE PUSH2 0x1E35 DUP3 DUP3 PUSH2 0x1CFF JUMP JUMPDEST SWAP2 POP POP PUSH2 0x140 DUP4 ADD MLOAD DUP5 DUP3 SUB PUSH2 0x140 DUP7 ADD MSTORE PUSH2 0x1E51 DUP3 DUP3 PUSH2 0x1D44 JUMP JUMPDEST SWAP2 POP POP PUSH2 0x160 DUP4 ADD MLOAD DUP5 DUP3 SUB PUSH2 0x160 DUP7 ADD MSTORE PUSH2 0x1E6D DUP3 DUP3 PUSH2 0x1D44 JUMP JUMPDEST SWAP2 POP POP PUSH2 0x180 DUP4 ADD MLOAD DUP5 DUP3 SUB PUSH2 0x180 DUP7 ADD MSTORE PUSH2 0x1E89 DUP3 DUP3 PUSH2 0x1D44 JUMP JUMPDEST SWAP6 SWAP5 POP POP POP POP POP JUMP JUMPDEST PUSH1 0x20 DUP2 MSTORE PUSH1 0x0 PUSH2 0x1BFD PUSH1 0x20 DUP4 ADD DUP5 PUSH2 0x1D76 JUMP JUMPDEST PUSH1 0x0 DUP1 PUSH1 0x0 PUSH1 0x60 DUP5 DUP7 SUB SLT ISZERO PUSH2 0x1EBA JUMPI PUSH1 0x0 DUP1 REVERT JUMPDEST POP POP DUP2 CALLDATALOAD SWAP4 PUSH1 0x20 DUP4 ADD CALLDATALOAD SWAP4 POP PUSH1 0x40 SWAP1 SWAP3 ADD CALLDATALOAD SWAP2 SWAP1 POP JUMP JUMPDEST PUSH1 0x0 PUSH1 0x20 DUP3 ADD PUSH1 0x20 DUP4 MSTORE DUP1 DUP5 MLOAD DUP1 DUP4 MSTORE PUSH1 0x40 DUP6 ADD SWAP2 POP PUSH1 0x40 DUP2 PUSH1 0x5 SHL DUP7 ADD ADD SWAP3 POP PUSH1 0x20 DUP7 ADD PUSH1 0x0 JUMPDEST DUP3 DUP2 LT ISZERO PUSH2 0x1F2A JUMPI PUSH1 0x3F NOT DUP8 DUP7 SUB ADD DUP5 MSTORE PUSH2 0x1F15 DUP6 DUP4 MLOAD PUSH2 0x1D76 JUMP JUMPDEST SWAP5 POP PUSH1 0x20 SWAP4 DUP5 ADD SWAP4 SWAP2 SWAP1 SWAP2 ADD SWAP1 PUSH1 0x1 ADD PUSH2 0x1EF9 JUMP JUMPDEST POP SWAP3 SWAP7 SWAP6 POP POP POP POP POP POP JUMP JUMPDEST PUSH1 0x1 DUP2 DUP2 SHR SWAP1 DUP3 AND DUP1 PUSH2 0x1F4A JUMPI PUSH1 0x7F DUP3 AND SWAP2 POP JUMPDEST PUSH1 0x20 DUP3 LT DUP2 SUB PUSH2 0xF10 JUMPI PUSH4 0x4E487B71 PUSH1 0xE0 SHL PUSH1 0x0 MSTORE PUSH1 0x22 PUSH1 0x4 MSTORE PUSH1 0x24 PUSH1 0x0 REVERT JUMPDEST PUSH1 0x1F DUP3 GT ISZERO PUSH2 0x1530 JUMPI DUP1 PUSH1 0x0 MSTORE PUSH1 0x20 PUSH1 0x0 KECCAK256 PUSH1 0x1F DUP5 ADD PUSH1 0x5 SHR DUP2 ADD PUSH1 0x20 DUP6 LT ISZERO PUSH2 0x1F91 JUMPI POP DUP1 JUMPDEST PUSH1 0x1F DUP5 ADD PUSH1 0x5 SHR DUP3 ADD SWAP2 POP JUMPDEST DUP2 DUP2 LT ISZERO PUSH2 0x1FB1 JUMPI PUSH1 0x0 DUP2 SSTORE PUSH1 0x1 ADD PUSH2 0x1F9D JUMP JUMPDEST POP POP POP POP POP JUMP JUMPDEST DUP2 MLOAD PUSH8 0xFFFFFFFFFFFFFFFF DUP2 GT ISZERO PUSH2 0x1FD2 JUMPI PUSH2 0x1FD2 PUSH2 0x1C04 JUMP JUMPDEST PUSH2 0x1FE6 DUP2 PUSH2 0x1FE0 DUP5 SLOAD PUSH2 0x1F36 JUMP JUMPDEST DUP5 PUSH2 0x1F6A JUMP JUMPDEST PUSH1 0x20 PUSH1 0x1F DUP3 GT PUSH1 0x1 DUP2 EQ PUSH2 0x201A JUMPI PUSH1 0x0 DUP4 ISZERO PUSH2 0x2002 JUMPI POP DUP5 DUP3 ADD MLOAD JUMPDEST PUSH1 0x0 NOT PUSH1 0x3 DUP6 SWAP1 SHL SHR NOT AND PUSH1 0x1 DUP5 SWAP1 SHL OR DUP5 SSTORE PUSH2 0x1FB1 JUMP JUMPDEST PUSH1 0x0 DUP5 DUP2 MSTORE PUSH1 0x20 DUP2 KECCAK256 PUSH1 0x1F NOT DUP6 AND SWAP2 JUMPDEST DUP3 DUP2 LT ISZERO PUSH2 0x204A JUMPI DUP8 DUP6 ADD MLOAD DUP3 SSTORE PUSH1 0x20 SWAP5 DUP6 ADD SWAP5 PUSH1 0x1 SWAP1 SWAP3 ADD SWAP2 ADD PUSH2 0x202A JUMP JUMPDEST POP DUP5 DUP3 LT ISZERO PUSH2 0x2068 JUMPI DUP7 DUP5 ADD MLOAD PUSH1 0x0 NOT PUSH1 0x3 DUP8 SWAP1 SHL PUSH1 0xF8 AND SHR NOT AND DUP2 SSTORE JUMPDEST POP POP POP POP PUSH1 0x1 SWAP1 DUP2 SHL ADD SWAP1 SSTORE POP JUMP JUMPDEST PUSH4 0x4E487B71 PUSH1 0xE0 SHL PUSH1 0x0 MSTORE PUSH1 0x11 PUSH1 0x4 MSTORE PUSH1 0x24 PUSH1 0x0 REVERT JUMPDEST PUSH1 0x0 PUSH1 0x1 DUP3 ADD PUSH2 0x209F JUMPI PUSH2 0x209F PUSH2 0x2077 JUMP JUMPDEST POP PUSH1 0x1 ADD SWAP1 JUMP JUMPDEST PUSH4 0x4E487B71 PUSH1 0xE0 SHL PUSH1 0x0 MSTORE PUSH1 0x32 PUSH1 0x4 MSTORE PUSH1 0x24 PUSH1 0x0 REVERT JUMPDEST DUP1 DUP3 ADD DUP1 DUP3 GT ISZERO PUSH2 0x1431 JUMPI PUSH2 0x1431 PUSH2 0x2077 JUMP JUMPDEST DUP1 DUP3 MUL DUP2 ISZERO DUP3 DUP3 DIV DUP5 EQ OR PUSH2 0x1431 JUMPI PUSH2 0x1431 PUSH2 0x2077 JUMP JUMPDEST PUSH4 0x4E487B71 PUSH1 0xE0 SHL PUSH1 0x0 MSTORE PUSH1 0x12 PUSH1 0x4 MSTORE PUSH1 0x24 PUSH1 0x0 REVERT JUMPDEST PUSH1 0x0 DUP3 PUSH2 0x210B JUMPI PUSH2 0x210B PUSH2 0x20E6 JUMP JUMPDEST POP MOD SWAP1 JUMP JUMPDEST DUP2 DUP2 SUB DUP2 DUP2 GT ISZERO PUSH2 0x1431 JUMPI PUSH2 0x1431 PUSH2 0x2077 JUMP JUMPDEST PUSH4 0x4E487B71 PUSH1 0xE0 SHL PUSH1 0x0 MSTORE PUSH1 0x31 PUSH1 0x4 MSTORE PUSH1 0x24 PUSH1 0x0 REVERT JUMPDEST PUSH1 0x0 DUP3 PUSH2 0x2148 JUMPI PUSH2 0x2148 PUSH2 0x20E6 JUMP JUMPDEST POP DIV SWAP1 JUMP INVALID LOG2 PUSH5 0x6970667358 0x22 SLT KECCAK256 SWAP15 PUSH17 0x542240AFEDBAFCAB1462F75A0BB300E98A GT BASEFEE INVALID MUL DUP9 PUSH2 0xD5F8 0xE4 DUP1 PUSH25 0x357E64736F6C634300081C0033000000000000000000000000 "},"methodIdentifiers":{"balances(address)":"27e235e3","cancelGame(uint256)":"69958ab9","createGame(string,uint256,bool)":"43dbf0ef","gameCounter()":"2e0be39a","games(uint256)":"117a5b90","getAllGames()":"db1c45f9","getGame(uint256)":"a2f77bcc","joinGame(uint256)":"efaa55a0","makeMove(uint256,uint256,uint256)":"cfc2f5ff","startGame(uint256)":"e5ed1d59","withdraw()":"3ccfd60b"}}}}}