{"blockchain/contracts/game.sol":{"DominoGame":{"abi":[{"anonymous":false,"inputs":[{"indexed":false,"internalType":"uint256","name":"gameId","type":"uint256"}],"name":"GameCanceled","type":"event"},{"anonymous":false,"inputs":[{"indexed":false,"internalType":"uint256","name":"gameId","type":"uint256"},{"indexed":false,"internalType":"address","name":"winner","type":"address"}],"name":"GameCompleted","type":"event"},{"anonymous":false,"inputs":[{"indexed":false,"internalType":"uint256","name":"gameId","type":"uint256"},{"indexed":false,"internalType":"address","name":"owner","type":"address"},{"indexed":false,"internalType":"uint256","name":"entryFee","type":"uint256"}],"name":"GameCreated","type":"event"},{"anonymous":false,"inputs":[{"indexed":false,"internalType":"uint256","name":"gameId","type":"uint256"}],"name":"GameDraw","type":"event"},{"anonymous":false,"inputs":[{"indexed":false,"internalType":"uint256","name":"gameId","type":"uint256"}],"name":"GameStarted","type":"event"},{"anonymous":false,"inputs":[{"indexed":false,"internalType":"uint256","name":"gameId","type":"uint256"},{"indexed":false,"internalType":"address","name":"player","type":"address"}],"name":"PlayerJoined","type":"event"},{"anonymous":false,"inputs":[{"indexed":false,"internalType":"uint256","name":"gameId","type":"uint256"},{"indexed":false,"internalType":"address","name":"player","type":"address"},{"indexed":false,"internalType":"uint256","name":"piece","type":"uint256"}],"name":"PlayerMoved","type":"event"},{"inputs":[{"internalType":"address","name":"","type":"address"}],"name":"balances","outputs":[{"internalType":"uint256","name":"","type":"uint256"}],"stateMutability":"view","type":"function"},{"inputs":[{"internalType":"uint256","name":"gameId","type":"uint256"}],"name":"cancelGame","outputs":[],"stateMutability":"nonpayable","type":"function"},{"inputs":[{"internalType":"uint256","name":"gameId","type":"uint256"}],"name":"cancelRequestStartGame","outputs":[],"stateMutability":"nonpayable","type":"function"},{"inputs":[{"internalType":"string","name":"name","type":"string"},{"internalType":"uint256","name":"entryFee","type":"uint256"},{"internalType":"bool","name":"isPlayer","type":"bool"}],"name":"createGame","outputs":[],"stateMutability":"payable","type":"function"},{"inputs":[{"internalType":"uint256","name":"gameId","type":"uint256"},{"internalType":"address","name":"winner","type":"address"}],"name":"endGame","outputs":[],"stateMutability":"nonpayable","type":"function"},{"inputs":[],"name":"gameCounter","outputs":[{"internalType":"uint256","name":"","type":"uint256"}],"stateMutability":"view","type":"function"},{"inputs":[{"internalType":"uint256","name":"","type":"uint256"}],"name":"games","outputs":[{"internalType":"uint256","name":"id","type":"uint256"},{"internalType":"string","name":"name","type":"string"},{"internalType":"address","name":"owner","type":"address"},{"internalType":"enum DominoGame.GameStatus","name":"status","type":"uint8"},{"internalType":"uint256","name":"entryFee","type":"uint256"},{"internalType":"uint256","name":"prizePool","type":"uint256"},{"internalType":"uint256","name":"maxPlayers","type":"uint256"},{"internalType":"uint256","name":"currentPlayerIndex","type":"uint256"}],"stateMutability":"view","type":"function"},{"inputs":[],"name":"getAllGames","outputs":[{"components":[{"internalType":"uint256","name":"id","type":"uint256"},{"internalType":"string","name":"name","type":"string"},{"internalType":"address","name":"owner","type":"address"},{"internalType":"enum DominoGame.GameStatus","name":"status","type":"uint8"},{"internalType":"uint256","name":"entryFee","type":"uint256"},{"internalType":"uint256","name":"prizePool","type":"uint256"},{"internalType":"uint256","name":"maxPlayers","type":"uint256"},{"internalType":"address[]","name":"players","type":"address[]"},{"internalType":"address[]","name":"activePlayers","type":"address[]"},{"internalType":"uint256[]","name":"deck","type":"uint256[]"},{"internalType":"uint256[]","name":"board","type":"uint256[]"},{"internalType":"uint256[]","name":"playerPieces","type":"uint256[]"}],"internalType":"struct DominoGame.GameResponse[]","name":"","type":"tuple[]"}],"stateMutability":"view","type":"function"},{"inputs":[{"internalType":"uint256","name":"gameId","type":"uint256"}],"name":"getCurrentPlayer","outputs":[{"components":[{"internalType":"uint256","name":"playerIndex","type":"uint256"},{"internalType":"uint256[]","name":"playerPieces","type":"uint256[]"},{"internalType":"enum DominoGame.GameStatus","name":"gameStatus","type":"uint8"}],"internalType":"struct DominoGame.CurrentPlayer","name":"","type":"tuple"}],"stateMutability":"view","type":"function"},{"inputs":[{"internalType":"uint256","name":"gameId","type":"uint256"}],"name":"getGame","outputs":[{"components":[{"internalType":"uint256","name":"id","type":"uint256"},{"internalType":"string","name":"name","type":"string"},{"internalType":"address","name":"owner","type":"address"},{"internalType":"enum DominoGame.GameStatus","name":"status","type":"uint8"},{"internalType":"uint256","name":"entryFee","type":"uint256"},{"internalType":"uint256","name":"prizePool","type":"uint256"},{"internalType":"uint256","name":"maxPlayers","type":"uint256"},{"internalType":"address[]","name":"players","type":"address[]"},{"internalType":"address[]","name":"activePlayers","type":"address[]"},{"internalType":"uint256[]","name":"deck","type":"uint256[]"},{"internalType":"uint256[]","name":"board","type":"uint256[]"},{"internalType":"uint256[]","name":"playerPieces","type":"uint256[]"}],"internalType":"struct DominoGame.GameResponse","name":"","type":"tuple"}],"stateMutability":"view","type":"function"},{"inputs":[{"internalType":"uint256","name":"gameId","type":"uint256"}],"name":"joinGame","outputs":[],"stateMutability":"payable","type":"function"},{"inputs":[{"internalType":"uint256","name":"gameId","type":"uint256"}],"name":"makeAutomaticMove","outputs":[],"stateMutability":"nonpayable","type":"function"},{"inputs":[{"internalType":"uint256","name":"gameId","type":"uint256"},{"internalType":"uint256","name":"left","type":"uint256"},{"internalType":"uint256","name":"right","type":"uint256"}],"name":"makeMove","outputs":[],"stateMutability":"nonpayable","type":"function"},{"inputs":[{"internalType":"uint256","name":"gameId","type":"uint256"}],"name":"requestStartGame","outputs":[],"stateMutability":"nonpayable","type":"function"},{"inputs":[{"internalType":"uint256","name":"gameId","type":"uint256"}],"name":"startGame","outputs":[],"stateMutability":"nonpayable","type":"function"},{"inputs":[],"name":"withdraw","outputs":[],"stateMutability":"nonpayable","type":"function"}],"evm":{"bytecode":{"linkReferences":{},"object":"6080604052348015600f57600080fd5b506127628061001f6000396000f3fe6080604052600436106100f35760003560e01c806369958ab91161008a578063db1c45f911610059578063db1c45f9146102aa578063e5ed1d59146102cc578063efaa55a0146102ec578063f052eb00146102ff57600080fd5b806369958ab91461021d578063865141311461023d578063a2f77bcc1461025d578063cfc2f5ff1461028a57600080fd5b80632e0be39a116100c65780632e0be39a146101bf5780633ccfd60b146101d557806343dbf0ef146101ea5780635491d468146101fd57600080fd5b8063117a5b90146100f8578063266386311461013557806327c46aaa1461016257806327e235e314610184575b600080fd5b34801561010457600080fd5b50610118610113366004612012565b61031f565b60405161012c9897969594939291906120a9565b60405180910390f35b34801561014157600080fd5b50610155610150366004612012565b6103f9565b60405161012c9190612143565b34801561016e57600080fd5b5061018261017d366004612012565b6105c1565b005b34801561019057600080fd5b506101b161019f3660046121a1565b60026020526000908152604090205481565b60405190815260200161012c565b3480156101cb57600080fd5b506101b160005481565b3480156101e157600080fd5b50610182610692565b6101826101f83660046121e9565b610724565b34801561020957600080fd5b50610182610218366004612012565b6107de565b34801561022957600080fd5b50610182610238366004612012565b610bf7565b34801561024957600080fd5b506101826102583660046122b9565b610d90565b34801561026957600080fd5b5061027d610278366004612012565b610eac565b60405161012c919061241f565b34801561029657600080fd5b506101826102a5366004612432565b61119c565b3480156102b657600080fd5b506102bf611358565b60405161012c919061245e565b3480156102d857600080fd5b506101826102e7366004612012565b6116cc565b6101826102fa366004612012565b611921565b34801561030b57600080fd5b5061018261031a366004612012565b611af0565b600160208190526000918252604090912080549181018054610340906124c3565b80601f016020809104026020016040519081016040528092919081815260200182805461036c906124c3565b80156103b95780601f1061038e576101008083540402835291602001916103b9565b820191906000526020600020905b81548152906001019060200180831161039c57829003601f168201915b505050506002830154600384015460048501546005860154600b9096015494956001600160a01b03841695600160a01b90940460ff169450919290919088565b610401611f06565b60008281526001602052604090206104198333611bff565b61045c5760405162461bcd60e51b815260206004820152600f60248201526e706c617965724e6f74496e47616d6560881b60448201526064015b60405180910390fd5b6000805b60078301548110156104b557336001600160a01b031683600701828154811061048b5761048b6124f7565b6000918252602090912001546001600160a01b0316036104ad578091506104b5565b600101610460565b5033600090815260088301602052604081205467ffffffffffffffff8111156104e0576104e06121c3565b604051908082528060200260200182016040528015610509578160200160208202803683370190505b50905060005b33600090815260088501602052604090205481101561057b57336000908152600885016020526040902080548290811061054b5761054b6124f7565b9060005260206000200154828281518110610568576105686124f7565b602090810291909101015260010161050f565b5060405180606001604052808381526020018281526020018460020160149054906101000a900460ff1660058111156105b6576105b6612071565b905295945050505050565b60008181526001602052604090206002015481906001600160a01b031633146105fc5760405162461bcd60e51b81526004016104539061250d565b6000828152600160208190526040909120906002820154600160a01b900460ff16600581111561062e5761062e612071565b146106705760405162461bcd60e51b815260206004820152601260248201527119d85b59505b1c9958591e54dd185c9d195960721b6044820152606401610453565b6002810180546000919060ff60a01b1916600160a01b835b0217905550505050565b33600090815260026020526040902054806106e55760405162461bcd60e51b81526020600482015260136024820152726e6f42616c616e6365546f576974686472617760681b6044820152606401610453565b336000818152600260205260408082208290555183156108fc0291849190818181858888f19350505050158015610720573d6000803e3d6000fd5b5050565b600080548082526001602081905260409092209081559081016107478582612584565b50600460058201556002810180546001600160a81b0319163360ff60a01b19161790556003810183905560008054908061078083612659565b90915550506000546040805191825233602083015281018490527f7dfb67e9ff596fca4da65c7eedb128cd1aac553af54b3c0cb733625a2480d8bd9060600160405180910390a181156107d85780546107d890611921565b50505050565b806107e98133611bff565b6108295760405162461bcd60e51b81526020600482015260116024820152703737ba20b720b1ba34bb32a83630bcb2b960791b6044820152606401610453565b6000828152600160205260409020600280820154600160a01b900460ff16600581111561085857610858612071565b146108755760405162461bcd60e51b815260040161045390612672565b600a8101546108be5760405162461bcd60e51b81526020600482015260156024820152741b9bd41a5958d95cd3db951a19509bd85c9916595d605a1b6044820152606401610453565b3360009081526008820160205260408120600a8301805491929182906108e6576108e66124f7565b6000918252602082200154600a85018054919350906109079060019061269b565b81548110610917576109176124f7565b906000526020600020015490506000805b8454811015610b82576000858281548110610945576109456124f7565b90600052602060002001549050600a8461095f91906126c4565b61096a600a836126d8565b1480610989575061097c600a856126c4565b610987600a836126c4565b145b156109fc57600a8701805460018101825560009182526020909120018190556109b28682611c74565b604080518a81523360208201529081018290527f953a0c0baf4a6e0dc4e5e310567187c0e370783b04a1c4ddbe4e721c8aac945c9060600160405180910390a16001925050610b82565b610a07600a866126d8565b610a12600a836126d8565b1480610a315750610a24600a866126c4565b610a2f600a836126c4565b145b15610b7957600a870154600090610a499060016126ec565b67ffffffffffffffff811115610a6157610a616121c3565b604051908082528060200260200182016040528015610a8a578160200160208202803683370190505b5090508181600081518110610aa157610aa16124f7565b60200260200101818152505060005b600a890154811015610b0d5788600a018181548110610ad157610ad16124f7565b906000526020600020015482826001610aea91906126ec565b81518110610afa57610afa6124f7565b6020908102919091010152600101610ab0565b508051610b2390600a8a01906020840190611f37565b50610b2e8783611c74565b604080518b81523360208201529081018390527f953a0c0baf4a6e0dc4e5e310567187c0e370783b04a1c4ddbe4e721c8aac945c9060600160405180910390a1600193505050610b82565b50600101610928565b5080610bc75760405162461bcd60e51b81526020600482015260146024820152736e6f56616c69644d6f7665417661696c61626c6560601b6044820152606401610453565b6007850154600b860154610bdc9060016126ec565b610be691906126c4565b85600b018190555050505050505050565b60008181526001602052604090206002015481906001600160a01b03163314610c325760405162461bcd60e51b81526004016104539061250d565b600082815260016020526040902060046002820154600160a01b900460ff166005811115610c6257610c62612071565b14158015610c90575060056002820154600160a01b900460ff166005811115610c8d57610c8d612071565b14155b610cd35760405162461bcd60e51b815260206004820152601460248201527319d85b59505b1c9958591e519a5b985b1a5e995960621b6044820152606401610453565b60028101805460ff60a01b1916600360a01b17905560005b6006820154811015610d5657816003015460026000846006018481548110610d1557610d156124f7565b60009182526020808320909101546001600160a01b0316835282019290925260400181208054909190610d499084906126ec565b9091555050600101610ceb565b506040518381527f8f1ffb72cf9e5acc4eddafab2be9e2951d12377b9e1e4bdc7bd686b19c91fd89906020015b60405180910390a1505050565b60008281526001602052604090206002015482906001600160a01b03163314610dcb5760405162461bcd60e51b81526004016104539061250d565b6000838152600160205260409020600280820154600160a01b900460ff166005811115610dfa57610dfa612071565b14610e175760405162461bcd60e51b815260040161045390612672565b6002810180546004919060ff60a01b1916600160a01b83021790555060048101546001600160a01b03841660009081526002602052604081208054909190610e609084906126ec565b9091555050604080518581526001600160a01b03851660208201527f7f40df5127524300187445e867486da572aab86769c0212e0b392bd87c4ca97f910160405180910390a150505050565b610eb4611f82565b60008281526001602090815260408083203384526008810183528184208054835181860281018601909452808452919493909190830182828015610f1757602002820191906000526020600020905b815481526020019060010190808311610f03575b5050505050905060405180610180016040528083600001548152602001836001018054610f43906124c3565b80601f0160208091040260200160405190810160405280929190818152602001828054610f6f906124c3565b8015610fbc5780601f10610f9157610100808354040283529160200191610fbc565b820191906000526020600020905b815481529060010190602001808311610f9f57829003601f168201915b505050918352505060028401546001600160a01b0381166020830152604090910190600160a01b900460ff166005811115610ff957610ff9612071565b81526020018360030154815260200183600401548152602001836005015481526020018360060180548060200260200160405190810160405280929190818152602001828054801561107457602002820191906000526020600020905b81546001600160a01b03168152600190910190602001808311611056575b50505050508152602001836007018054806020026020016040519081016040528092919081815260200182805480156110d657602002820191906000526020600020905b81546001600160a01b031681526001909101906020018083116110b8575b505050505081526020018360090180548060200260200160405190810160405280929190818152602001828054801561112e57602002820191906000526020600020905b81548152602001906001019080831161111a575b5050505050815260200183600a0180548060200260200160405190810160405280929190818152602001828054801561118657602002820191906000526020600020905b815481526020019060010190808311611172575b5050509183525050602001919091529392505050565b826111a78133611bff565b6111e75760405162461bcd60e51b81526020600482015260116024820152703737ba20b720b1ba34bb32a83630bcb2b960791b6044820152606401610453565b6000848152600160205260409020600280820154600160a01b900460ff16600581111561121657611216612071565b146112335760405162461bcd60e51b815260040161045390612672565b60008361124186600a6126ff565b61124b91906126ec565b33600090815260088401602052604090209091506112699082611d26565b6112b55760405162461bcd60e51b815260206004820152601960248201527f706c61796572446f65734e6f74486176655468655069656365000000000000006044820152606401610453565b33600090815260088301602052604090206112d09082611c74565b600a820180546001818101835560009283526020909220018290556007830154600b840154909161130191906126ec565b61130b91906126c4565b600b830155604080518781523360208201529081018290527f953a0c0baf4a6e0dc4e5e310567187c0e370783b04a1c4ddbe4e721c8aac945c9060600160405180910390a1505050505050565b60606000805467ffffffffffffffff811115611376576113766121c3565b6040519080825280602002602001820160405280156113af57816020015b61139c611f82565b8152602001906001900390816113945790505b50905060005b6000548110156116c6576000818152600160209081526040808320338452600881018352818420805483518186028101860190945280845291949390919083018282801561142257602002820191906000526020600020905b81548152602001906001019080831161140e575b505050505090506040518061018001604052808360000154815260200183600101805461144e906124c3565b80601f016020809104026020016040519081016040528092919081815260200182805461147a906124c3565b80156114c75780601f1061149c576101008083540402835291602001916114c7565b820191906000526020600020905b8154815290600101906020018083116114aa57829003601f168201915b505050918352505060028401546001600160a01b0381166020830152604090910190600160a01b900460ff16600581111561150457611504612071565b81526020018360030154815260200183600401548152602001836005015481526020018360060180548060200260200160405190810160405280929190818152602001828054801561157f57602002820191906000526020600020905b81546001600160a01b03168152600190910190602001808311611561575b50505050508152602001836007018054806020026020016040519081016040528092919081815260200182805480156115e157602002820191906000526020600020905b81546001600160a01b031681526001909101906020018083116115c3575b505050505081526020018360090180548060200260200160405190810160405280929190818152602001828054801561163957602002820191906000526020600020905b815481526020019060010190808311611625575b5050505050815260200183600a0180548060200260200160405190810160405280929190818152602001828054801561169157602002820191906000526020600020905b81548152602001906001019080831161167d575b50505050508152602001828152508484815181106116b1576116b16124f7565b602090810291909101015250506001016113b5565b50919050565b60008181526001602052604090206002015481906001600160a01b031633146117075760405162461bcd60e51b81526004016104539061250d565b600082815260016020526040902060068101546002111561175d5760405162461bcd60e51b815260206004820152601060248201526f6e6f74456e6f756768506c617965727360801b6044820152606401610453565b60016002820154600160a01b900460ff16600581111561177f5761177f612071565b146117c25760405162461bcd60e51b815260206004820152601360248201527219d85b59539bdd149958591e551bd4dd185c9d606a1b6044820152606401610453565b6117ca611d72565b80516117e0916009840191602090910190611f37565b506117ed81600901611e1f565b60005b60068201548110156118d45760005b600681116118cb576009830180546000919061181d9060019061269b565b8154811061182d5761182d6124f7565b90600052602060002001549050836008016000856006018581548110611855576118556124f7565b60009182526020808320909101546001600160a01b031683528281019390935260409091018120805460018101825590825291902001819055600984018054806118a1576118a1612716565b600190038181906000526020600020016000905590555080806118c390612659565b9150506117ff565b506001016117f0565b5060028101805460ff60a01b1916600160a11b1790556000600b8201556040518381527f50ad08f58a27f2851d7e3a1b3a6a46b290f2ce677e99642d30ff639721e7779090602001610d83565b6000818152600160205260408120906002820154600160a01b900460ff16600581111561195057611950612071565b148061197b575060016002820154600160a01b900460ff16600581111561197957611979612071565b145b6119c75760405162461bcd60e51b815260206004820152601760248201527f67616d654e6f74416363657074696e67506c61796572730000000000000000006044820152606401610453565b80600301543414611a0e5760405162461bcd60e51b8152602060048201526011602482015270696e636f7272656374456e74727946656560781b6044820152606401610453565b6005810154600682015410611a525760405162461bcd60e51b815260206004820152600a60248201526919d85b59525cd19d5b1b60b21b6044820152606401610453565b60068101805460018082018355600092835260208084209092018054336001600160a01b03199182168117909255600786018054938401815585529284209091018054909216179055600482018054349290611aaf9084906126ec565b9091555050604080518381523360208201527f87969bc7faf902221a147b95ceba76e011c5efb0339a0a8ee7a2bb82d9cfbbd6910160405180910390a15050565b60008181526001602052604090206002015481906001600160a01b03163314611b2b5760405162461bcd60e51b81526004016104539061250d565b6000828152600160205260408120906002820154600160a01b900460ff166005811115611b5a57611b5a612071565b14611b9c5760405162461bcd60e51b815260206004820152601260248201527119d85b59505b1c9958591e54dd185c9d195960721b6044820152606401610453565b6006810154600110611be35760405162461bcd60e51b815260206004820152601060248201526f6e6f74456e6f756768506c617965727360801b6044820152606401610453565b6002810180546001919060ff60a01b1916600160a01b83610688565b6000828152600160205260408120815b6007820154811015611c6757836001600160a01b0316826007018281548110611c3a57611c3a6124f7565b6000918252602090912001546001600160a01b031603611c5f57600192505050611c6e565b600101611c0f565b5060009150505b92915050565b60005b8254811015611d215781838281548110611c9357611c936124f7565b906000526020600020015403611d195782548390611cb39060019061269b565b81548110611cc357611cc36124f7565b9060005260206000200154838281548110611ce057611ce06124f7565b906000526020600020018190555082805480611cfe57611cfe612716565b60019003818190600052602060002001600090559055505050565b600101611c77565b505050565b6000805b8354811015611d685782848281548110611d4657611d466124f7565b906000526020600020015403611d60576001915050611c6e565b600101611d2a565b5060009392505050565b60408051601c8082526103a082019092526060916000919060208201610380803683370190505090506000805b60068111611e1757805b60068111611e045780611dbd83600a6126ff565b611dc791906126ec565b848481518110611dd957611dd96124f7565b602090810291909101015282611dee81612659565b9350508080611dfc90612659565b915050611da9565b5080611e0f81612659565b915050611d9f565b509092915050565b60005b8154811015610720578154600090611e3b90839061269b565b6040805142602082015244918101919091526060016040516020818303038152906040528051906020012060001c611e7391906126c4565b611e7d90836126ec565b90506000838281548110611e9357611e936124f7565b90600052602060002001549050838381548110611eb257611eb26124f7565b9060005260206000200154848381548110611ecf57611ecf6124f7565b906000526020600020018190555080848481548110611ef057611ef06124f7565b6000918252602090912001555050600101611e22565b6040518060600160405280600081526020016060815260200160006005811115611f3257611f32612071565b905290565b828054828255906000526020600020908101928215611f72579160200282015b82811115611f72578251825591602001919060010190611f57565b50611f7e929150611ffd565b5090565b604051806101800160405280600081526020016060815260200160006001600160a01b0316815260200160006005811115611fbf57611fbf612071565b815260200160008152602001600081526020016000815260200160608152602001606081526020016060815260200160608152602001606081525090565b5b80821115611f7e5760008155600101611ffe565b60006020828403121561202457600080fd5b5035919050565b6000815180845260005b8181101561205157602081850181015186830182015201612035565b506000602082860101526020601f19601f83011685010191505092915050565b634e487b7160e01b600052602160045260246000fd5b600681106120a557634e487b7160e01b600052602160045260246000fd5b9052565b888152610100602082015260006120c461010083018a61202b565b6001600160a01b038916604084015290506120e26060830188612087565b8560808301528460a08301528360c08301528260e08301529998505050505050505050565b600081518084526020840193506020830160005b8281101561213957815186526020958601959091019060010161211b565b5093949350505050565b602081528151602082015260006020830151606060408401526121696080840182612107565b9050604084015161217d6060850182612087565b509392505050565b80356001600160a01b038116811461219c57600080fd5b919050565b6000602082840312156121b357600080fd5b6121bc82612185565b9392505050565b634e487b7160e01b600052604160045260246000fd5b8035801515811461219c57600080fd5b6000806000606084860312156121fe57600080fd5b833567ffffffffffffffff81111561221557600080fd5b8401601f8101861361222657600080fd5b803567ffffffffffffffff811115612240576122406121c3565b604051601f8201601f19908116603f0116810167ffffffffffffffff8111828210171561226f5761226f6121c3565b60405281815282820160200188101561228757600080fd5b8160208401602083013760006020928201830152945085013592506122b09050604085016121d9565b90509250925092565b600080604083850312156122cc57600080fd5b823591506122dc60208401612185565b90509250929050565b600081518084526020840193506020830160005b828110156121395781516001600160a01b03168652602095860195909101906001016122f9565b8051825260006020820151610180602085015261234161018085018261202b565b9050604083015161235d60408601826001600160a01b03169052565b5060608301516123706060860182612087565b506080830151608085015260a083015160a085015260c083015160c085015260e083015184820360e08601526123a682826122e5565b9150506101008301518482036101008601526123c282826122e5565b9150506101208301518482036101208601526123de8282612107565b9150506101408301518482036101408601526123fa8282612107565b9150506101608301518482036101608601526124168282612107565b95945050505050565b6020815260006121bc6020830184612320565b60008060006060848603121561244757600080fd5b505081359360208301359350604090920135919050565b6000602082016020835280845180835260408501915060408160051b86010192506020860160005b828110156124b757603f198786030184526124a2858351612320565b94506020938401939190910190600101612486565b50929695505050505050565b600181811c908216806124d757607f821691505b6020821081036116c657634e487b7160e01b600052602260045260246000fd5b634e487b7160e01b600052603260045260246000fd5b6020808252600f908201526e3737ba2a3432a3b0b6b2a7bbb732b960891b604082015260600190565b601f821115611d2157806000526020600020601f840160051c8101602085101561255d5750805b601f840160051c820191505b8181101561257d5760008155600101612569565b5050505050565b815167ffffffffffffffff81111561259e5761259e6121c3565b6125b2816125ac84546124c3565b84612536565b6020601f8211600181146125e657600083156125ce5750848201515b600019600385901b1c1916600184901b17845561257d565b600084815260208120601f198516915b8281101561261657878501518255602094850194600190920191016125f6565b50848210156126345786840151600019600387901b60f8161c191681555b50505050600190811b01905550565b634e487b7160e01b600052601160045260246000fd5b60006001820161266b5761266b612643565b5060010190565b6020808252600f908201526e67616d6549734e6f7441637469766560881b604082015260600190565b81810381811115611c6e57611c6e612643565b634e487b7160e01b600052601260045260246000fd5b6000826126d3576126d36126ae565b500690565b6000826126e7576126e76126ae565b500490565b80820180821115611c6e57611c6e612643565b8082028115828204841417611c6e57611c6e612643565b634e487b7160e01b600052603160045260246000fdfea2646970667358221220dd1181908ff4a55a0fb555aeede57147fbc0d95db36d1d6ab5a28eeb2fa1687b64736f6c634300081c0033","opcodes":"PUSH1 0x80 PUSH1 0x40 MSTORE CALLVALUE DUP1 ISZERO PUSH1 0xF JUMPI PUSH1 0x0 DUP1 REVERT JUMPDEST POP PUSH2 0x2762 DUP1 PUSH2 0x1F PUSH1 0x0 CODECOPY PUSH1 0x0 RETURN INVALID PUSH1 0x80 PUSH1 0x40 MSTORE PUSH1 0x4 CALLDATASIZE LT PUSH2 0xF3 JUMPI PUSH1 0x0 CALLDATALOAD PUSH1 0xE0 SHR DUP1 PUSH4 0x69958AB9 GT PUSH2 0x8A JUMPI DUP1 PUSH4 0xDB1C45F9 GT PUSH2 0x59 JUMPI DUP1 PUSH4 0xDB1C45F9 EQ PUSH2 0x2AA JUMPI DUP1 PUSH4 0xE5ED1D59 EQ PUSH2 0x2CC JUMPI DUP1 PUSH4 0xEFAA55A0 EQ PUSH2 0x2EC JUMPI DUP1 PUSH4 0xF052EB00 EQ PUSH2 0x2FF JUMPI PUSH1 0x0 DUP1 REVERT JUMPDEST DUP1 PUSH4 0x69958AB9 EQ PUSH2 0x21D JUMPI DUP1 PUSH4 0x86514131 EQ PUSH2 0x23D JUMPI DUP1 PUSH4 0xA2F77BCC EQ PUSH2 0x25D JUMPI DUP1 PUSH4 0xCFC2F5FF EQ PUSH2 0x28A JUMPI PUSH1 0x0 DUP1 REVERT JUMPDEST DUP1 PUSH4 0x2E0BE39A GT PUSH2 0xC6 JUMPI DUP1 PUSH4 0x2E0BE39A EQ PUSH2 0x1BF JUMPI DUP1 PUSH4 0x3CCFD60B EQ PUSH2 0x1D5 JUMPI DUP1 PUSH4 0x43DBF0EF EQ PUSH2 0x1EA JUMPI DUP1 PUSH4 0x5491D468 EQ PUSH2 0x1FD JUMPI PUSH1 0x0 DUP1 REVERT JUMPDEST DUP1 PUSH4 0x117A5B90 EQ PUSH2 0xF8 JUMPI DUP1 PUSH4 0x26638631 EQ PUSH2 0x135 JUMPI DUP1 PUSH4 0x27C46AAA EQ PUSH2 0x162 JUMPI DUP1 PUSH4 0x27E235E3 EQ PUSH2 0x184 JUMPI JUMPDEST PUSH1 0x0 DUP1 REVERT JUMPDEST CALLVALUE DUP1 ISZERO PUSH2 0x104 JUMPI PUSH1 0x0 DUP1 REVERT JUMPDEST POP PUSH2 0x118 PUSH2 0x113 CALLDATASIZE PUSH1 0x4 PUSH2 0x2012 JUMP JUMPDEST PUSH2 0x31F JUMP JUMPDEST PUSH1 0x40 MLOAD PUSH2 0x12C SWAP9 SWAP8 SWAP7 SWAP6 SWAP5 SWAP4 SWAP3 SWAP2 SWAP1 PUSH2 0x20A9 JUMP JUMPDEST PUSH1 0x40 MLOAD DUP1 SWAP2 SUB SWAP1 RETURN JUMPDEST CALLVALUE DUP1 ISZERO PUSH2 0x141 JUMPI PUSH1 0x0 DUP1 REVERT JUMPDEST POP PUSH2 0x155 PUSH2 0x150 CALLDATASIZE PUSH1 0x4 PUSH2 0x2012 JUMP JUMPDEST PUSH2 0x3F9 JUMP JUMPDEST PUSH1 0x40 MLOAD PUSH2 0x12C SWAP2 SWAP1 PUSH2 0x2143 JUMP JUMPDEST CALLVALUE DUP1 ISZERO PUSH2 0x16E JUMPI PUSH1 0x0 DUP1 REVERT JUMPDEST POP PUSH2 0x182 PUSH2 0x17D CALLDATASIZE PUSH1 0x4 PUSH2 0x2012 JUMP JUMPDEST PUSH2 0x5C1 JUMP JUMPDEST STOP JUMPDEST CALLVALUE DUP1 ISZERO PUSH2 0x190 JUMPI PUSH1 0x0 DUP1 REVERT JUMPDEST POP PUSH2 0x1B1 PUSH2 0x19F CALLDATASIZE PUSH1 0x4 PUSH2 0x21A1 JUMP JUMPDEST PUSH1 0x2 PUSH1 0x20 MSTORE PUSH1 0x0 SWAP1 DUP2 MSTORE PUSH1 0x40 SWAP1 KECCAK256 SLOAD DUP2 JUMP JUMPDEST PUSH1 0x40 MLOAD SWAP1 DUP2 MSTORE PUSH1 0x20 ADD PUSH2 0x12C JUMP JUMPDEST CALLVALUE DUP1 ISZERO PUSH2 0x1CB JUMPI PUSH1 0x0 DUP1 REVERT JUMPDEST POP PUSH2 0x1B1 PUSH1 0x0 SLOAD DUP2 JUMP JUMPDEST CALLVALUE DUP1 ISZERO PUSH2 0x1E1 JUMPI PUSH1 0x0 DUP1 REVERT JUMPDEST POP PUSH2 0x182 PUSH2 0x692 JUMP JUMPDEST PUSH2 0x182 PUSH2 0x1F8 CALLDATASIZE PUSH1 0x4 PUSH2 0x21E9 JUMP JUMPDEST PUSH2 0x724 JUMP JUMPDEST CALLVALUE DUP1 ISZERO PUSH2 0x209 JUMPI PUSH1 0x0 DUP1 REVERT JUMPDEST POP PUSH2 0x182 PUSH2 0x218 CALLDATASIZE PUSH1 0x4 PUSH2 0x2012 JUMP JUMPDEST PUSH2 0x7DE JUMP JUMPDEST CALLVALUE DUP1 ISZERO PUSH2 0x229 JUMPI PUSH1 0x0 DUP1 REVERT JUMPDEST POP PUSH2 0x182 PUSH2 0x238 CALLDATASIZE PUSH1 0x4 PUSH2 0x2012 JUMP JUMPDEST PUSH2 0xBF7 JUMP JUMPDEST CALLVALUE DUP1 ISZERO PUSH2 0x249 JUMPI PUSH1 0x0 DUP1 REVERT JUMPDEST POP PUSH2 0x182 PUSH2 0x258 CALLDATASIZE PUSH1 0x4 PUSH2 0x22B9 JUMP JUMPDEST PUSH2 0xD90 JUMP JUMPDEST CALLVALUE DUP1 ISZERO PUSH2 0x269 JUMPI PUSH1 0x0 DUP1 REVERT JUMPDEST POP PUSH2 0x27D PUSH2 0x278 CALLDATASIZE PUSH1 0x4 PUSH2 0x2012 JUMP JUMPDEST PUSH2 0xEAC JUMP JUMPDEST PUSH1 0x40 MLOAD PUSH2 0x12C SWAP2 SWAP1 PUSH2 0x241F JUMP JUMPDEST CALLVALUE DUP1 ISZERO PUSH2 0x296 JUMPI PUSH1 0x0 DUP1 REVERT JUMPDEST POP PUSH2 0x182 PUSH2 0x2A5 CALLDATASIZE PUSH1 0x4 PUSH2 0x2432 JUMP JUMPDEST PUSH2 0x119C JUMP JUMPDEST CALLVALUE DUP1 ISZERO PUSH2 0x2B6 JUMPI PUSH1 0x0 DUP1 REVERT JUMPDEST POP PUSH2 0x2BF PUSH2 0x1358 JUMP JUMPDEST PUSH1 0x40 MLOAD PUSH2 0x12C SWAP2 SWAP1 PUSH2 0x245E JUMP JUMPDEST CALLVALUE DUP1 ISZERO PUSH2 0x2D8 JUMPI PUSH1 0x0 DUP1 REVERT JUMPDEST POP PUSH2 0x182 PUSH2 0x2E7 CALLDATASIZE PUSH1 0x4 PUSH2 0x2012 JUMP JUMPDEST PUSH2 0x16CC JUMP JUMPDEST PUSH2 0x182 PUSH2 0x2FA CALLDATASIZE PUSH1 0x4 PUSH2 0x2012 JUMP JUMPDEST PUSH2 0x1921 JUMP JUMPDEST CALLVALUE DUP1 ISZERO PUSH2 0x30B JUMPI PUSH1 0x0 DUP1 REVERT JUMPDEST POP PUSH2 0x182 PUSH2 0x31A CALLDATASIZE PUSH1 0x4 PUSH2 0x2012 JUMP JUMPDEST PUSH2 0x1AF0 JUMP JUMPDEST PUSH1 0x1 PUSH1 0x20 DUP2 SWAP1 MSTORE PUSH1 0x0 SWAP2 DUP3 MSTORE PUSH1 0x40 SWAP1 SWAP2 KECCAK256 DUP1 SLOAD SWAP2 DUP2 ADD DUP1 SLOAD PUSH2 0x340 SWAP1 PUSH2 0x24C3 JUMP JUMPDEST DUP1 PUSH1 0x1F ADD PUSH1 0x20 DUP1 SWAP2 DIV MUL PUSH1 0x20 ADD PUSH1 0x40 MLOAD SWAP1 DUP2 ADD PUSH1 0x40 MSTORE DUP1 SWAP3 SWAP2 SWAP1 DUP2 DUP2 MSTORE PUSH1 0x20 ADD DUP3 DUP1 SLOAD PUSH2 0x36C SWAP1 PUSH2 0x24C3 JUMP JUMPDEST DUP1 ISZERO PUSH2 0x3B9 JUMPI DUP1 PUSH1 0x1F LT PUSH2 0x38E JUMPI PUSH2 0x100 DUP1 DUP4 SLOAD DIV MUL DUP4 MSTORE SWAP2 PUSH1 0x20 ADD SWAP2 PUSH2 0x3B9 JUMP JUMPDEST DUP3 ADD SWAP2 SWAP1 PUSH1 0x0 MSTORE PUSH1 0x20 PUSH1 0x0 KECCAK256 SWAP1 JUMPDEST DUP2 SLOAD DUP2 MSTORE SWAP1 PUSH1 0x1 ADD SWAP1 PUSH1 0x20 ADD DUP1 DUP4 GT PUSH2 0x39C JUMPI DUP3 SWAP1 SUB PUSH1 0x1F AND DUP3 ADD SWAP2 JUMPDEST POP POP POP POP PUSH1 0x2 DUP4 ADD SLOAD PUSH1 0x3 DUP5 ADD SLOAD PUSH1 0x4 DUP6 ADD SLOAD PUSH1 0x5 DUP7 ADD SLOAD PUSH1 0xB SWAP1 SWAP7 ADD SLOAD SWAP5 SWAP6 PUSH1 0x1 PUSH1 0x1 PUSH1 0xA0 SHL SUB DUP5 AND SWAP6 PUSH1 0x1 PUSH1 0xA0 SHL SWAP1 SWAP5 DIV PUSH1 0xFF AND SWAP5 POP SWAP2 SWAP3 SWAP1 SWAP2 SWAP1 DUP9 JUMP JUMPDEST PUSH2 0x401 PUSH2 0x1F06 JUMP JUMPDEST PUSH1 0x0 DUP3 DUP2 MSTORE PUSH1 0x1 PUSH1 0x20 MSTORE PUSH1 0x40 SWAP1 KECCAK256 PUSH2 0x419 DUP4 CALLER PUSH2 0x1BFF JUMP JUMPDEST PUSH2 0x45C JUMPI PUSH1 0x40 MLOAD PUSH3 0x461BCD PUSH1 0xE5 SHL DUP2 MSTORE PUSH1 0x20 PUSH1 0x4 DUP3 ADD MSTORE PUSH1 0xF PUSH1 0x24 DUP3 ADD MSTORE PUSH15 0x706C617965724E6F74496E47616D65 PUSH1 0x88 SHL PUSH1 0x44 DUP3 ADD MSTORE PUSH1 0x64 ADD JUMPDEST PUSH1 0x40 MLOAD DUP1 SWAP2 SUB SWAP1 REVERT JUMPDEST PUSH1 0x0 DUP1 JUMPDEST PUSH1 0x7 DUP4 ADD SLOAD DUP2 LT ISZERO PUSH2 0x4B5 JUMPI CALLER PUSH1 0x1 PUSH1 0x1 PUSH1 0xA0 SHL SUB AND DUP4 PUSH1 0x7 ADD DUP3 DUP2 SLOAD DUP2 LT PUSH2 0x48B JUMPI PUSH2 0x48B PUSH2 0x24F7 JUMP JUMPDEST PUSH1 0x0 SWAP2 DUP3 MSTORE PUSH1 0x20 SWAP1 SWAP2 KECCAK256 ADD SLOAD PUSH1 0x1 PUSH1 0x1 PUSH1 0xA0 SHL SUB AND SUB PUSH2 0x4AD JUMPI DUP1 SWAP2 POP PUSH2 0x4B5 JUMP JUMPDEST PUSH1 0x1 ADD PUSH2 0x460 JUMP JUMPDEST POP CALLER PUSH1 0x0 SWAP1 DUP2 MSTORE PUSH1 0x8 DUP4 ADD PUSH1 0x20 MSTORE PUSH1 0x40 DUP2 KECCAK256 SLOAD PUSH8 0xFFFFFFFFFFFFFFFF DUP2 GT ISZERO PUSH2 0x4E0 JUMPI PUSH2 0x4E0 PUSH2 0x21C3 JUMP JUMPDEST PUSH1 0x40 MLOAD SWAP1 DUP1 DUP3 MSTORE DUP1 PUSH1 0x20 MUL PUSH1 0x20 ADD DUP3 ADD PUSH1 0x40 MSTORE DUP1 ISZERO PUSH2 0x509 JUMPI DUP2 PUSH1 0x20 ADD PUSH1 0x20 DUP3 MUL DUP1 CALLDATASIZE DUP4 CALLDATACOPY ADD SWAP1 POP JUMPDEST POP SWAP1 POP PUSH1 0x0 JUMPDEST CALLER PUSH1 0x0 SWAP1 DUP2 MSTORE PUSH1 0x8 DUP6 ADD PUSH1 0x20 MSTORE PUSH1 0x40 SWAP1 KECCAK256 SLOAD DUP2 LT ISZERO PUSH2 0x57B JUMPI CALLER PUSH1 0x0 SWAP1 DUP2 MSTORE PUSH1 0x8 DUP6 ADD PUSH1 0x20 MSTORE PUSH1 0x40 SWAP1 KECCAK256 DUP1 SLOAD DUP3 SWAP1 DUP2 LT PUSH2 0x54B JUMPI PUSH2 0x54B PUSH2 0x24F7 JUMP JUMPDEST SWAP1 PUSH1 0x0 MSTORE PUSH1 0x20 PUSH1 0x0 KECCAK256 ADD SLOAD DUP3 DUP3 DUP2 MLOAD DUP2 LT PUSH2 0x568 JUMPI PUSH2 0x568 PUSH2 0x24F7 JUMP JUMPDEST PUSH1 0x20 SWAP1 DUP2 MUL SWAP2 SWAP1 SWAP2 ADD ADD MSTORE PUSH1 0x1 ADD PUSH2 0x50F JUMP JUMPDEST POP PUSH1 0x40 MLOAD DUP1 PUSH1 0x60 ADD PUSH1 0x40 MSTORE DUP1 DUP4 DUP2 MSTORE PUSH1 0x20 ADD DUP3 DUP2 MSTORE PUSH1 0x20 ADD DUP5 PUSH1 0x2 ADD PUSH1 0x14 SWAP1 SLOAD SWAP1 PUSH2 0x100 EXP SWAP1 DIV PUSH1 0xFF AND PUSH1 0x5 DUP2 GT ISZERO PUSH2 0x5B6 JUMPI PUSH2 0x5B6 PUSH2 0x2071 JUMP JUMPDEST SWAP1 MSTORE SWAP6 SWAP5 POP POP POP POP POP JUMP JUMPDEST PUSH1 0x0 DUP2 DUP2 MSTORE PUSH1 0x1 PUSH1 0x20 MSTORE PUSH1 0x40 SWAP1 KECCAK256 PUSH1 0x2 ADD SLOAD DUP2 SWAP1 PUSH1 0x1 PUSH1 0x1 PUSH1 0xA0 SHL SUB AND CALLER EQ PUSH2 0x5FC JUMPI PUSH1 0x40 MLOAD PUSH3 0x461BCD PUSH1 0xE5 SHL DUP2 MSTORE PUSH1 0x4 ADD PUSH2 0x453 SWAP1 PUSH2 0x250D JUMP JUMPDEST PUSH1 0x0 DUP3 DUP2 MSTORE PUSH1 0x1 PUSH1 0x20 DUP2 SWAP1 MSTORE PUSH1 0x40 SWAP1 SWAP2 KECCAK256 SWAP1 PUSH1 0x2 DUP3 ADD SLOAD PUSH1 0x1 PUSH1 0xA0 SHL SWAP1 DIV PUSH1 0xFF AND PUSH1 0x5 DUP2 GT ISZERO PUSH2 0x62E JUMPI PUSH2 0x62E PUSH2 0x2071 JUMP JUMPDEST EQ PUSH2 0x670 JUMPI PUSH1 0x40 MLOAD PUSH3 0x461BCD PUSH1 0xE5 SHL DUP2 MSTORE PUSH1 0x20 PUSH1 0x4 DUP3 ADD MSTORE PUSH1 0x12 PUSH1 0x24 DUP3 ADD MSTORE PUSH18 0x19D85B59505B1C9958591E54DD185C9D1959 PUSH1 0x72 SHL PUSH1 0x44 DUP3 ADD MSTORE PUSH1 0x64 ADD PUSH2 0x453 JUMP JUMPDEST PUSH1 0x2 DUP2 ADD DUP1 SLOAD PUSH1 0x0 SWAP2 SWAP1 PUSH1 0xFF PUSH1 0xA0 SHL NOT AND PUSH1 0x1 PUSH1 0xA0 SHL DUP4 JUMPDEST MUL OR SWAP1 SSTORE POP POP POP POP JUMP JUMPDEST CALLER PUSH1 0x0 SWAP1 DUP2 MSTORE PUSH1 0x2 PUSH1 0x20 MSTORE PUSH1 0x40 SWAP1 KECCAK256 SLOAD DUP1 PUSH2 0x6E5 JUMPI PUSH1 0x40 MLOAD PUSH3 0x461BCD PUSH1 0xE5 SHL DUP2 MSTORE PUSH1 0x20 PUSH1 0x4 DUP3 ADD MSTORE PUSH1 0x13 PUSH1 0x24 DUP3 ADD MSTORE PUSH19 0x6E6F42616C616E6365546F5769746864726177 PUSH1 0x68 SHL PUSH1 0x44 DUP3 ADD MSTORE PUSH1 0x64 ADD PUSH2 0x453 JUMP JUMPDEST CALLER PUSH1 0x0 DUP2 DUP2 MSTORE PUSH1 0x2 PUSH1 0x20 MSTORE PUSH1 0x40 DUP1 DUP3 KECCAK256 DUP3 SWAP1 SSTORE MLOAD DUP4 ISZERO PUSH2 0x8FC MUL SWAP2 DUP5 SWAP2 SWAP1 DUP2 DUP2 DUP2 DUP6 DUP9 DUP9 CALL SWAP4 POP POP POP POP ISZERO DUP1 ISZERO PUSH2 0x720 JUMPI RETURNDATASIZE PUSH1 0x0 DUP1 RETURNDATACOPY RETURNDATASIZE PUSH1 0x0 REVERT JUMPDEST POP POP JUMP JUMPDEST PUSH1 0x0 DUP1 SLOAD DUP1 DUP3 MSTORE PUSH1 0x1 PUSH1 0x20 DUP2 SWAP1 MSTORE PUSH1 0x40 SWAP1 SWAP3 KECCAK256 SWAP1 DUP2 SSTORE SWAP1 DUP2 ADD PUSH2 0x747 DUP6 DUP3 PUSH2 0x2584 JUMP JUMPDEST POP PUSH1 0x4 PUSH1 0x5 DUP3 ADD SSTORE PUSH1 0x2 DUP2 ADD DUP1 SLOAD PUSH1 0x1 PUSH1 0x1 PUSH1 0xA8 SHL SUB NOT AND CALLER PUSH1 0xFF PUSH1 0xA0 SHL NOT AND OR SWAP1 SSTORE PUSH1 0x3 DUP2 ADD DUP4 SWAP1 SSTORE PUSH1 0x0 DUP1 SLOAD SWAP1 DUP1 PUSH2 0x780 DUP4 PUSH2 0x2659 JUMP JUMPDEST SWAP1 SWAP2 SSTORE POP POP PUSH1 0x0 SLOAD PUSH1 0x40 DUP1 MLOAD SWAP2 DUP3 MSTORE CALLER PUSH1 0x20 DUP4 ADD MSTORE DUP2 ADD DUP5 SWAP1 MSTORE PUSH32 0x7DFB67E9FF596FCA4DA65C7EEDB128CD1AAC553AF54B3C0CB733625A2480D8BD SWAP1 PUSH1 0x60 ADD PUSH1 0x40 MLOAD DUP1 SWAP2 SUB SWAP1 LOG1 DUP2 ISZERO PUSH2 0x7D8 JUMPI DUP1 SLOAD PUSH2 0x7D8 SWAP1 PUSH2 0x1921 JUMP JUMPDEST POP POP POP POP JUMP JUMPDEST DUP1 PUSH2 0x7E9 DUP2 CALLER PUSH2 0x1BFF JUMP JUMPDEST PUSH2 0x829 JUMPI PUSH1 0x40 MLOAD PUSH3 0x461BCD PUSH1 0xE5 SHL DUP2 MSTORE PUSH1 0x20 PUSH1 0x4 DUP3 ADD MSTORE PUSH1 0x11 PUSH1 0x24 DUP3 ADD MSTORE PUSH17 0x3737BA20B720B1BA34BB32A83630BCB2B9 PUSH1 0x79 SHL PUSH1 0x44 DUP3 ADD MSTORE PUSH1 0x64 ADD PUSH2 0x453 JUMP JUMPDEST PUSH1 0x0 DUP3 DUP2 MSTORE PUSH1 0x1 PUSH1 0x20 MSTORE PUSH1 0x40 SWAP1 KECCAK256 PUSH1 0x2 DUP1 DUP3 ADD SLOAD PUSH1 0x1 PUSH1 0xA0 SHL SWAP1 DIV PUSH1 0xFF AND PUSH1 0x5 DUP2 GT ISZERO PUSH2 0x858 JUMPI PUSH2 0x858 PUSH2 0x2071 JUMP JUMPDEST EQ PUSH2 0x875 JUMPI PUSH1 0x40 MLOAD PUSH3 0x461BCD PUSH1 0xE5 SHL DUP2 MSTORE PUSH1 0x4 ADD PUSH2 0x453 SWAP1 PUSH2 0x2672 JUMP JUMPDEST PUSH1 0xA DUP2 ADD SLOAD PUSH2 0x8BE JUMPI PUSH1 0x40 MLOAD PUSH3 0x461BCD PUSH1 0xE5 SHL DUP2 MSTORE PUSH1 0x20 PUSH1 0x4 DUP3 ADD MSTORE PUSH1 0x15 PUSH1 0x24 DUP3 ADD MSTORE PUSH21 0x1B9BD41A5958D95CD3DB951A19509BD85C9916595D PUSH1 0x5A SHL PUSH1 0x44 DUP3 ADD MSTORE PUSH1 0x64 ADD PUSH2 0x453 JUMP JUMPDEST CALLER PUSH1 0x0 SWAP1 DUP2 MSTORE PUSH1 0x8 DUP3 ADD PUSH1 0x20 MSTORE PUSH1 0x40 DUP2 KECCAK256 PUSH1 0xA DUP4 ADD DUP1 SLOAD SWAP2 SWAP3 SWAP2 DUP3 SWAP1 PUSH2 0x8E6 JUMPI PUSH2 0x8E6 PUSH2 0x24F7 JUMP JUMPDEST PUSH1 0x0 SWAP2 DUP3 MSTORE PUSH1 0x20 DUP3 KECCAK256 ADD SLOAD PUSH1 0xA DUP6 ADD DUP1 SLOAD SWAP2 SWAP4 POP SWAP1 PUSH2 0x907 SWAP1 PUSH1 0x1 SWAP1 PUSH2 0x269B JUMP JUMPDEST DUP2 SLOAD DUP2 LT PUSH2 0x917 JUMPI PUSH2 0x917 PUSH2 0x24F7 JUMP JUMPDEST SWAP1 PUSH1 0x0 MSTORE PUSH1 0x20 PUSH1 0x0 KECCAK256 ADD SLOAD SWAP1 POP PUSH1 0x0 DUP1 JUMPDEST DUP5 SLOAD DUP2 LT ISZERO PUSH2 0xB82 JUMPI PUSH1 0x0 DUP6 DUP3 DUP2 SLOAD DUP2 LT PUSH2 0x945 JUMPI PUSH2 0x945 PUSH2 0x24F7 JUMP JUMPDEST SWAP1 PUSH1 0x0 MSTORE PUSH1 0x20 PUSH1 0x0 KECCAK256 ADD SLOAD SWAP1 POP PUSH1 0xA DUP5 PUSH2 0x95F SWAP2 SWAP1 PUSH2 0x26C4 JUMP JUMPDEST PUSH2 0x96A PUSH1 0xA DUP4 PUSH2 0x26D8 JUMP JUMPDEST EQ DUP1 PUSH2 0x989 JUMPI POP PUSH2 0x97C PUSH1 0xA DUP6 PUSH2 0x26C4 JUMP JUMPDEST PUSH2 0x987 PUSH1 0xA DUP4 PUSH2 0x26C4 JUMP JUMPDEST EQ JUMPDEST ISZERO PUSH2 0x9FC JUMPI PUSH1 0xA DUP8 ADD DUP1 SLOAD PUSH1 0x1 DUP2 ADD DUP3 SSTORE PUSH1 0x0 SWAP2 DUP3 MSTORE PUSH1 0x20 SWAP1 SWAP2 KECCAK256 ADD DUP2 SWAP1 SSTORE PUSH2 0x9B2 DUP7 DUP3 PUSH2 0x1C74 JUMP JUMPDEST PUSH1 0x40 DUP1 MLOAD DUP11 DUP2 MSTORE CALLER PUSH1 0x20 DUP3 ADD MSTORE SWAP1 DUP2 ADD DUP3 SWAP1 MSTORE PUSH32 0x953A0C0BAF4A6E0DC4E5E310567187C0E370783B04A1C4DDBE4E721C8AAC945C SWAP1 PUSH1 0x60 ADD PUSH1 0x40 MLOAD DUP1 SWAP2 SUB SWAP1 LOG1 PUSH1 0x1 SWAP3 POP POP PUSH2 0xB82 JUMP JUMPDEST PUSH2 0xA07 PUSH1 0xA DUP7 PUSH2 0x26D8 JUMP JUMPDEST PUSH2 0xA12 PUSH1 0xA DUP4 PUSH2 0x26D8 JUMP JUMPDEST EQ DUP1 PUSH2 0xA31 JUMPI POP PUSH2 0xA24 PUSH1 0xA DUP7 PUSH2 0x26C4 JUMP JUMPDEST PUSH2 0xA2F PUSH1 0xA DUP4 PUSH2 0x26C4 JUMP JUMPDEST EQ JUMPDEST ISZERO PUSH2 0xB79 JUMPI PUSH1 0xA DUP8 ADD SLOAD PUSH1 0x0 SWAP1 PUSH2 0xA49 SWAP1 PUSH1 0x1 PUSH2 0x26EC JUMP JUMPDEST PUSH8 0xFFFFFFFFFFFFFFFF DUP2 GT ISZERO PUSH2 0xA61 JUMPI PUSH2 0xA61 PUSH2 0x21C3 JUMP JUMPDEST PUSH1 0x40 MLOAD SWAP1 DUP1 DUP3 MSTORE DUP1 PUSH1 0x20 MUL PUSH1 0x20 ADD DUP3 ADD PUSH1 0x40 MSTORE DUP1 ISZERO PUSH2 0xA8A JUMPI DUP2 PUSH1 0x20 ADD PUSH1 0x20 DUP3 MUL DUP1 CALLDATASIZE DUP4 CALLDATACOPY ADD SWAP1 POP JUMPDEST POP SWAP1 POP DUP2 DUP2 PUSH1 0x0 DUP2 MLOAD DUP2 LT PUSH2 0xAA1 JUMPI PUSH2 0xAA1 PUSH2 0x24F7 JUMP JUMPDEST PUSH1 0x20 MUL PUSH1 0x20 ADD ADD DUP2 DUP2 MSTORE POP POP PUSH1 0x0 JUMPDEST PUSH1 0xA DUP10 ADD SLOAD DUP2 LT ISZERO PUSH2 0xB0D JUMPI DUP9 PUSH1 0xA ADD DUP2 DUP2 SLOAD DUP2 LT PUSH2 0xAD1 JUMPI PUSH2 0xAD1 PUSH2 0x24F7 JUMP JUMPDEST SWAP1 PUSH1 0x0 MSTORE PUSH1 0x20 PUSH1 0x0 KECCAK256 ADD SLOAD DUP3 DUP3 PUSH1 0x1 PUSH2 0xAEA SWAP2 SWAP1 PUSH2 0x26EC JUMP JUMPDEST DUP2 MLOAD DUP2 LT PUSH2 0xAFA JUMPI PUSH2 0xAFA PUSH2 0x24F7 JUMP JUMPDEST PUSH1 0x20 SWAP1 DUP2 MUL SWAP2 SWAP1 SWAP2 ADD ADD MSTORE PUSH1 0x1 ADD PUSH2 0xAB0 JUMP JUMPDEST POP DUP1 MLOAD PUSH2 0xB23 SWAP1 PUSH1 0xA DUP11 ADD SWAP1 PUSH1 0x20 DUP5 ADD SWAP1 PUSH2 0x1F37 JUMP JUMPDEST POP PUSH2 0xB2E DUP8 DUP4 PUSH2 0x1C74 JUMP JUMPDEST PUSH1 0x40 DUP1 MLOAD DUP12 DUP2 MSTORE CALLER PUSH1 0x20 DUP3 ADD MSTORE SWAP1 DUP2 ADD DUP4 SWAP1 MSTORE PUSH32 0x953A0C0BAF4A6E0DC4E5E310567187C0E370783B04A1C4DDBE4E721C8AAC945C SWAP1 PUSH1 0x60 ADD PUSH1 0x40 MLOAD DUP1 SWAP2 SUB SWAP1 LOG1 PUSH1 0x1 SWAP4 POP POP POP PUSH2 0xB82 JUMP JUMPDEST POP PUSH1 0x1 ADD PUSH2 0x928 JUMP JUMPDEST POP DUP1 PUSH2 0xBC7 JUMPI PUSH1 0x40 MLOAD PUSH3 0x461BCD PUSH1 0xE5 SHL DUP2 MSTORE PUSH1 0x20 PUSH1 0x4 DUP3 ADD MSTORE PUSH1 0x14 PUSH1 0x24 DUP3 ADD MSTORE PUSH20 0x6E6F56616C69644D6F7665417661696C61626C65 PUSH1 0x60 SHL PUSH1 0x44 DUP3 ADD MSTORE PUSH1 0x64 ADD PUSH2 0x453 JUMP JUMPDEST PUSH1 0x7 DUP6 ADD SLOAD PUSH1 0xB DUP7 ADD SLOAD PUSH2 0xBDC SWAP1 PUSH1 0x1 PUSH2 0x26EC JUMP JUMPDEST PUSH2 0xBE6 SWAP2 SWAP1 PUSH2 0x26C4 JUMP JUMPDEST DUP6 PUSH1 0xB ADD DUP2 SWAP1 SSTORE POP POP POP POP POP POP POP POP JUMP JUMPDEST PUSH1 0x0 DUP2 DUP2 MSTORE PUSH1 0x1 PUSH1 0x20 MSTORE PUSH1 0x40 SWAP1 KECCAK256 PUSH1 0x2 ADD SLOAD DUP2 SWAP1 PUSH1 0x1 PUSH1 0x1 PUSH1 0xA0 SHL SUB AND CALLER EQ PUSH2 0xC32 JUMPI PUSH1 0x40 MLOAD PUSH3 0x461BCD PUSH1 0xE5 SHL DUP2 MSTORE PUSH1 0x4 ADD PUSH2 0x453 SWAP1 PUSH2 0x250D JUMP JUMPDEST PUSH1 0x0 DUP3 DUP2 MSTORE PUSH1 0x1 PUSH1 0x20 MSTORE PUSH1 0x40 SWAP1 KECCAK256 PUSH1 0x4 PUSH1 0x2 DUP3 ADD SLOAD PUSH1 0x1 PUSH1 0xA0 SHL SWAP1 DIV PUSH1 0xFF AND PUSH1 0x5 DUP2 GT ISZERO PUSH2 0xC62 JUMPI PUSH2 0xC62 PUSH2 0x2071 JUMP JUMPDEST EQ ISZERO DUP1 ISZERO PUSH2 0xC90 JUMPI POP PUSH1 0x5 PUSH1 0x2 DUP3 ADD SLOAD PUSH1 0x1 PUSH1 0xA0 SHL SWAP1 DIV PUSH1 0xFF AND PUSH1 0x5 DUP2 GT ISZERO PUSH2 0xC8D JUMPI PUSH2 0xC8D PUSH2 0x2071 JUMP JUMPDEST EQ ISZERO JUMPDEST PUSH2 0xCD3 JUMPI PUSH1 0x40 MLOAD PUSH3 0x461BCD PUSH1 0xE5 SHL DUP2 MSTORE PUSH1 0x20 PUSH1 0x4 DUP3 ADD MSTORE PUSH1 0x14 PUSH1 0x24 DUP3 ADD MSTORE PUSH20 0x19D85B59505B1C9958591E519A5B985B1A5E9959 PUSH1 0x62 SHL PUSH1 0x44 DUP3 ADD MSTORE PUSH1 0x64 ADD PUSH2 0x453 JUMP JUMPDEST PUSH1 0x2 DUP2 ADD DUP1 SLOAD PUSH1 0xFF PUSH1 0xA0 SHL NOT AND PUSH1 0x3 PUSH1 0xA0 SHL OR SWAP1 SSTORE PUSH1 0x0 JUMPDEST PUSH1 0x6 DUP3 ADD SLOAD DUP2 LT ISZERO PUSH2 0xD56 JUMPI DUP2 PUSH1 0x3 ADD SLOAD PUSH1 0x2 PUSH1 0x0 DUP5 PUSH1 0x6 ADD DUP5 DUP2 SLOAD DUP2 LT PUSH2 0xD15 JUMPI PUSH2 0xD15 PUSH2 0x24F7 JUMP JUMPDEST PUSH1 0x0 SWAP2 DUP3 MSTORE PUSH1 0x20 DUP1 DUP4 KECCAK256 SWAP1 SWAP2 ADD SLOAD PUSH1 0x1 PUSH1 0x1 PUSH1 0xA0 SHL SUB AND DUP4 MSTORE DUP3 ADD SWAP3 SWAP1 SWAP3 MSTORE PUSH1 0x40 ADD DUP2 KECCAK256 DUP1 SLOAD SWAP1 SWAP2 SWAP1 PUSH2 0xD49 SWAP1 DUP5 SWAP1 PUSH2 0x26EC JUMP JUMPDEST SWAP1 SWAP2 SSTORE POP POP PUSH1 0x1 ADD PUSH2 0xCEB JUMP JUMPDEST POP PUSH1 0x40 MLOAD DUP4 DUP2 MSTORE PUSH32 0x8F1FFB72CF9E5ACC4EDDAFAB2BE9E2951D12377B9E1E4BDC7BD686B19C91FD89 SWAP1 PUSH1 0x20 ADD JUMPDEST PUSH1 0x40 MLOAD DUP1 SWAP2 SUB SWAP1 LOG1 POP POP POP JUMP JUMPDEST PUSH1 0x0 DUP3 DUP2 MSTORE PUSH1 0x1 PUSH1 0x20 MSTORE PUSH1 0x40 SWAP1 KECCAK256 PUSH1 0x2 ADD SLOAD DUP3 SWAP1 PUSH1 0x1 PUSH1 0x1 PUSH1 0xA0 SHL SUB AND CALLER EQ PUSH2 0xDCB JUMPI PUSH1 0x40 MLOAD PUSH3 0x461BCD PUSH1 0xE5 SHL DUP2 MSTORE PUSH1 0x4 ADD PUSH2 0x453 SWAP1 PUSH2 0x250D JUMP JUMPDEST PUSH1 0x0 DUP4 DUP2 MSTORE PUSH1 0x1 PUSH1 0x20 MSTORE PUSH1 0x40 SWAP1 KECCAK256 PUSH1 0x2 DUP1 DUP3 ADD SLOAD PUSH1 0x1 PUSH1 0xA0 SHL SWAP1 DIV PUSH1 0xFF AND PUSH1 0x5 DUP2 GT ISZERO PUSH2 0xDFA JUMPI PUSH2 0xDFA PUSH2 0x2071 JUMP JUMPDEST EQ PUSH2 0xE17 JUMPI PUSH1 0x40 MLOAD PUSH3 0x461BCD PUSH1 0xE5 SHL DUP2 MSTORE PUSH1 0x4 ADD PUSH2 0x453 SWAP1 PUSH2 0x2672 JUMP JUMPDEST PUSH1 0x2 DUP2 ADD DUP1 SLOAD PUSH1 0x4 SWAP2 SWAP1 PUSH1 0xFF PUSH1 0xA0 SHL NOT AND PUSH1 0x1 PUSH1 0xA0 SHL DUP4 MUL OR SWAP1 SSTORE POP PUSH1 0x4 DUP2 ADD SLOAD PUSH1 0x1 PUSH1 0x1 PUSH1 0xA0 SHL SUB DUP5 AND PUSH1 0x0 SWAP1 DUP2 MSTORE PUSH1 0x2 PUSH1 0x20 MSTORE PUSH1 0x40 DUP2 KECCAK256 DUP1 SLOAD SWAP1 SWAP2 SWAP1 PUSH2 0xE60 SWAP1 DUP5 SWAP1 PUSH2 0x26EC JUMP JUMPDEST SWAP1 SWAP2 SSTORE POP POP PUSH1 0x40 DUP1 MLOAD DUP6 DUP2 MSTORE PUSH1 0x1 PUSH1 0x1 PUSH1 0xA0 SHL SUB DUP6 AND PUSH1 0x20 DUP3 ADD MSTORE PUSH32 0x7F40DF5127524300187445E867486DA572AAB86769C0212E0B392BD87C4CA97F SWAP2 ADD PUSH1 0x40 MLOAD DUP1 SWAP2 SUB SWAP1 LOG1 POP POP POP POP JUMP JUMPDEST PUSH2 0xEB4 PUSH2 0x1F82 JUMP JUMPDEST PUSH1 0x0 DUP3 DUP2 MSTORE PUSH1 0x1 PUSH1 0x20 SWAP1 DUP2 MSTORE PUSH1 0x40 DUP1 DUP4 KECCAK256 CALLER DUP5 MSTORE PUSH1 0x8 DUP2 ADD DUP4 MSTORE DUP2 DUP5 KECCAK256 DUP1 SLOAD DUP4 MLOAD DUP2 DUP7 MUL DUP2 ADD DUP7 ADD SWAP1 SWAP5 MSTORE DUP1 DUP5 MSTORE SWAP2 SWAP5 SWAP4 SWAP1 SWAP2 SWAP1 DUP4 ADD DUP3 DUP3 DUP1 ISZERO PUSH2 0xF17 JUMPI PUSH1 0x20 MUL DUP3 ADD SWAP2 SWAP1 PUSH1 0x0 MSTORE PUSH1 0x20 PUSH1 0x0 KECCAK256 SWAP1 JUMPDEST DUP2 SLOAD DUP2 MSTORE PUSH1 0x20 ADD SWAP1 PUSH1 0x1 ADD SWAP1 DUP1 DUP4 GT PUSH2 0xF03 JUMPI JUMPDEST POP POP POP POP POP SWAP1 POP PUSH1 0x40 MLOAD DUP1 PUSH2 0x180 ADD PUSH1 0x40 MSTORE DUP1 DUP4 PUSH1 0x0 ADD SLOAD DUP2 MSTORE PUSH1 0x20 ADD DUP4 PUSH1 0x1 ADD DUP1 SLOAD PUSH2 0xF43 SWAP1 PUSH2 0x24C3 JUMP JUMPDEST DUP1 PUSH1 0x1F ADD PUSH1 0x20 DUP1 SWAP2 DIV MUL PUSH1 0x20 ADD PUSH1 0x40 MLOAD SWAP1 DUP2 ADD PUSH1 0x40 MSTORE DUP1 SWAP3 SWAP2 SWAP1 DUP2 DUP2 MSTORE PUSH1 0x20 ADD DUP3 DUP1 SLOAD PUSH2 0xF6F SWAP1 PUSH2 0x24C3 JUMP JUMPDEST DUP1 ISZERO PUSH2 0xFBC JUMPI DUP1 PUSH1 0x1F LT PUSH2 0xF91 JUMPI PUSH2 0x100 DUP1 DUP4 SLOAD DIV MUL DUP4 MSTORE SWAP2 PUSH1 0x20 ADD SWAP2 PUSH2 0xFBC JUMP JUMPDEST DUP3 ADD SWAP2 SWAP1 PUSH1 0x0 MSTORE PUSH1 0x20 PUSH1 0x0 KECCAK256 SWAP1 JUMPDEST DUP2 SLOAD DUP2 MSTORE SWAP1 PUSH1 0x1 ADD SWAP1 PUSH1 0x20 ADD DUP1 DUP4 GT PUSH2 0xF9F JUMPI DUP3 SWAP1 SUB PUSH1 0x1F AND DUP3 ADD SWAP2 JUMPDEST POP POP POP SWAP2 DUP4 MSTORE POP POP PUSH1 0x2 DUP5 ADD SLOAD PUSH1 0x1 PUSH1 0x1 PUSH1 0xA0 SHL SUB DUP2 AND PUSH1 0x20 DUP4 ADD MSTORE PUSH1 0x40 SWAP1 SWAP2 ADD SWAP1 PUSH1 0x1 PUSH1 0xA0 SHL SWAP1 DIV PUSH1 0xFF AND PUSH1 0x5 DUP2 GT ISZERO PUSH2 0xFF9 JUMPI PUSH2 0xFF9 PUSH2 0x2071 JUMP JUMPDEST DUP2 MSTORE PUSH1 0x20 ADD DUP4 PUSH1 0x3 ADD SLOAD DUP2 MSTORE PUSH1 0x20 ADD DUP4 PUSH1 0x4 ADD SLOAD DUP2 MSTORE PUSH1 0x20 ADD DUP4 PUSH1 0x5 ADD SLOAD DUP2 MSTORE PUSH1 0x20 ADD DUP4 PUSH1 0x6 ADD DUP1 SLOAD DUP1 PUSH1 0x20 MUL PUSH1 0x20 ADD PUSH1 0x40 MLOAD SWAP1 DUP2 ADD PUSH1 0x40 MSTORE DUP1 SWAP3 SWAP2 SWAP1 DUP2 DUP2 MSTORE PUSH1 0x20 ADD DUP3 DUP1 SLOAD DUP1 ISZERO PUSH2 0x1074 JUMPI PUSH1 0x20 MUL DUP3 ADD SWAP2 SWAP1 PUSH1 0x0 MSTORE PUSH1 0x20 PUSH1 0x0 KECCAK256 SWAP1 JUMPDEST DUP2 SLOAD PUSH1 0x1 PUSH1 0x1 PUSH1 0xA0 SHL SUB AND DUP2 MSTORE PUSH1 0x1 SWAP1 SWAP2 ADD SWAP1 PUSH1 0x20 ADD DUP1 DUP4 GT PUSH2 0x1056 JUMPI JUMPDEST POP POP POP POP POP DUP2 MSTORE PUSH1 0x20 ADD DUP4 PUSH1 0x7 ADD DUP1 SLOAD DUP1 PUSH1 0x20 MUL PUSH1 0x20 ADD PUSH1 0x40 MLOAD SWAP1 DUP2 ADD PUSH1 0x40 MSTORE DUP1 SWAP3 SWAP2 SWAP1 DUP2 DUP2 MSTORE PUSH1 0x20 ADD DUP3 DUP1 SLOAD DUP1 ISZERO PUSH2 0x10D6 JUMPI PUSH1 0x20 MUL DUP3 ADD SWAP2 SWAP1 PUSH1 0x0 MSTORE PUSH1 0x20 PUSH1 0x0 KECCAK256 SWAP1 JUMPDEST DUP2 SLOAD PUSH1 0x1 PUSH1 0x1 PUSH1 0xA0 SHL SUB AND DUP2 MSTORE PUSH1 0x1 SWAP1 SWAP2 ADD SWAP1 PUSH1 0x20 ADD DUP1 DUP4 GT PUSH2 0x10B8 JUMPI JUMPDEST POP POP POP POP POP DUP2 MSTORE PUSH1 0x20 ADD DUP4 PUSH1 0x9 ADD DUP1 SLOAD DUP1 PUSH1 0x20 MUL PUSH1 0x20 ADD PUSH1 0x40 MLOAD SWAP1 DUP2 ADD PUSH1 0x40 MSTORE DUP1 SWAP3 SWAP2 SWAP1 DUP2 DUP2 MSTORE PUSH1 0x20 ADD DUP3 DUP1 SLOAD DUP1 ISZERO PUSH2 0x112E JUMPI PUSH1 0x20 MUL DUP3 ADD SWAP2 SWAP1 PUSH1 0x0 MSTORE PUSH1 0x20 PUSH1 0x0 KECCAK256 SWAP1 JUMPDEST DUP2 SLOAD DUP2 MSTORE PUSH1 0x20 ADD SWAP1 PUSH1 0x1 ADD SWAP1 DUP1 DUP4 GT PUSH2 0x111A JUMPI JUMPDEST POP POP POP POP POP DUP2 MSTORE PUSH1 0x20 ADD DUP4 PUSH1 0xA ADD DUP1 SLOAD DUP1 PUSH1 0x20 MUL PUSH1 0x20 ADD PUSH1 0x40 MLOAD SWAP1 DUP2 ADD PUSH1 0x40 MSTORE DUP1 SWAP3 SWAP2 SWAP1 DUP2 DUP2 MSTORE PUSH1 0x20 ADD DUP3 DUP1 SLOAD DUP1 ISZERO PUSH2 0x1186 JUMPI PUSH1 0x20 MUL DUP3 ADD SWAP2 SWAP1 PUSH1 0x0 MSTORE PUSH1 0x20 PUSH1 0x0 KECCAK256 SWAP1 JUMPDEST DUP2 SLOAD DUP2 MSTORE PUSH1 0x20 ADD SWAP1 PUSH1 0x1 ADD SWAP1 DUP1 DUP4 GT PUSH2 0x1172 JUMPI JUMPDEST POP POP POP SWAP2 DUP4 MSTORE POP POP PUSH1 0x20 ADD SWAP2 SWAP1 SWAP2 MSTORE SWAP4 SWAP3 POP POP POP JUMP JUMPDEST DUP3 PUSH2 0x11A7 DUP2 CALLER PUSH2 0x1BFF JUMP JUMPDEST PUSH2 0x11E7 JUMPI PUSH1 0x40 MLOAD PUSH3 0x461BCD PUSH1 0xE5 SHL DUP2 MSTORE PUSH1 0x20 PUSH1 0x4 DUP3 ADD MSTORE PUSH1 0x11 PUSH1 0x24 DUP3 ADD MSTORE PUSH17 0x3737BA20B720B1BA34BB32A83630BCB2B9 PUSH1 0x79 SHL PUSH1 0x44 DUP3 ADD MSTORE PUSH1 0x64 ADD PUSH2 0x453 JUMP JUMPDEST PUSH1 0x0 DUP5 DUP2 MSTORE PUSH1 0x1 PUSH1 0x20 MSTORE PUSH1 0x40 SWAP1 KECCAK256 PUSH1 0x2 DUP1 DUP3 ADD SLOAD PUSH1 0x1 PUSH1 0xA0 SHL SWAP1 DIV PUSH1 0xFF AND PUSH1 0x5 DUP2 GT ISZERO PUSH2 0x1216 JUMPI PUSH2 0x1216 PUSH2 0x2071 JUMP JUMPDEST EQ PUSH2 0x1233 JUMPI PUSH1 0x40 MLOAD PUSH3 0x461BCD PUSH1 0xE5 SHL DUP2 MSTORE PUSH1 0x4 ADD PUSH2 0x453 SWAP1 PUSH2 0x2672 JUMP JUMPDEST PUSH1 0x0 DUP4 PUSH2 0x1241 DUP7 PUSH1 0xA PUSH2 0x26FF JUMP JUMPDEST PUSH2 0x124B SWAP2 SWAP1 PUSH2 0x26EC JUMP JUMPDEST CALLER PUSH1 0x0 SWAP1 DUP2 MSTORE PUSH1 0x8 DUP5 ADD PUSH1 0x20 MSTORE PUSH1 0x40 SWAP1 KECCAK256 SWAP1 SWAP2 POP PUSH2 0x1269 SWAP1 DUP3 PUSH2 0x1D26 JUMP JUMPDEST PUSH2 0x12B5 JUMPI PUSH1 0x40 MLOAD PUSH3 0x461BCD PUSH1 0xE5 SHL DUP2 MSTORE PUSH1 0x20 PUSH1 0x4 DUP3 ADD MSTORE PUSH1 0x19 PUSH1 0x24 DUP3 ADD MSTORE PUSH32 0x706C61796572446F65734E6F7448617665546865506965636500000000000000 PUSH1 0x44 DUP3 ADD MSTORE PUSH1 0x64 ADD PUSH2 0x453 JUMP JUMPDEST CALLER PUSH1 0x0 SWAP1 DUP2 MSTORE PUSH1 0x8 DUP4 ADD PUSH1 0x20 MSTORE PUSH1 0x40 SWAP1 KECCAK256 PUSH2 0x12D0 SWAP1 DUP3 PUSH2 0x1C74 JUMP JUMPDEST PUSH1 0xA DUP3 ADD DUP1 SLOAD PUSH1 0x1 DUP2 DUP2 ADD DUP4 SSTORE PUSH1 0x0 SWAP3 DUP4 MSTORE PUSH1 0x20 SWAP1 SWAP3 KECCAK256 ADD DUP3 SWAP1 SSTORE PUSH1 0x7 DUP4 ADD SLOAD PUSH1 0xB DUP5 ADD SLOAD SWAP1 SWAP2 PUSH2 0x1301 SWAP2 SWAP1 PUSH2 0x26EC JUMP JUMPDEST PUSH2 0x130B SWAP2 SWAP1 PUSH2 0x26C4 JUMP JUMPDEST PUSH1 0xB DUP4 ADD SSTORE PUSH1 0x40 DUP1 MLOAD DUP8 DUP2 MSTORE CALLER PUSH1 0x20 DUP3 ADD MSTORE SWAP1 DUP2 ADD DUP3 SWAP1 MSTORE PUSH32 0x953A0C0BAF4A6E0DC4E5E310567187C0E370783B04A1C4DDBE4E721C8AAC945C SWAP1 PUSH1 0x60 ADD PUSH1 0x40 MLOAD DUP1 SWAP2 SUB SWAP1 LOG1 POP POP POP POP POP POP JUMP JUMPDEST PUSH1 0x60 PUSH1 0x0 DUP1 SLOAD PUSH8 0xFFFFFFFFFFFFFFFF DUP2 GT ISZERO PUSH2 0x1376 JUMPI PUSH2 0x1376 PUSH2 0x21C3 JUMP JUMPDEST PUSH1 0x40 MLOAD SWAP1 DUP1 DUP3 MSTORE DUP1 PUSH1 0x20 MUL PUSH1 0x20 ADD DUP3 ADD PUSH1 0x40 MSTORE DUP1 ISZERO PUSH2 0x13AF JUMPI DUP2 PUSH1 0x20 ADD JUMPDEST PUSH2 0x139C PUSH2 0x1F82 JUMP JUMPDEST DUP2 MSTORE PUSH1 0x20 ADD SWAP1 PUSH1 0x1 SWAP1 SUB SWAP1 DUP2 PUSH2 0x1394 JUMPI SWAP1 POP JUMPDEST POP SWAP1 POP PUSH1 0x0 JUMPDEST PUSH1 0x0 SLOAD DUP2 LT ISZERO PUSH2 0x16C6 JUMPI PUSH1 0x0 DUP2 DUP2 MSTORE PUSH1 0x1 PUSH1 0x20 SWAP1 DUP2 MSTORE PUSH1 0x40 DUP1 DUP4 KECCAK256 CALLER DUP5 MSTORE PUSH1 0x8 DUP2 ADD DUP4 MSTORE DUP2 DUP5 KECCAK256 DUP1 SLOAD DUP4 MLOAD DUP2 DUP7 MUL DUP2 ADD DUP7 ADD SWAP1 SWAP5 MSTORE DUP1 DUP5 MSTORE SWAP2 SWAP5 SWAP4 SWAP1 SWAP2 SWAP1 DUP4 ADD DUP3 DUP3 DUP1 ISZERO PUSH2 0x1422 JUMPI PUSH1 0x20 MUL DUP3 ADD SWAP2 SWAP1 PUSH1 0x0 MSTORE PUSH1 0x20 PUSH1 0x0 KECCAK256 SWAP1 JUMPDEST DUP2 SLOAD DUP2 MSTORE PUSH1 0x20 ADD SWAP1 PUSH1 0x1 ADD SWAP1 DUP1 DUP4 GT PUSH2 0x140E JUMPI JUMPDEST POP POP POP POP POP SWAP1 POP PUSH1 0x40 MLOAD DUP1 PUSH2 0x180 ADD PUSH1 0x40 MSTORE DUP1 DUP4 PUSH1 0x0 ADD SLOAD DUP2 MSTORE PUSH1 0x20 ADD DUP4 PUSH1 0x1 ADD DUP1 SLOAD PUSH2 0x144E SWAP1 PUSH2 0x24C3 JUMP JUMPDEST DUP1 PUSH1 0x1F ADD PUSH1 0x20 DUP1 SWAP2 DIV MUL PUSH1 0x20 ADD PUSH1 0x40 MLOAD SWAP1 DUP2 ADD PUSH1 0x40 MSTORE DUP1 SWAP3 SWAP2 SWAP1 DUP2 DUP2 MSTORE PUSH1 0x20 ADD DUP3 DUP1 SLOAD PUSH2 0x147A SWAP1 PUSH2 0x24C3 JUMP JUMPDEST DUP1 ISZERO PUSH2 0x14C7 JUMPI DUP1 PUSH1 0x1F LT PUSH2 0x149C JUMPI PUSH2 0x100 DUP1 DUP4 SLOAD DIV MUL DUP4 MSTORE SWAP2 PUSH1 0x20 ADD SWAP2 PUSH2 0x14C7 JUMP JUMPDEST DUP3 ADD SWAP2 SWAP1 PUSH1 0x0 MSTORE PUSH1 0x20 PUSH1 0x0 KECCAK256 SWAP1 JUMPDEST DUP2 SLOAD DUP2 MSTORE SWAP1 PUSH1 0x1 ADD SWAP1 PUSH1 0x20 ADD DUP1 DUP4 GT PUSH2 0x14AA JUMPI DUP3 SWAP1 SUB PUSH1 0x1F AND DUP3 ADD SWAP2 JUMPDEST POP POP POP SWAP2 DUP4 MSTORE POP POP PUSH1 0x2 DUP5 ADD SLOAD PUSH1 0x1 PUSH1 0x1 PUSH1 0xA0 SHL SUB DUP2 AND PUSH1 0x20 DUP4 ADD MSTORE PUSH1 0x40 SWAP1 SWAP2 ADD SWAP1 PUSH1 0x1 PUSH1 0xA0 SHL SWAP1 DIV PUSH1 0xFF AND PUSH1 0x5 DUP2 GT ISZERO PUSH2 0x1504 JUMPI PUSH2 0x1504 PUSH2 0x2071 JUMP JUMPDEST DUP2 MSTORE PUSH1 0x20 ADD DUP4 PUSH1 0x3 ADD SLOAD DUP2 MSTORE PUSH1 0x20 ADD DUP4 PUSH1 0x4 ADD SLOAD DUP2 MSTORE PUSH1 0x20 ADD DUP4 PUSH1 0x5 ADD SLOAD DUP2 MSTORE PUSH1 0x20 ADD DUP4 PUSH1 0x6 ADD DUP1 SLOAD DUP1 PUSH1 0x20 MUL PUSH1 0x20 ADD PUSH1 0x40 MLOAD SWAP1 DUP2 ADD PUSH1 0x40 MSTORE DUP1 SWAP3 SWAP2 SWAP1 DUP2 DUP2 MSTORE PUSH1 0x20 ADD DUP3 DUP1 SLOAD DUP1 ISZERO PUSH2 0x157F JUMPI PUSH1 0x20 MUL DUP3 ADD SWAP2 SWAP1 PUSH1 0x0 MSTORE PUSH1 0x20 PUSH1 0x0 KECCAK256 SWAP1 JUMPDEST DUP2 SLOAD PUSH1 0x1 PUSH1 0x1 PUSH1 0xA0 SHL SUB AND DUP2 MSTORE PUSH1 0x1 SWAP1 SWAP2 ADD SWAP1 PUSH1 0x20 ADD DUP1 DUP4 GT PUSH2 0x1561 JUMPI JUMPDEST POP POP POP POP POP DUP2 MSTORE PUSH1 0x20 ADD DUP4 PUSH1 0x7 ADD DUP1 SLOAD DUP1 PUSH1 0x20 MUL PUSH1 0x20 ADD PUSH1 0x40 MLOAD SWAP1 DUP2 ADD PUSH1 0x40 MSTORE DUP1 SWAP3 SWAP2 SWAP1 DUP2 DUP2 MSTORE PUSH1 0x20 ADD DUP3 DUP1 SLOAD DUP1 ISZERO PUSH2 0x15E1 JUMPI PUSH1 0x20 MUL DUP3 ADD SWAP2 SWAP1 PUSH1 0x0 MSTORE PUSH1 0x20 PUSH1 0x0 KECCAK256 SWAP1 JUMPDEST DUP2 SLOAD PUSH1 0x1 PUSH1 0x1 PUSH1 0xA0 SHL SUB AND DUP2 MSTORE PUSH1 0x1 SWAP1 SWAP2 ADD SWAP1 PUSH1 0x20 ADD DUP1 DUP4 GT PUSH2 0x15C3 JUMPI JUMPDEST POP POP POP POP POP DUP2 MSTORE PUSH1 0x20 ADD DUP4 PUSH1 0x9 ADD DUP1 SLOAD DUP1 PUSH1 0x20 MUL PUSH1 0x20 ADD PUSH1 0x40 MLOAD SWAP1 DUP2 ADD PUSH1 0x40 MSTORE DUP1 SWAP3 SWAP2 SWAP1 DUP2 DUP2 MSTORE PUSH1 0x20 ADD DUP3 DUP1 SLOAD DUP1 ISZERO PUSH2 0x1639 JUMPI PUSH1 0x20 MUL DUP3 ADD SWAP2 SWAP1 PUSH1 0x0 MSTORE PUSH1 0x20 PUSH1 0x0 KECCAK256 SWAP1 JUMPDEST DUP2 SLOAD DUP2 MSTORE PUSH1 0x20 ADD SWAP1 PUSH1 0x1 ADD SWAP1 DUP1 DUP4 GT PUSH2 0x1625 JUMPI JUMPDEST POP POP POP POP POP DUP2 MSTORE PUSH1 0x20 ADD DUP4 PUSH1 0xA ADD DUP1 SLOAD DUP1 PUSH1 0x20 MUL PUSH1 0x20 ADD PUSH1 0x40 MLOAD SWAP1 DUP2 ADD PUSH1 0x40 MSTORE DUP1 SWAP3 SWAP2 SWAP1 DUP2 DUP2 MSTORE PUSH1 0x20 ADD DUP3 DUP1 SLOAD DUP1 ISZERO PUSH2 0x1691 JUMPI PUSH1 0x20 MUL DUP3 ADD SWAP2 SWAP1 PUSH1 0x0 MSTORE PUSH1 0x20 PUSH1 0x0 KECCAK256 SWAP1 JUMPDEST DUP2 SLOAD DUP2 MSTORE PUSH1 0x20 ADD SWAP1 PUSH1 0x1 ADD SWAP1 DUP1 DUP4 GT PUSH2 0x167D JUMPI JUMPDEST POP POP POP POP POP DUP2 MSTORE PUSH1 0x20 ADD DUP3 DUP2 MSTORE POP DUP5 DUP5 DUP2 MLOAD DUP2 LT PUSH2 0x16B1 JUMPI PUSH2 0x16B1 PUSH2 0x24F7 JUMP JUMPDEST PUSH1 0x20 SWAP1 DUP2 MUL SWAP2 SWAP1 SWAP2 ADD ADD MSTORE POP POP PUSH1 0x1 ADD PUSH2 0x13B5 JUMP JUMPDEST POP SWAP2 SWAP1 POP JUMP JUMPDEST PUSH1 0x0 DUP2 DUP2 MSTORE PUSH1 0x1 PUSH1 0x20 MSTORE PUSH1 0x40 SWAP1 KECCAK256 PUSH1 0x2 ADD SLOAD DUP2 SWAP1 PUSH1 0x1 PUSH1 0x1 PUSH1 0xA0 SHL SUB AND CALLER EQ PUSH2 0x1707 JUMPI PUSH1 0x40 MLOAD PUSH3 0x461BCD PUSH1 0xE5 SHL DUP2 MSTORE PUSH1 0x4 ADD PUSH2 0x453 SWAP1 PUSH2 0x250D JUMP JUMPDEST PUSH1 0x0 DUP3 DUP2 MSTORE PUSH1 0x1 PUSH1 0x20 MSTORE PUSH1 0x40 SWAP1 KECCAK256 PUSH1 0x6 DUP2 ADD SLOAD PUSH1 0x2 GT ISZERO PUSH2 0x175D JUMPI PUSH1 0x40 MLOAD PUSH3 0x461BCD PUSH1 0xE5 SHL DUP2 MSTORE PUSH1 0x20 PUSH1 0x4 DUP3 ADD MSTORE PUSH1 0x10 PUSH1 0x24 DUP3 ADD MSTORE PUSH16 0x6E6F74456E6F756768506C6179657273 PUSH1 0x80 SHL PUSH1 0x44 DUP3 ADD MSTORE PUSH1 0x64 ADD PUSH2 0x453 JUMP JUMPDEST PUSH1 0x1 PUSH1 0x2 DUP3 ADD SLOAD PUSH1 0x1 PUSH1 0xA0 SHL SWAP1 DIV PUSH1 0xFF AND PUSH1 0x5 DUP2 GT ISZERO PUSH2 0x177F JUMPI PUSH2 0x177F PUSH2 0x2071 JUMP JUMPDEST EQ PUSH2 0x17C2 JUMPI PUSH1 0x40 MLOAD PUSH3 0x461BCD PUSH1 0xE5 SHL DUP2 MSTORE PUSH1 0x20 PUSH1 0x4 DUP3 ADD MSTORE PUSH1 0x13 PUSH1 0x24 DUP3 ADD MSTORE PUSH19 0x19D85B59539BDD149958591E551BD4DD185C9D PUSH1 0x6A SHL PUSH1 0x44 DUP3 ADD MSTORE PUSH1 0x64 ADD PUSH2 0x453 JUMP JUMPDEST PUSH2 0x17CA PUSH2 0x1D72 JUMP JUMPDEST DUP1 MLOAD PUSH2 0x17E0 SWAP2 PUSH1 0x9 DUP5 ADD SWAP2 PUSH1 0x20 SWAP1 SWAP2 ADD SWAP1 PUSH2 0x1F37 JUMP JUMPDEST POP PUSH2 0x17ED DUP2 PUSH1 0x9 ADD PUSH2 0x1E1F JUMP JUMPDEST PUSH1 0x0 JUMPDEST PUSH1 0x6 DUP3 ADD SLOAD DUP2 LT ISZERO PUSH2 0x18D4 JUMPI PUSH1 0x0 JUMPDEST PUSH1 0x6 DUP2 GT PUSH2 0x18CB JUMPI PUSH1 0x9 DUP4 ADD DUP1 SLOAD PUSH1 0x0 SWAP2 SWAP1 PUSH2 0x181D SWAP1 PUSH1 0x1 SWAP1 PUSH2 0x269B JUMP JUMPDEST DUP2 SLOAD DUP2 LT PUSH2 0x182D JUMPI PUSH2 0x182D PUSH2 0x24F7 JUMP JUMPDEST SWAP1 PUSH1 0x0 MSTORE PUSH1 0x20 PUSH1 0x0 KECCAK256 ADD SLOAD SWAP1 POP DUP4 PUSH1 0x8 ADD PUSH1 0x0 DUP6 PUSH1 0x6 ADD DUP6 DUP2 SLOAD DUP2 LT PUSH2 0x1855 JUMPI PUSH2 0x1855 PUSH2 0x24F7 JUMP JUMPDEST PUSH1 0x0 SWAP2 DUP3 MSTORE PUSH1 0x20 DUP1 DUP4 KECCAK256 SWAP1 SWAP2 ADD SLOAD PUSH1 0x1 PUSH1 0x1 PUSH1 0xA0 SHL SUB AND DUP4 MSTORE DUP3 DUP2 ADD SWAP4 SWAP1 SWAP4 MSTORE PUSH1 0x40 SWAP1 SWAP2 ADD DUP2 KECCAK256 DUP1 SLOAD PUSH1 0x1 DUP2 ADD DUP3 SSTORE SWAP1 DUP3 MSTORE SWAP2 SWAP1 KECCAK256 ADD DUP2 SWAP1 SSTORE PUSH1 0x9 DUP5 ADD DUP1 SLOAD DUP1 PUSH2 0x18A1 JUMPI PUSH2 0x18A1 PUSH2 0x2716 JUMP JUMPDEST PUSH1 0x1 SWAP1 SUB DUP2 DUP2 SWAP1 PUSH1 0x0 MSTORE PUSH1 0x20 PUSH1 0x0 KECCAK256 ADD PUSH1 0x0 SWAP1 SSTORE SWAP1 SSTORE POP DUP1 DUP1 PUSH2 0x18C3 SWAP1 PUSH2 0x2659 JUMP JUMPDEST SWAP2 POP POP PUSH2 0x17FF JUMP JUMPDEST POP PUSH1 0x1 ADD PUSH2 0x17F0 JUMP JUMPDEST POP PUSH1 0x2 DUP2 ADD DUP1 SLOAD PUSH1 0xFF PUSH1 0xA0 SHL NOT AND PUSH1 0x1 PUSH1 0xA1 SHL OR SWAP1 SSTORE PUSH1 0x0 PUSH1 0xB DUP3 ADD SSTORE PUSH1 0x40 MLOAD DUP4 DUP2 MSTORE PUSH32 0x50AD08F58A27F2851D7E3A1B3A6A46B290F2CE677E99642D30FF639721E77790 SWAP1 PUSH1 0x20 ADD PUSH2 0xD83 JUMP JUMPDEST PUSH1 0x0 DUP2 DUP2 MSTORE PUSH1 0x1 PUSH1 0x20 MSTORE PUSH1 0x40 DUP2 KECCAK256 SWAP1 PUSH1 0x2 DUP3 ADD SLOAD PUSH1 0x1 PUSH1 0xA0 SHL SWAP1 DIV PUSH1 0xFF AND PUSH1 0x5 DUP2 GT ISZERO PUSH2 0x1950 JUMPI PUSH2 0x1950 PUSH2 0x2071 JUMP JUMPDEST EQ DUP1 PUSH2 0x197B JUMPI POP PUSH1 0x1 PUSH1 0x2 DUP3 ADD SLOAD PUSH1 0x1 PUSH1 0xA0 SHL SWAP1 DIV PUSH1 0xFF AND PUSH1 0x5 DUP2 GT ISZERO PUSH2 0x1979 JUMPI PUSH2 0x1979 PUSH2 0x2071 JUMP JUMPDEST EQ JUMPDEST PUSH2 0x19C7 JUMPI PUSH1 0x40 MLOAD PUSH3 0x461BCD PUSH1 0xE5 SHL DUP2 MSTORE PUSH1 0x20 PUSH1 0x4 DUP3 ADD MSTORE PUSH1 0x17 PUSH1 0x24 DUP3 ADD MSTORE PUSH32 0x67616D654E6F74416363657074696E67506C6179657273000000000000000000 PUSH1 0x44 DUP3 ADD MSTORE PUSH1 0x64 ADD PUSH2 0x453 JUMP JUMPDEST DUP1 PUSH1 0x3 ADD SLOAD CALLVALUE EQ PUSH2 0x1A0E JUMPI PUSH1 0x40 MLOAD PUSH3 0x461BCD PUSH1 0xE5 SHL DUP2 MSTORE PUSH1 0x20 PUSH1 0x4 DUP3 ADD MSTORE PUSH1 0x11 PUSH1 0x24 DUP3 ADD MSTORE PUSH17 0x696E636F7272656374456E747279466565 PUSH1 0x78 SHL PUSH1 0x44 DUP3 ADD MSTORE PUSH1 0x64 ADD PUSH2 0x453 JUMP JUMPDEST PUSH1 0x5 DUP2 ADD SLOAD PUSH1 0x6 DUP3 ADD SLOAD LT PUSH2 0x1A52 JUMPI PUSH1 0x40 MLOAD PUSH3 0x461BCD PUSH1 0xE5 SHL DUP2 MSTORE PUSH1 0x20 PUSH1 0x4 DUP3 ADD MSTORE PUSH1 0xA PUSH1 0x24 DUP3 ADD MSTORE PUSH10 0x19D85B59525CD19D5B1B PUSH1 0xB2 SHL PUSH1 0x44 DUP3 ADD MSTORE PUSH1 0x64 ADD PUSH2 0x453 JUMP JUMPDEST PUSH1 0x6 DUP2 ADD DUP1 SLOAD PUSH1 0x1 DUP1 DUP3 ADD DUP4 SSTORE PUSH1 0x0 SWAP3 DUP4 MSTORE PUSH1 0x20 DUP1 DUP5 KECCAK256 SWAP1 SWAP3 ADD DUP1 SLOAD CALLER PUSH1 0x1 PUSH1 0x1 PUSH1 0xA0 SHL SUB NOT SWAP2 DUP3 AND DUP2 OR SWAP1 SWAP3 SSTORE PUSH1 0x7 DUP7 ADD DUP1 SLOAD SWAP4 DUP5 ADD DUP2 SSTORE DUP6 MSTORE SWAP3 DUP5 KECCAK256 SWAP1 SWAP2 ADD DUP1 SLOAD SWAP1 SWAP3 AND OR SWAP1 SSTORE PUSH1 0x4 DUP3 ADD DUP1 SLOAD CALLVALUE SWAP3 SWAP1 PUSH2 0x1AAF SWAP1 DUP5 SWAP1 PUSH2 0x26EC JUMP JUMPDEST SWAP1 SWAP2 SSTORE POP POP PUSH1 0x40 DUP1 MLOAD DUP4 DUP2 MSTORE CALLER PUSH1 0x20 DUP3 ADD MSTORE PUSH32 0x87969BC7FAF902221A147B95CEBA76E011C5EFB0339A0A8EE7A2BB82D9CFBBD6 SWAP2 ADD PUSH1 0x40 MLOAD DUP1 SWAP2 SUB SWAP1 LOG1 POP POP JUMP JUMPDEST PUSH1 0x0 DUP2 DUP2 MSTORE PUSH1 0x1 PUSH1 0x20 MSTORE PUSH1 0x40 SWAP1 KECCAK256 PUSH1 0x2 ADD SLOAD DUP2 SWAP1 PUSH1 0x1 PUSH1 0x1 PUSH1 0xA0 SHL SUB AND CALLER EQ PUSH2 0x1B2B JUMPI PUSH1 0x40 MLOAD PUSH3 0x461BCD PUSH1 0xE5 SHL DUP2 MSTORE PUSH1 0x4 ADD PUSH2 0x453 SWAP1 PUSH2 0x250D JUMP JUMPDEST PUSH1 0x0 DUP3 DUP2 MSTORE PUSH1 0x1 PUSH1 0x20 MSTORE PUSH1 0x40 DUP2 KECCAK256 SWAP1 PUSH1 0x2 DUP3 ADD SLOAD PUSH1 0x1 PUSH1 0xA0 SHL SWAP1 DIV PUSH1 0xFF AND PUSH1 0x5 DUP2 GT ISZERO PUSH2 0x1B5A JUMPI PUSH2 0x1B5A PUSH2 0x2071 JUMP JUMPDEST EQ PUSH2 0x1B9C JUMPI PUSH1 0x40 MLOAD PUSH3 0x461BCD PUSH1 0xE5 SHL DUP2 MSTORE PUSH1 0x20 PUSH1 0x4 DUP3 ADD MSTORE PUSH1 0x12 PUSH1 0x24 DUP3 ADD MSTORE PUSH18 0x19D85B59505B1C9958591E54DD185C9D1959 PUSH1 0x72 SHL PUSH1 0x44 DUP3 ADD MSTORE PUSH1 0x64 ADD PUSH2 0x453 JUMP JUMPDEST PUSH1 0x6 DUP2 ADD SLOAD PUSH1 0x1 LT PUSH2 0x1BE3 JUMPI PUSH1 0x40 MLOAD PUSH3 0x461BCD PUSH1 0xE5 SHL DUP2 MSTORE PUSH1 0x20 PUSH1 0x4 DUP3 ADD MSTORE PUSH1 0x10 PUSH1 0x24 DUP3 ADD MSTORE PUSH16 0x6E6F74456E6F756768506C6179657273 PUSH1 0x80 SHL PUSH1 0x44 DUP3 ADD MSTORE PUSH1 0x64 ADD PUSH2 0x453 JUMP JUMPDEST PUSH1 0x2 DUP2 ADD DUP1 SLOAD PUSH1 0x1 SWAP2 SWAP1 PUSH1 0xFF PUSH1 0xA0 SHL NOT AND PUSH1 0x1 PUSH1 0xA0 SHL DUP4 PUSH2 0x688 JUMP JUMPDEST PUSH1 0x0 DUP3 DUP2 MSTORE PUSH1 0x1 PUSH1 0x20 MSTORE PUSH1 0x40 DUP2 KECCAK256 DUP2 JUMPDEST PUSH1 0x7 DUP3 ADD SLOAD DUP2 LT ISZERO PUSH2 0x1C67 JUMPI DUP4 PUSH1 0x1 PUSH1 0x1 PUSH1 0xA0 SHL SUB AND DUP3 PUSH1 0x7 ADD DUP3 DUP2 SLOAD DUP2 LT PUSH2 0x1C3A JUMPI PUSH2 0x1C3A PUSH2 0x24F7 JUMP JUMPDEST PUSH1 0x0 SWAP2 DUP3 MSTORE PUSH1 0x20 SWAP1 SWAP2 KECCAK256 ADD SLOAD PUSH1 0x1 PUSH1 0x1 PUSH1 0xA0 SHL SUB AND SUB PUSH2 0x1C5F JUMPI PUSH1 0x1 SWAP3 POP POP POP PUSH2 0x1C6E JUMP JUMPDEST PUSH1 0x1 ADD PUSH2 0x1C0F JUMP JUMPDEST POP PUSH1 0x0 SWAP2 POP POP JUMPDEST SWAP3 SWAP2 POP POP JUMP JUMPDEST PUSH1 0x0 JUMPDEST DUP3 SLOAD DUP2 LT ISZERO PUSH2 0x1D21 JUMPI DUP2 DUP4 DUP3 DUP2 SLOAD DUP2 LT PUSH2 0x1C93 JUMPI PUSH2 0x1C93 PUSH2 0x24F7 JUMP JUMPDEST SWAP1 PUSH1 0x0 MSTORE PUSH1 0x20 PUSH1 0x0 KECCAK256 ADD SLOAD SUB PUSH2 0x1D19 JUMPI DUP3 SLOAD DUP4 SWAP1 PUSH2 0x1CB3 SWAP1 PUSH1 0x1 SWAP1 PUSH2 0x269B JUMP JUMPDEST DUP2 SLOAD DUP2 LT PUSH2 0x1CC3 JUMPI PUSH2 0x1CC3 PUSH2 0x24F7 JUMP JUMPDEST SWAP1 PUSH1 0x0 MSTORE PUSH1 0x20 PUSH1 0x0 KECCAK256 ADD SLOAD DUP4 DUP3 DUP2 SLOAD DUP2 LT PUSH2 0x1CE0 JUMPI PUSH2 0x1CE0 PUSH2 0x24F7 JUMP JUMPDEST SWAP1 PUSH1 0x0 MSTORE PUSH1 0x20 PUSH1 0x0 KECCAK256 ADD DUP2 SWAP1 SSTORE POP DUP3 DUP1 SLOAD DUP1 PUSH2 0x1CFE JUMPI PUSH2 0x1CFE PUSH2 0x2716 JUMP JUMPDEST PUSH1 0x1 SWAP1 SUB DUP2 DUP2 SWAP1 PUSH1 0x0 MSTORE PUSH1 0x20 PUSH1 0x0 KECCAK256 ADD PUSH1 0x0 SWAP1 SSTORE SWAP1 SSTORE POP POP POP JUMP JUMPDEST PUSH1 0x1 ADD PUSH2 0x1C77 JUMP JUMPDEST POP POP POP JUMP JUMPDEST PUSH1 0x0 DUP1 JUMPDEST DUP4 SLOAD DUP2 LT ISZERO PUSH2 0x1D68 JUMPI DUP3 DUP5 DUP3 DUP2 SLOAD DUP2 LT PUSH2 0x1D46 JUMPI PUSH2 0x1D46 PUSH2 0x24F7 JUMP JUMPDEST SWAP1 PUSH1 0x0 MSTORE PUSH1 0x20 PUSH1 0x0 KECCAK256 ADD SLOAD SUB PUSH2 0x1D60 JUMPI PUSH1 0x1 SWAP2 POP POP PUSH2 0x1C6E JUMP JUMPDEST PUSH1 0x1 ADD PUSH2 0x1D2A JUMP JUMPDEST POP PUSH1 0x0 SWAP4 SWAP3 POP POP POP JUMP JUMPDEST PUSH1 0x40 DUP1 MLOAD PUSH1 0x1C DUP1 DUP3 MSTORE PUSH2 0x3A0 DUP3 ADD SWAP1 SWAP3 MSTORE PUSH1 0x60 SWAP2 PUSH1 0x0 SWAP2 SWAP1 PUSH1 0x20 DUP3 ADD PUSH2 0x380 DUP1 CALLDATASIZE DUP4 CALLDATACOPY ADD SWAP1 POP POP SWAP1 POP PUSH1 0x0 DUP1 JUMPDEST PUSH1 0x6 DUP2 GT PUSH2 0x1E17 JUMPI DUP1 JUMPDEST PUSH1 0x6 DUP2 GT PUSH2 0x1E04 JUMPI DUP1 PUSH2 0x1DBD DUP4 PUSH1 0xA PUSH2 0x26FF JUMP JUMPDEST PUSH2 0x1DC7 SWAP2 SWAP1 PUSH2 0x26EC JUMP JUMPDEST DUP5 DUP5 DUP2 MLOAD DUP2 LT PUSH2 0x1DD9 JUMPI PUSH2 0x1DD9 PUSH2 0x24F7 JUMP JUMPDEST PUSH1 0x20 SWAP1 DUP2 MUL SWAP2 SWAP1 SWAP2 ADD ADD MSTORE DUP3 PUSH2 0x1DEE DUP2 PUSH2 0x2659 JUMP JUMPDEST SWAP4 POP POP DUP1 DUP1 PUSH2 0x1DFC SWAP1 PUSH2 0x2659 JUMP JUMPDEST SWAP2 POP POP PUSH2 0x1DA9 JUMP JUMPDEST POP DUP1 PUSH2 0x1E0F DUP2 PUSH2 0x2659 JUMP JUMPDEST SWAP2 POP POP PUSH2 0x1D9F JUMP JUMPDEST POP SWAP1 SWAP3 SWAP2 POP POP JUMP JUMPDEST PUSH1 0x0 JUMPDEST DUP2 SLOAD DUP2 LT ISZERO PUSH2 0x720 JUMPI DUP2 SLOAD PUSH1 0x0 SWAP1 PUSH2 0x1E3B SWAP1 DUP4 SWAP1 PUSH2 0x269B JUMP JUMPDEST PUSH1 0x40 DUP1 MLOAD TIMESTAMP PUSH1 0x20 DUP3 ADD MSTORE PREVRANDAO SWAP2 DUP2 ADD SWAP2 SWAP1 SWAP2 MSTORE PUSH1 0x60 ADD PUSH1 0x40 MLOAD PUSH1 0x20 DUP2 DUP4 SUB SUB DUP2 MSTORE SWAP1 PUSH1 0x40 MSTORE DUP1 MLOAD SWAP1 PUSH1 0x20 ADD KECCAK256 PUSH1 0x0 SHR PUSH2 0x1E73 SWAP2 SWAP1 PUSH2 0x26C4 JUMP JUMPDEST PUSH2 0x1E7D SWAP1 DUP4 PUSH2 0x26EC JUMP JUMPDEST SWAP1 POP PUSH1 0x0 DUP4 DUP3 DUP2 SLOAD DUP2 LT PUSH2 0x1E93 JUMPI PUSH2 0x1E93 PUSH2 0x24F7 JUMP JUMPDEST SWAP1 PUSH1 0x0 MSTORE PUSH1 0x20 PUSH1 0x0 KECCAK256 ADD SLOAD SWAP1 POP DUP4 DUP4 DUP2 SLOAD DUP2 LT PUSH2 0x1EB2 JUMPI PUSH2 0x1EB2 PUSH2 0x24F7 JUMP JUMPDEST SWAP1 PUSH1 0x0 MSTORE PUSH1 0x20 PUSH1 0x0 KECCAK256 ADD SLOAD DUP5 DUP4 DUP2 SLOAD DUP2 LT PUSH2 0x1ECF JUMPI PUSH2 0x1ECF PUSH2 0x24F7 JUMP JUMPDEST SWAP1 PUSH1 0x0 MSTORE PUSH1 0x20 PUSH1 0x0 KECCAK256 ADD DUP2 SWAP1 SSTORE POP DUP1 DUP5 DUP5 DUP2 SLOAD DUP2 LT PUSH2 0x1EF0 JUMPI PUSH2 0x1EF0 PUSH2 0x24F7 JUMP JUMPDEST PUSH1 0x0 SWAP2 DUP3 MSTORE PUSH1 0x20 SWAP1 SWAP2 KECCAK256 ADD SSTORE POP POP PUSH1 0x1 ADD PUSH2 0x1E22 JUMP JUMPDEST PUSH1 0x40 MLOAD DUP1 PUSH1 0x60 ADD PUSH1 0x40 MSTORE DUP1 PUSH1 0x0 DUP2 MSTORE PUSH1 0x20 ADD PUSH1 0x60 DUP2 MSTORE PUSH1 0x20 ADD PUSH1 0x0 PUSH1 0x5 DUP2 GT ISZERO PUSH2 0x1F32 JUMPI PUSH2 0x1F32 PUSH2 0x2071 JUMP JUMPDEST SWAP1 MSTORE SWAP1 JUMP JUMPDEST DUP3 DUP1 SLOAD DUP3 DUP3 SSTORE SWAP1 PUSH1 0x0 MSTORE PUSH1 0x20 PUSH1 0x0 KECCAK256 SWAP1 DUP2 ADD SWAP3 DUP3 ISZERO PUSH2 0x1F72 JUMPI SWAP2 PUSH1 0x20 MUL DUP3 ADD JUMPDEST DUP3 DUP2 GT ISZERO PUSH2 0x1F72 JUMPI DUP3 MLOAD DUP3 SSTORE SWAP2 PUSH1 0x20 ADD SWAP2 SWAP1 PUSH1 0x1 ADD SWAP1 PUSH2 0x1F57 JUMP JUMPDEST POP PUSH2 0x1F7E SWAP3 SWAP2 POP PUSH2 0x1FFD JUMP JUMPDEST POP SWAP1 JUMP JUMPDEST PUSH1 0x40 MLOAD DUP1 PUSH2 0x180 ADD PUSH1 0x40 MSTORE DUP1 PUSH1 0x0 DUP2 MSTORE PUSH1 0x20 ADD PUSH1 0x60 DUP2 MSTORE PUSH1 0x20 ADD PUSH1 0x0 PUSH1 0x1 PUSH1 0x1 PUSH1 0xA0 SHL SUB AND DUP2 MSTORE PUSH1 0x20 ADD PUSH1 0x0 PUSH1 0x5 DUP2 GT ISZERO PUSH2 0x1FBF JUMPI PUSH2 0x1FBF PUSH2 0x2071 JUMP JUMPDEST DUP2 MSTORE PUSH1 0x20 ADD PUSH1 0x0 DUP2 MSTORE PUSH1 0x20 ADD PUSH1 0x0 DUP2 MSTORE PUSH1 0x20 ADD PUSH1 0x0 DUP2 MSTORE PUSH1 0x20 ADD PUSH1 0x60 DUP2 MSTORE PUSH1 0x20 ADD PUSH1 0x60 DUP2 MSTORE PUSH1 0x20 ADD PUSH1 0x60 DUP2 MSTORE PUSH1 0x20 ADD PUSH1 0x60 DUP2 MSTORE PUSH1 0x20 ADD PUSH1 0x60 DUP2 MSTORE POP SWAP1 JUMP JUMPDEST JUMPDEST DUP1 DUP3 GT ISZERO PUSH2 0x1F7E JUMPI PUSH1 0x0 DUP2 SSTORE PUSH1 0x1 ADD PUSH2 0x1FFE JUMP JUMPDEST PUSH1 0x0 PUSH1 0x20 DUP3 DUP5 SUB SLT ISZERO PUSH2 0x2024 JUMPI PUSH1 0x0 DUP1 REVERT JUMPDEST POP CALLDATALOAD SWAP2 SWAP1 POP JUMP JUMPDEST PUSH1 0x0 DUP2 MLOAD DUP1 DUP5 MSTORE PUSH1 0x0 JUMPDEST DUP2 DUP2 LT ISZERO PUSH2 0x2051 JUMPI PUSH1 0x20 DUP2 DUP6 ADD DUP2 ADD MLOAD DUP7 DUP4 ADD DUP3 ADD MSTORE ADD PUSH2 0x2035 JUMP JUMPDEST POP PUSH1 0x0 PUSH1 0x20 DUP3 DUP7 ADD ADD MSTORE PUSH1 0x20 PUSH1 0x1F NOT PUSH1 0x1F DUP4 ADD AND DUP6 ADD ADD SWAP2 POP POP SWAP3 SWAP2 POP POP JUMP JUMPDEST PUSH4 0x4E487B71 PUSH1 0xE0 SHL PUSH1 0x0 MSTORE PUSH1 0x21 PUSH1 0x4 MSTORE PUSH1 0x24 PUSH1 0x0 REVERT JUMPDEST PUSH1 0x6 DUP2 LT PUSH2 0x20A5 JUMPI PUSH4 0x4E487B71 PUSH1 0xE0 SHL PUSH1 0x0 MSTORE PUSH1 0x21 PUSH1 0x4 MSTORE PUSH1 0x24 PUSH1 0x0 REVERT JUMPDEST SWAP1 MSTORE JUMP JUMPDEST DUP9 DUP2 MSTORE PUSH2 0x100 PUSH1 0x20 DUP3 ADD MSTORE PUSH1 0x0 PUSH2 0x20C4 PUSH2 0x100 DUP4 ADD DUP11 PUSH2 0x202B JUMP JUMPDEST PUSH1 0x1 PUSH1 0x1 PUSH1 0xA0 SHL SUB DUP10 AND PUSH1 0x40 DUP5 ADD MSTORE SWAP1 POP PUSH2 0x20E2 PUSH1 0x60 DUP4 ADD DUP9 PUSH2 0x2087 JUMP JUMPDEST DUP6 PUSH1 0x80 DUP4 ADD MSTORE DUP5 PUSH1 0xA0 DUP4 ADD MSTORE DUP4 PUSH1 0xC0 DUP4 ADD MSTORE DUP3 PUSH1 0xE0 DUP4 ADD MSTORE SWAP10 SWAP9 POP POP POP POP POP POP POP POP POP JUMP JUMPDEST PUSH1 0x0 DUP2 MLOAD DUP1 DUP5 MSTORE PUSH1 0x20 DUP5 ADD SWAP4 POP PUSH1 0x20 DUP4 ADD PUSH1 0x0 JUMPDEST DUP3 DUP2 LT ISZERO PUSH2 0x2139 JUMPI DUP2 MLOAD DUP7 MSTORE PUSH1 0x20 SWAP6 DUP7 ADD SWAP6 SWAP1 SWAP2 ADD SWAP1 PUSH1 0x1 ADD PUSH2 0x211B JUMP JUMPDEST POP SWAP4 SWAP5 SWAP4 POP POP POP POP JUMP JUMPDEST PUSH1 0x20 DUP2 MSTORE DUP2 MLOAD PUSH1 0x20 DUP3 ADD MSTORE PUSH1 0x0 PUSH1 0x20 DUP4 ADD MLOAD PUSH1 0x60 PUSH1 0x40 DUP5 ADD MSTORE PUSH2 0x2169 PUSH1 0x80 DUP5 ADD DUP3 PUSH2 0x2107 JUMP JUMPDEST SWAP1 POP PUSH1 0x40 DUP5 ADD MLOAD PUSH2 0x217D PUSH1 0x60 DUP6 ADD DUP3 PUSH2 0x2087 JUMP JUMPDEST POP SWAP4 SWAP3 POP POP POP JUMP JUMPDEST DUP1 CALLDATALOAD PUSH1 0x1 PUSH1 0x1 PUSH1 0xA0 SHL SUB DUP2 AND DUP2 EQ PUSH2 0x219C JUMPI PUSH1 0x0 DUP1 REVERT JUMPDEST SWAP2 SWAP1 POP JUMP JUMPDEST PUSH1 0x0 PUSH1 0x20 DUP3 DUP5 SUB SLT ISZERO PUSH2 0x21B3 JUMPI PUSH1 0x0 DUP1 REVERT JUMPDEST PUSH2 0x21BC DUP3 PUSH2 0x2185 JUMP JUMPDEST SWAP4 SWAP3 POP POP POP JUMP JUMPDEST PUSH4 0x4E487B71 PUSH1 0xE0 SHL PUSH1 0x0 MSTORE PUSH1 0x41 PUSH1 0x4 MSTORE PUSH1 0x24 PUSH1 0x0 REVERT JUMPDEST DUP1 CALLDATALOAD DUP1 ISZERO ISZERO DUP2 EQ PUSH2 0x219C JUMPI PUSH1 0x0 DUP1 REVERT JUMPDEST PUSH1 0x0 DUP1 PUSH1 0x0 PUSH1 0x60 DUP5 DUP7 SUB SLT ISZERO PUSH2 0x21FE JUMPI PUSH1 0x0 DUP1 REVERT JUMPDEST DUP4 CALLDATALOAD PUSH8 0xFFFFFFFFFFFFFFFF DUP2 GT ISZERO PUSH2 0x2215 JUMPI PUSH1 0x0 DUP1 REVERT JUMPDEST DUP5 ADD PUSH1 0x1F DUP2 ADD DUP7 SGT PUSH2 0x2226 JUMPI PUSH1 0x0 DUP1 REVERT JUMPDEST DUP1 CALLDATALOAD PUSH8 0xFFFFFFFFFFFFFFFF DUP2 GT ISZERO PUSH2 0x2240 JUMPI PUSH2 0x2240 PUSH2 0x21C3 JUMP JUMPDEST PUSH1 0x40 MLOAD PUSH1 0x1F DUP3 ADD PUSH1 0x1F NOT SWAP1 DUP2 AND PUSH1 0x3F ADD AND DUP2 ADD PUSH8 0xFFFFFFFFFFFFFFFF DUP2 GT DUP3 DUP3 LT OR ISZERO PUSH2 0x226F JUMPI PUSH2 0x226F PUSH2 0x21C3 JUMP JUMPDEST PUSH1 0x40 MSTORE DUP2 DUP2 MSTORE DUP3 DUP3 ADD PUSH1 0x20 ADD DUP9 LT ISZERO PUSH2 0x2287 JUMPI PUSH1 0x0 DUP1 REVERT JUMPDEST DUP2 PUSH1 0x20 DUP5 ADD PUSH1 0x20 DUP4 ADD CALLDATACOPY PUSH1 0x0 PUSH1 0x20 SWAP3 DUP3 ADD DUP4 ADD MSTORE SWAP5 POP DUP6 ADD CALLDATALOAD SWAP3 POP PUSH2 0x22B0 SWAP1 POP PUSH1 0x40 DUP6 ADD PUSH2 0x21D9 JUMP JUMPDEST SWAP1 POP SWAP3 POP SWAP3 POP SWAP3 JUMP JUMPDEST PUSH1 0x0 DUP1 PUSH1 0x40 DUP4 DUP6 SUB SLT ISZERO PUSH2 0x22CC JUMPI PUSH1 0x0 DUP1 REVERT JUMPDEST DUP3 CALLDATALOAD SWAP2 POP PUSH2 0x22DC PUSH1 0x20 DUP5 ADD PUSH2 0x2185 JUMP JUMPDEST SWAP1 POP SWAP3 POP SWAP3 SWAP1 POP JUMP JUMPDEST PUSH1 0x0 DUP2 MLOAD DUP1 DUP5 MSTORE PUSH1 0x20 DUP5 ADD SWAP4 POP PUSH1 0x20 DUP4 ADD PUSH1 0x0 JUMPDEST DUP3 DUP2 LT ISZERO PUSH2 0x2139 JUMPI DUP2 MLOAD PUSH1 0x1 PUSH1 0x1 PUSH1 0xA0 SHL SUB AND DUP7 MSTORE PUSH1 0x20 SWAP6 DUP7 ADD SWAP6 SWAP1 SWAP2 ADD SWAP1 PUSH1 0x1 ADD PUSH2 0x22F9 JUMP JUMPDEST DUP1 MLOAD DUP3 MSTORE PUSH1 0x0 PUSH1 0x20 DUP3 ADD MLOAD PUSH2 0x180 PUSH1 0x20 DUP6 ADD MSTORE PUSH2 0x2341 PUSH2 0x180 DUP6 ADD DUP3 PUSH2 0x202B JUMP JUMPDEST SWAP1 POP PUSH1 0x40 DUP4 ADD MLOAD PUSH2 0x235D PUSH1 0x40 DUP7 ADD DUP3 PUSH1 0x1 PUSH1 0x1 PUSH1 0xA0 SHL SUB AND SWAP1 MSTORE JUMP JUMPDEST POP PUSH1 0x60 DUP4 ADD MLOAD PUSH2 0x2370 PUSH1 0x60 DUP7 ADD DUP3 PUSH2 0x2087 JUMP JUMPDEST POP PUSH1 0x80 DUP4 ADD MLOAD PUSH1 0x80 DUP6 ADD MSTORE PUSH1 0xA0 DUP4 ADD MLOAD PUSH1 0xA0 DUP6 ADD MSTORE PUSH1 0xC0 DUP4 ADD MLOAD PUSH1 0xC0 DUP6 ADD MSTORE PUSH1 0xE0 DUP4 ADD MLOAD DUP5 DUP3 SUB PUSH1 0xE0 DUP7 ADD MSTORE PUSH2 0x23A6 DUP3 DUP3 PUSH2 0x22E5 JUMP JUMPDEST SWAP2 POP POP PUSH2 0x100 DUP4 ADD MLOAD DUP5 DUP3 SUB PUSH2 0x100 DUP7 ADD MSTORE PUSH2 0x23C2 DUP3 DUP3 PUSH2 0x22E5 JUMP JUMPDEST SWAP2 POP POP PUSH2 0x120 DUP4 ADD MLOAD DUP5 DUP3 SUB PUSH2 0x120 DUP7 ADD MSTORE PUSH2 0x23DE DUP3 DUP3 PUSH2 0x2107 JUMP JUMPDEST SWAP2 POP POP PUSH2 0x140 DUP4 ADD MLOAD DUP5 DUP3 SUB PUSH2 0x140 DUP7 ADD MSTORE PUSH2 0x23FA DUP3 DUP3 PUSH2 0x2107 JUMP JUMPDEST SWAP2 POP POP PUSH2 0x160 DUP4 ADD MLOAD DUP5 DUP3 SUB PUSH2 0x160 DUP7 ADD MSTORE PUSH2 0x2416 DUP3 DUP3 PUSH2 0x2107 JUMP JUMPDEST SWAP6 SWAP5 POP POP POP POP POP JUMP JUMPDEST PUSH1 0x20 DUP2 MSTORE PUSH1 0x0 PUSH2 0x21BC PUSH1 0x20 DUP4 ADD DUP5 PUSH2 0x2320 JUMP JUMPDEST PUSH1 0x0 DUP1 PUSH1 0x0 PUSH1 0x60 DUP5 DUP7 SUB SLT ISZERO PUSH2 0x2447 JUMPI PUSH1 0x0 DUP1 REVERT JUMPDEST POP POP DUP2 CALLDATALOAD SWAP4 PUSH1 0x20 DUP4 ADD CALLDATALOAD SWAP4 POP PUSH1 0x40 SWAP1 SWAP3 ADD CALLDATALOAD SWAP2 SWAP1 POP JUMP JUMPDEST PUSH1 0x0 PUSH1 0x20 DUP3 ADD PUSH1 0x20 DUP4 MSTORE DUP1 DUP5 MLOAD DUP1 DUP4 MSTORE PUSH1 0x40 DUP6 ADD SWAP2 POP PUSH1 0x40 DUP2 PUSH1 0x5 SHL DUP7 ADD ADD SWAP3 POP PUSH1 0x20 DUP7 ADD PUSH1 0x0 JUMPDEST DUP3 DUP2 LT ISZERO PUSH2 0x24B7 JUMPI PUSH1 0x3F NOT DUP8 DUP7 SUB ADD DUP5 MSTORE PUSH2 0x24A2 DUP6 DUP4 MLOAD PUSH2 0x2320 JUMP JUMPDEST SWAP5 POP PUSH1 0x20 SWAP4 DUP5 ADD SWAP4 SWAP2 SWAP1 SWAP2 ADD SWAP1 PUSH1 0x1 ADD PUSH2 0x2486 JUMP JUMPDEST POP SWAP3 SWAP7 SWAP6 POP POP POP POP POP POP JUMP JUMPDEST PUSH1 0x1 DUP2 DUP2 SHR SWAP1 DUP3 AND DUP1 PUSH2 0x24D7 JUMPI PUSH1 0x7F DUP3 AND SWAP2 POP JUMPDEST PUSH1 0x20 DUP3 LT DUP2 SUB PUSH2 0x16C6 JUMPI PUSH4 0x4E487B71 PUSH1 0xE0 SHL PUSH1 0x0 MSTORE PUSH1 0x22 PUSH1 0x4 MSTORE PUSH1 0x24 PUSH1 0x0 REVERT JUMPDEST PUSH4 0x4E487B71 PUSH1 0xE0 SHL PUSH1 0x0 MSTORE PUSH1 0x32 PUSH1 0x4 MSTORE PUSH1 0x24 PUSH1 0x0 REVERT JUMPDEST PUSH1 0x20 DUP1 DUP3 MSTORE PUSH1 0xF SWAP1 DUP3 ADD MSTORE PUSH15 0x3737BA2A3432A3B0B6B2A7BBB732B9 PUSH1 0x89 SHL PUSH1 0x40 DUP3 ADD MSTORE PUSH1 0x60 ADD SWAP1 JUMP JUMPDEST PUSH1 0x1F DUP3 GT ISZERO PUSH2 0x1D21 JUMPI DUP1 PUSH1 0x0 MSTORE PUSH1 0x20 PUSH1 0x0 KECCAK256 PUSH1 0x1F DUP5 ADD PUSH1 0x5 SHR DUP2 ADD PUSH1 0x20 DUP6 LT ISZERO PUSH2 0x255D JUMPI POP DUP1 JUMPDEST PUSH1 0x1F DUP5 ADD PUSH1 0x5 SHR DUP3 ADD SWAP2 POP JUMPDEST DUP2 DUP2 LT ISZERO PUSH2 0x257D JUMPI PUSH1 0x0 DUP2 SSTORE PUSH1 0x1 ADD PUSH2 0x2569 JUMP JUMPDEST POP POP POP POP POP JUMP JUMPDEST DUP2 MLOAD PUSH8 0xFFFFFFFFFFFFFFFF DUP2 GT ISZERO PUSH2 0x259E JUMPI PUSH2 0x259E PUSH2 0x21C3 JUMP JUMPDEST PUSH2 0x25B2 DUP2 PUSH2 0x25AC DUP5 SLOAD PUSH2 0x24C3 JUMP JUMPDEST DUP5 PUSH2 0x2536 JUMP JUMPDEST PUSH1 0x20 PUSH1 0x1F DUP3 GT PUSH1 0x1 DUP2 EQ PUSH2 0x25E6 JUMPI PUSH1 0x0 DUP4 ISZERO PUSH2 0x25CE JUMPI POP DUP5 DUP3 ADD MLOAD JUMPDEST PUSH1 0x0 NOT PUSH1 0x3 DUP6 SWAP1 SHL SHR NOT AND PUSH1 0x1 DUP5 SWAP1 SHL OR DUP5 SSTORE PUSH2 0x257D JUMP JUMPDEST PUSH1 0x0 DUP5 DUP2 MSTORE PUSH1 0x20 DUP2 KECCAK256 PUSH1 0x1F NOT DUP6 AND SWAP2 JUMPDEST DUP3 DUP2 LT ISZERO PUSH2 0x2616 JUMPI DUP8 DUP6 ADD MLOAD DUP3 SSTORE PUSH1 0x20 SWAP5 DUP6 ADD SWAP5 PUSH1 0x1 SWAP1 SWAP3 ADD SWAP2 ADD PUSH2 0x25F6 JUMP JUMPDEST POP DUP5 DUP3 LT ISZERO PUSH2 0x2634 JUMPI DUP7 DUP5 ADD MLOAD PUSH1 0x0 NOT PUSH1 0x3 DUP8 SWAP1 SHL PUSH1 0xF8 AND SHR NOT AND DUP2 SSTORE JUMPDEST POP POP POP POP PUSH1 0x1 SWAP1 DUP2 SHL ADD SWAP1 SSTORE POP JUMP JUMPDEST PUSH4 0x4E487B71 PUSH1 0xE0 SHL PUSH1 0x0 MSTORE PUSH1 0x11 PUSH1 0x4 MSTORE PUSH1 0x24 PUSH1 0x0 REVERT JUMPDEST PUSH1 0x0 PUSH1 0x1 DUP3 ADD PUSH2 0x266B JUMPI PUSH2 0x266B PUSH2 0x2643 JUMP JUMPDEST POP PUSH1 0x1 ADD SWAP1 JUMP JUMPDEST PUSH1 0x20 DUP1 DUP3 MSTORE PUSH1 0xF SWAP1 DUP3 ADD MSTORE PUSH15 0x67616D6549734E6F74416374697665 PUSH1 0x88 SHL PUSH1 0x40 DUP3 ADD MSTORE PUSH1 0x60 ADD SWAP1 JUMP JUMPDEST DUP2 DUP2 SUB DUP2 DUP2 GT ISZERO PUSH2 0x1C6E JUMPI PUSH2 0x1C6E PUSH2 0x2643 JUMP JUMPDEST PUSH4 0x4E487B71 PUSH1 0xE0 SHL PUSH1 0x0 MSTORE PUSH1 0x12 PUSH1 0x4 MSTORE PUSH1 0x24 PUSH1 0x0 REVERT JUMPDEST PUSH1 0x0 DUP3 PUSH2 0x26D3 JUMPI PUSH2 0x26D3 PUSH2 0x26AE JUMP JUMPDEST POP MOD SWAP1 JUMP JUMPDEST PUSH1 0x0 DUP3 PUSH2 0x26E7 JUMPI PUSH2 0x26E7 PUSH2 0x26AE JUMP JUMPDEST POP DIV SWAP1 JUMP JUMPDEST DUP1 DUP3 ADD DUP1 DUP3 GT ISZERO PUSH2 0x1C6E JUMPI PUSH2 0x1C6E PUSH2 0x2643 JUMP JUMPDEST DUP1 DUP3 MUL DUP2 ISZERO DUP3 DUP3 DIV DUP5 EQ OR PUSH2 0x1C6E JUMPI PUSH2 0x1C6E PUSH2 0x2643 JUMP JUMPDEST PUSH4 0x4E487B71 PUSH1 0xE0 SHL PUSH1 0x0 MSTORE PUSH1 0x31 PUSH1 0x4 MSTORE PUSH1 0x24 PUSH1 0x0 REVERT INVALID LOG2 PUSH5 0x6970667358 0x22 SLT KECCAK256 0xDD GT DUP2 SWAP1 DUP16 DELEGATECALL 0xA5 GAS 0xF 0xB5 SSTORE 0xAE 0xED 0xE5 PUSH18 0x47FBC0D95DB36D1D6AB5A28EEB2FA1687B64 PUSH20 0x6F6C634300081C00330000000000000000000000 "},"methodIdentifiers":{"balances(address)":"27e235e3","cancelGame(uint256)":"69958ab9","cancelRequestStartGame(uint256)":"27c46aaa","createGame(string,uint256,bool)":"43dbf0ef","endGame(uint256,address)":"86514131","gameCounter()":"2e0be39a","games(uint256)":"117a5b90","getAllGames()":"db1c45f9","getCurrentPlayer(uint256)":"26638631","getGame(uint256)":"a2f77bcc","joinGame(uint256)":"efaa55a0","makeAutomaticMove(uint256)":"5491d468","makeMove(uint256,uint256,uint256)":"cfc2f5ff","requestStartGame(uint256)":"f052eb00","startGame(uint256)":"e5ed1d59","withdraw()":"3ccfd60b"}}}}}