{
  "_format": "hh-sol-artifact-1",
  "contractName": "DominoGame",
  "sourceName": "blockchain/contracts/game.sol",
  "abi": [
    {
      "anonymous": false,
      "inputs": [
        {
          "indexed": false,
          "internalType": "uint256",
          "name": "gameId",
          "type": "uint256"
        }
      ],
      "name": "GameCanceled",
      "type": "event"
    },
    {
      "anonymous": false,
      "inputs": [
        {
          "indexed": false,
          "internalType": "uint256",
          "name": "gameId",
          "type": "uint256"
        },
        {
          "indexed": false,
          "internalType": "address",
          "name": "winner",
          "type": "address"
        }
      ],
      "name": "GameCompleted",
      "type": "event"
    },
    {
      "anonymous": false,
      "inputs": [
        {
          "indexed": false,
          "internalType": "uint256",
          "name": "gameId",
          "type": "uint256"
        },
        {
          "indexed": false,
          "internalType": "address",
          "name": "owner",
          "type": "address"
        },
        {
          "indexed": false,
          "internalType": "uint256",
          "name": "entryFee",
          "type": "uint256"
        }
      ],
      "name": "GameCreated",
      "type": "event"
    },
    {
      "anonymous": false,
      "inputs": [
        {
          "indexed": false,
          "internalType": "uint256",
          "name": "gameId",
          "type": "uint256"
        }
      ],
      "name": "GameDraw",
      "type": "event"
    },
    {
      "anonymous": false,
      "inputs": [
        {
          "indexed": false,
          "internalType": "uint256",
          "name": "gameId",
          "type": "uint256"
        }
      ],
      "name": "GameStarted",
      "type": "event"
    },
    {
      "anonymous": false,
      "inputs": [
        {
          "indexed": false,
          "internalType": "uint256",
          "name": "gameId",
          "type": "uint256"
        },
        {
          "indexed": false,
          "internalType": "address",
          "name": "player",
          "type": "address"
        }
      ],
      "name": "PlayerJoined",
      "type": "event"
    },
    {
      "anonymous": false,
      "inputs": [
        {
          "indexed": false,
          "internalType": "uint256",
          "name": "gameId",
          "type": "uint256"
        },
        {
          "indexed": false,
          "internalType": "address",
          "name": "player",
          "type": "address"
        },
        {
          "indexed": false,
          "internalType": "uint256",
          "name": "piece",
          "type": "uint256"
        }
      ],
      "name": "PlayerMoved",
      "type": "event"
    },
    {
      "inputs": [
        {
          "internalType": "address",
          "name": "",
          "type": "address"
        }
      ],
      "name": "balances",
      "outputs": [
        {
          "internalType": "uint256",
          "name": "",
          "type": "uint256"
        }
      ],
      "stateMutability": "view",
      "type": "function"
    },
    {
      "inputs": [
        {
          "internalType": "uint256",
          "name": "gameId",
          "type": "uint256"
        }
      ],
      "name": "cancelGame",
      "outputs": [],
      "stateMutability": "nonpayable",
      "type": "function"
    },
    {
      "inputs": [
        {
          "internalType": "string",
          "name": "name",
          "type": "string"
        },
        {
          "internalType": "uint256",
          "name": "entryFee",
          "type": "uint256"
        },
        {
          "internalType": "bool",
          "name": "isPlayer",
          "type": "bool"
        }
      ],
      "name": "createGame",
      "outputs": [],
      "stateMutability": "payable",
      "type": "function"
    },
    {
      "inputs": [],
      "name": "gameCounter",
      "outputs": [
        {
          "internalType": "uint256",
          "name": "",
          "type": "uint256"
        }
      ],
      "stateMutability": "view",
      "type": "function"
    },
    {
      "inputs": [
        {
          "internalType": "uint256",
          "name": "",
          "type": "uint256"
        }
      ],
      "name": "games",
      "outputs": [
        {
          "internalType": "uint256",
          "name": "id",
          "type": "uint256"
        },
        {
          "internalType": "string",
          "name": "name",
          "type": "string"
        },
        {
          "internalType": "address",
          "name": "owner",
          "type": "address"
        },
        {
          "internalType": "address",
          "name": "winner",
          "type": "address"
        },
        {
          "internalType": "enum DominoGame.GameStatus",
          "name": "status",
          "type": "uint8"
        },
        {
          "internalType": "uint256",
          "name": "entryFee",
          "type": "uint256"
        },
        {
          "internalType": "uint256",
          "name": "prizePool",
          "type": "uint256"
        },
        {
          "internalType": "uint256",
          "name": "maxPlayers",
          "type": "uint256"
        },
        {
          "internalType": "uint256",
          "name": "currentPlayerIndex",
          "type": "uint256"
        }
      ],
      "stateMutability": "view",
      "type": "function"
    },
    {
      "inputs": [],
      "name": "getAllGames",
      "outputs": [
        {
          "components": [
            {
              "internalType": "uint256",
              "name": "id",
              "type": "uint256"
            },
            {
              "internalType": "string",
              "name": "name",
              "type": "string"
            },
            {
              "internalType": "address",
              "name": "owner",
              "type": "address"
            },
            {
              "internalType": "address",
              "name": "winner",
              "type": "address"
            },
            {
              "internalType": "enum DominoGame.GameStatus",
              "name": "status",
              "type": "uint8"
            },
            {
              "internalType": "uint256",
              "name": "entryFee",
              "type": "uint256"
            },
            {
              "internalType": "uint256",
              "name": "prizePool",
              "type": "uint256"
            },
            {
              "internalType": "uint256",
              "name": "maxPlayers",
              "type": "uint256"
            },
            {
              "components": [
                {
                  "internalType": "uint256",
                  "name": "index",
                  "type": "uint256"
                },
                {
                  "internalType": "address",
                  "name": "playerAddress",
                  "type": "address"
                },
                {
                  "internalType": "uint256",
                  "name": "deckCount",
                  "type": "uint256"
                }
              ],
              "internalType": "struct DominoGame.GamePlayer[]",
              "name": "players",
              "type": "tuple[]"
            },
            {
              "components": [
                {
                  "internalType": "uint256",
                  "name": "index",
                  "type": "uint256"
                },
                {
                  "internalType": "address",
                  "name": "playerAddress",
                  "type": "address"
                },
                {
                  "internalType": "uint256",
                  "name": "deckCount",
                  "type": "uint256"
                }
              ],
              "internalType": "struct DominoGame.GamePlayer[]",
              "name": "activePlayers",
              "type": "tuple[]"
            },
            {
              "internalType": "uint256[]",
              "name": "gameDeck",
              "type": "uint256[]"
            },
            {
              "internalType": "uint256[]",
              "name": "boardDeck",
              "type": "uint256[]"
            },
            {
              "internalType": "uint256[]",
              "name": "playerDeck",
              "type": "uint256[]"
            }
          ],
          "internalType": "struct DominoGame.GameResponse[]",
          "name": "",
          "type": "tuple[]"
        }
      ],
      "stateMutability": "view",
      "type": "function"
    },
    {
      "inputs": [
        {
          "internalType": "uint256",
          "name": "gameId",
          "type": "uint256"
        }
      ],
      "name": "getGame",
      "outputs": [
        {
          "components": [
            {
              "internalType": "uint256",
              "name": "id",
              "type": "uint256"
            },
            {
              "internalType": "string",
              "name": "name",
              "type": "string"
            },
            {
              "internalType": "address",
              "name": "owner",
              "type": "address"
            },
            {
              "internalType": "address",
              "name": "winner",
              "type": "address"
            },
            {
              "internalType": "enum DominoGame.GameStatus",
              "name": "status",
              "type": "uint8"
            },
            {
              "internalType": "uint256",
              "name": "entryFee",
              "type": "uint256"
            },
            {
              "internalType": "uint256",
              "name": "prizePool",
              "type": "uint256"
            },
            {
              "internalType": "uint256",
              "name": "maxPlayers",
              "type": "uint256"
            },
            {
              "components": [
                {
                  "internalType": "uint256",
                  "name": "index",
                  "type": "uint256"
                },
                {
                  "internalType": "address",
                  "name": "playerAddress",
                  "type": "address"
                },
                {
                  "internalType": "uint256",
                  "name": "deckCount",
                  "type": "uint256"
                }
              ],
              "internalType": "struct DominoGame.GamePlayer[]",
              "name": "players",
              "type": "tuple[]"
            },
            {
              "components": [
                {
                  "internalType": "uint256",
                  "name": "index",
                  "type": "uint256"
                },
                {
                  "internalType": "address",
                  "name": "playerAddress",
                  "type": "address"
                },
                {
                  "internalType": "uint256",
                  "name": "deckCount",
                  "type": "uint256"
                }
              ],
              "internalType": "struct DominoGame.GamePlayer[]",
              "name": "activePlayers",
              "type": "tuple[]"
            },
            {
              "internalType": "uint256[]",
              "name": "gameDeck",
              "type": "uint256[]"
            },
            {
              "internalType": "uint256[]",
              "name": "boardDeck",
              "type": "uint256[]"
            },
            {
              "internalType": "uint256[]",
              "name": "playerDeck",
              "type": "uint256[]"
            }
          ],
          "internalType": "struct DominoGame.GameResponse",
          "name": "",
          "type": "tuple"
        }
      ],
      "stateMutability": "view",
      "type": "function"
    },
    {
      "inputs": [
        {
          "internalType": "uint256",
          "name": "gameId",
          "type": "uint256"
        }
      ],
      "name": "joinGame",
      "outputs": [],
      "stateMutability": "payable",
      "type": "function"
    },
    {
      "inputs": [
        {
          "internalType": "uint256",
          "name": "gameId",
          "type": "uint256"
        },
        {
          "internalType": "uint256",
          "name": "left",
          "type": "uint256"
        },
        {
          "internalType": "uint256",
          "name": "right",
          "type": "uint256"
        }
      ],
      "name": "makeMove",
      "outputs": [],
      "stateMutability": "nonpayable",
      "type": "function"
    },
    {
      "inputs": [
        {
          "internalType": "uint256",
          "name": "gameId",
          "type": "uint256"
        }
      ],
      "name": "startGame",
      "outputs": [],
      "stateMutability": "nonpayable",
      "type": "function"
    },
    {
      "inputs": [],
      "name": "withdraw",
      "outputs": [],
      "stateMutability": "nonpayable",
      "type": "function"
    }
  ],
  "bytecode": "0x6080604052348015600f57600080fd5b506120118061001f6000396000f3fe60806040526004361061009c5760003560e01c806369958ab91161006457806369958ab91461015a578063a2f77bcc1461017a578063cfc2f5ff146101a7578063db1c45f9146101c7578063e5ed1d59146101e9578063efaa55a01461020957600080fd5b8063117a5b90146100a157806327e235e3146100df5780632e0be39a1461011a5780633ccfd60b1461013057806343dbf0ef14610147575b600080fd5b3480156100ad57600080fd5b506100c16100bc36600461194a565b61021c565b6040516100d6999897969594939291906119e1565b60405180910390f35b3480156100eb57600080fd5b5061010c6100fa366004611a49565b60026020526000908152604090205481565b6040519081526020016100d6565b34801561012657600080fd5b5061010c60005481565b34801561013c57600080fd5b506101456102ff565b005b610145610155366004611aa4565b610396565b34801561016657600080fd5b5061014561017536600461194a565b610464565b34801561018657600080fd5b5061019a61019536600461194a565b61061e565b6040516100d69190611d20565b3480156101b357600080fd5b506101456101c2366004611d33565b610635565b3480156101d357600080fd5b506101dc610860565b6040516100d69190611d5f565b3480156101f557600080fd5b5061014561020436600461194a565b61090a565b61014561021736600461194a565b610b81565b60016020819052600091825260409091208054918101805461023d90611dc4565b80601f016020809104026020016040519081016040528092919081815260200182805461026990611dc4565b80156102b65780601f1061028b576101008083540402835291602001916102b6565b820191906000526020600020905b81548152906001019060200180831161029957829003601f168201915b5050505060028301546003840154600485015460058601546006870154600c9097015495966001600160a01b03948516969484169550600160a01b90930460ff16939192909189565b33600090815260026020526040902054806103575760405162461bcd60e51b81526020600482015260136024820152726e6f42616c616e6365546f576974686472617760681b60448201526064015b60405180910390fd5b336000818152600260205260408082208290555183156108fc0291849190818181858888f19350505050158015610392573d6000803e3d6000fd5b5050565b600080548082526001602081905260409092209081559081016103b98582611e46565b50600460068201556002810180546001600160a01b031916331790556003810180546000919060ff60a01b1916600160a01b8302179055506004810183905580546040805191825233602083015281018490527f7dfb67e9ff596fca4da65c7eedb128cd1aac553af54b3c0cb733625a2480d8bd9060600160405180910390a1811561044a57805461044a90610b81565b60008054908061045983611f1b565b919050555050505050565b60008181526001602052604090206002015481906001600160a01b031633146104c15760405162461bcd60e51b815260206004820152600f60248201526e3737ba2a3432a3b0b6b2a7bbb732b960891b604482015260640161034e565b6000828152600160205260409020600380820154600160a01b900460ff1660048111156104f0576104f06119a9565b1415801561051e575060046003820154600160a01b900460ff16600481111561051b5761051b6119a9565b14155b6105615760405162461bcd60e51b815260206004820152601460248201527319d85b59505b1c9958591e519a5b985b1a5e995960621b604482015260640161034e565b60038101805460ff60a01b1916600160a11b17905560005b60078201548110156105e4578160040154600260008460070184815481106105a3576105a3611f34565b60009182526020808320909101546001600160a01b03168352820192909252604001812080549091906105d7908490611f4a565b9091555050600101610579565b506040518381527f8f1ffb72cf9e5acc4eddafab2be9e2951d12377b9e1e4bdc7bd686b19c91fd89906020015b60405180910390a1505050565b610626611881565b61062f82610db6565b92915050565b826106408133611111565b6106805760405162461bcd60e51b81526020600482015260116024820152703737ba20b720b1ba34bb32a83630bcb2b960791b604482015260640161034e565b6000848152600160208190526040909120906003820154600160a01b900460ff1660048111156106b2576106b26119a9565b146106f15760405162461bcd60e51b815260206004820152600f60248201526e67616d6549734e6f7441637469766560881b604482015260640161034e565b6000836106ff86600a611f5d565b6107099190611f4a565b33600090815260098401602052604090209091506107279082611184565b6107735760405162461bcd60e51b815260206004820152601960248201527f706c61796572446f65734e6f7448617665546865506965636500000000000000604482015260640161034e565b336000908152600983016020526040902061078e90826111d0565b600b8201805460018101825560009182526020808320909101839055338252600984019052604081205490036107cf576107c88633611282565b505061085a565b60006107da83611381565b9050806107f2576107ea876114f4565b50505061085a565b6008830154600c840154610807906001611f4a565b6108119190611f8a565b600c840155604080518881523360208201529081018390527f953a0c0baf4a6e0dc4e5e310567187c0e370783b04a1c4ddbe4e721c8aac945c9060600160405180910390a15050505b50505050565b60606000805467ffffffffffffffff81111561087e5761087e611a79565b6040519080825280602002602001820160405280156108b757816020015b6108a4611881565b81526020019060019003908161089c5790505b50905060005b600054811015610904576000818152600160205260409020546108df90610db6565b8282815181106108f1576108f1611f34565b60209081029190910101526001016108bd565b50919050565b60008181526001602052604090206002015481906001600160a01b031633146109675760405162461bcd60e51b815260206004820152600f60248201526e3737ba2a3432a3b0b6b2a7bbb732b960891b604482015260640161034e565b60008281526001602052604090206007810154600211156109bd5760405162461bcd60e51b815260206004820152601060248201526f6e6f74456e6f756768506c617965727360801b604482015260640161034e565b60006003820154600160a01b900460ff1660048111156109df576109df6119a9565b14610a225760405162461bcd60e51b815260206004820152601360248201527219d85b59539bdd149958591e551bd4dd185c9d606a1b604482015260640161034e565b610a2a6115b5565b8051610a4091600a8401916020909101906118ea565b50610a4d81600a01611662565b60005b6007820154811015610b345760005b60068111610b2b57600a8301805460009190610a7d90600190611f9e565b81548110610a8d57610a8d611f34565b90600052602060002001549050836009016000856007018581548110610ab557610ab5611f34565b60009182526020808320909101546001600160a01b031683528281019390935260409091018120805460018101825590825291902001819055600a8401805480610b0157610b01611fb1565b60019003818190600052602060002001600090559055508080610b2390611f1b565b915050610a5f565b50600101610a50565b5060038101805460ff60a01b1916600160a01b1790556000600c8201556040518381527f50ad08f58a27f2851d7e3a1b3a6a46b290f2ce677e99642d30ff639721e7779090602001610611565b6000818152600160205260408120906003820154600160a01b900460ff166004811115610bb057610bb06119a9565b14610bfd5760405162461bcd60e51b815260206004820152601760248201527f67616d654e6f74416363657074696e67506c6179657273000000000000000000604482015260640161034e565b80600401543414610c445760405162461bcd60e51b8152602060048201526011602482015270696e636f7272656374456e74727946656560781b604482015260640161034e565b6006810154600782015410610c885760405162461bcd60e51b815260206004820152600a60248201526919d85b59525cd19d5b1b60b21b604482015260640161034e565b60005b6007820154811015610d1657336001600160a01b0316826007018281548110610cb657610cb6611f34565b6000918252602090912001546001600160a01b031603610d0e5760405162461bcd60e51b8152602060048201526013602482015272706c61796572416c7265616479496e47616d6560681b604482015260640161034e565b600101610c8b565b5060078101805460018082018355600092835260208084209092018054336001600160a01b03199182168117909255600886018054938401815585529284209091018054909216179055600582018054349290610d74908490611f4a565b9091555050604080518381523360208201527f87969bc7faf902221a147b95ceba76e011c5efb0339a0a8ee7a2bb82d9cfbbd691015b60405180910390a15050565b610dbe611881565b600082815260016020526040902060028101546001600160a01b0316610e155760405162461bcd60e51b815260206004820152600c60248201526b19d85b59539bdd119bdd5b9960a21b604482015260640161034e565b336000908152600982016020908152604080832080548251818502810185019093528083529192909190830182828015610e6e57602002820191906000526020600020905b815481526020019060010190808311610e5a575b50505050509050604051806101a0016040528083600001548152602001836001018054610e9a90611dc4565b80601f0160208091040260200160405190810160405280929190818152602001828054610ec690611dc4565b8015610f135780601f10610ee857610100808354040283529160200191610f13565b820191906000526020600020905b815481529060010190602001808311610ef657829003601f168201915b505050918352505060028401546001600160a01b03908116602083015260038501549081166040830152606090910190600160a01b900460ff166004811115610f5e57610f5e6119a9565b8152602001836004015481526020018360050154815260200183600601548152602001610fe78485600701805480602002602001604051908101604052809291908181526020018280548015610fdd57602002820191906000526020600020905b81546001600160a01b03168152600190910190602001808311610fbf575b5050505050611749565b81526020016110508485600801805480602002602001604051908101604052809291908181526020018280548015610fdd576020028201919060005260206000209081546001600160a01b03168152600190910190602001808311610fbf575050505050611749565b815260200183600a018054806020026020016040519081016040528092919081815260200182805480156110a357602002820191906000526020600020905b81548152602001906001019080831161108f575b5050505050815260200183600b018054806020026020016040519081016040528092919081815260200182805480156110fb57602002820191906000526020600020905b8154815260200190600101908083116110e7575b5050509183525050602001919091529392505050565b6000828152600160205260408120815b600882015481101561117957836001600160a01b031682600801828154811061114c5761114c611f34565b6000918252602090912001546001600160a01b0316036111715760019250505061062f565b600101611121565b506000949350505050565b6000805b83548110156111c657828482815481106111a4576111a4611f34565b9060005260206000200154036111be57600191505061062f565b600101611188565b5060009392505050565b60005b825481101561127d57818382815481106111ef576111ef611f34565b906000526020600020015403611275578254839061120f90600190611f9e565b8154811061121f5761121f611f34565b906000526020600020015483828154811061123c5761123c611f34565b90600052602060002001819055508280548061125a5761125a611fb1565b60019003818190600052602060002001600090559055505050565b6001016111d3565b505050565b6000828152600160208190526040909120906003820154600160a01b900460ff1660048111156112b4576112b46119a9565b146112f35760405162461bcd60e51b815260206004820152600f60248201526e67616d6549734e6f7441637469766560881b604482015260640161034e565b6003810180546001600160a01b0384166001600160a81b03199091168117600360a01b179091556005820154600091825260026020526040822080549192909161133e908490611f4a565b9091555050604080518481526001600160a01b03841660208201527f7f40df5127524300187445e867486da572aab86769c0212e0b392bd87c4ca97f9101610611565b6000805b60088301548110156114eb5760008360080182815481106113a8576113a8611f34565b60009182526020808320909101546001600160a01b03168083526009870190915260408220909250905b81548110156114e05760008282815481106113ef576113ef611f34565b60009182526020822001549150611407600a83611fc7565b90506000611416600a84611f8a565b9050600089600b0160008154811061143057611430611f34565b6000918252602082200154600b8c0180549193509061145190600190611f9e565b8154811061146157611461611f34565b90600052602060002001549050600a8261147b9190611fc7565b841480611491575061148e600a83611fc7565b83145b806114a557506114a2600a82611f8a565b84145b806114b957506114b6600a82611f8a565b83145b156114cf575060019a9950505050505050505050565b5050600190930192506113d2915050565b505050600101611385565b50600092915050565b600081815260016020526040812060038101805460ff60a01b1916600160a21b179055905b60078201548110156115845781600401546002600084600701848154811061154357611543611f34565b60009182526020808320909101546001600160a01b0316835282019290925260400181208054909190611577908490611f4a565b9091555050600101611519565b506040518281527fbde3492a0339dd7cc8e00379877e059a377bad88cd45be37d94fc781910b95c990602001610daa565b60408051601c8082526103a082019092526060916000919060208201610380803683370190505090506000805b6006811161165a57805b60068111611647578061160083600a611f5d565b61160a9190611f4a565b84848151811061161c5761161c611f34565b60209081029190910101528261163181611f1b565b935050808061163f90611f1b565b9150506115ec565b508061165281611f1b565b9150506115e2565b509092915050565b60005b815481101561039257815460009061167e908390611f9e565b6040805142602082015244918101919091526060016040516020818303038152906040528051906020012060001c6116b69190611f8a565b6116c09083611f4a565b905060008382815481106116d6576116d6611f34565b906000526020600020015490508383815481106116f5576116f5611f34565b906000526020600020015484838154811061171257611712611f34565b90600052602060002001819055508084848154811061173357611733611f34565b6000918252602090912001555050600101611665565b60606000825167ffffffffffffffff81111561176757611767611a79565b6040519080825280602002602001820160405280156117c557816020015b6117b260405180606001604052806000815260200160006001600160a01b03168152602001600081525090565b8152602001906001900390816117855790505b50905060005b83518110156118795760405180606001604052808281526020018583815181106117f7576117f7611f34565b60200260200101516001600160a01b0316815260200186600901600087858151811061182557611825611f34565b60200260200101516001600160a01b03166001600160a01b031681526020019081526020016000208054905081525082828151811061186657611866611f34565b60209081029190910101526001016117cb565b509392505050565b604080516101a0810182526000808252606060208301819052928201819052918101829052906080820190815260200160008152602001600081526020016000815260200160608152602001606081526020016060815260200160608152602001606081525090565b828054828255906000526020600020908101928215611925579160200282015b8281111561192557825182559160200191906001019061190a565b50611931929150611935565b5090565b5b808211156119315760008155600101611936565b60006020828403121561195c57600080fd5b5035919050565b6000815180845260005b818110156119895760208185018101518683018201520161196d565b506000602082860101526020601f19601f83011685010191505092915050565b634e487b7160e01b600052602160045260246000fd5b600581106119dd57634e487b7160e01b600052602160045260246000fd5b9052565b898152610120602082015260006119fc61012083018b611963565b6001600160a01b038a81166040850152891660608401529050611a2260808301886119bf565b8560a08301528460c08301528360e0830152826101008301529a9950505050505050505050565b600060208284031215611a5b57600080fd5b81356001600160a01b0381168114611a7257600080fd5b9392505050565b634e487b7160e01b600052604160045260246000fd5b80358015158114611a9f57600080fd5b919050565b600080600060608486031215611ab957600080fd5b833567ffffffffffffffff811115611ad057600080fd5b8401601f81018613611ae157600080fd5b803567ffffffffffffffff811115611afb57611afb611a79565b604051601f8201601f19908116603f0116810167ffffffffffffffff81118282101715611b2a57611b2a611a79565b604052818152828201602001881015611b4257600080fd5b816020840160208301376000602092820183015294508501359250611b6b905060408501611a8f565b90509250925092565b600081518084526020840193506020830160005b82811015611bc8578151805187526020808201516001600160a01b0316818901526040918201519188019190915260609096019590910190600101611b88565b5093949350505050565b600081518084526020840193506020830160005b82811015611bc8578151865260209586019590910190600101611be6565b80518252600060208201516101a06020850152611c256101a0850182611963565b90506040830151611c4160408601826001600160a01b03169052565b506060830151611c5c60608601826001600160a01b03169052565b506080830151611c6f60808601826119bf565b5060a083015160a085015260c083015160c085015260e083015160e0850152610100830151848203610100860152611ca78282611b74565b915050610120830151848203610120860152611cc38282611b74565b915050610140830151848203610140860152611cdf8282611bd2565b915050610160830151848203610160860152611cfb8282611bd2565b915050610180830151848203610180860152611d178282611bd2565b95945050505050565b602081526000611a726020830184611c04565b600080600060608486031215611d4857600080fd5b505081359360208301359350604090920135919050565b6000602082016020835280845180835260408501915060408160051b86010192506020860160005b82811015611db857603f19878603018452611da3858351611c04565b94506020938401939190910190600101611d87565b50929695505050505050565b600181811c90821680611dd857607f821691505b60208210810361090457634e487b7160e01b600052602260045260246000fd5b601f82111561127d57806000526020600020601f840160051c81016020851015611e1f5750805b601f840160051c820191505b81811015611e3f5760008155600101611e2b565b5050505050565b815167ffffffffffffffff811115611e6057611e60611a79565b611e7481611e6e8454611dc4565b84611df8565b6020601f821160018114611ea85760008315611e905750848201515b600019600385901b1c1916600184901b178455611e3f565b600084815260208120601f198516915b82811015611ed85787850151825560209485019460019092019101611eb8565b5084821015611ef65786840151600019600387901b60f8161c191681555b50505050600190811b01905550565b634e487b7160e01b600052601160045260246000fd5b600060018201611f2d57611f2d611f05565b5060010190565b634e487b7160e01b600052603260045260246000fd5b8082018082111561062f5761062f611f05565b808202811582820484141761062f5761062f611f05565b634e487b7160e01b600052601260045260246000fd5b600082611f9957611f99611f74565b500690565b8181038181111561062f5761062f611f05565b634e487b7160e01b600052603160045260246000fd5b600082611fd657611fd6611f74565b50049056fea2646970667358221220a227dcd4f81109c4a95c48508b8b43c151962f3cc845c98034d1c5a69206211564736f6c634300081c0033",
  "linkReferences": {},
  "deployedLinkReferences": {}
}