{
  "_format": "hh-sol-artifact-1",
  "contractName": "DominoGame",
  "sourceName": "blockchain/contracts/game.sol",
  "abi": [
    {
      "anonymous": false,
      "inputs": [
        {
          "indexed": false,
          "internalType": "uint256",
          "name": "gameId",
          "type": "uint256"
        }
      ],
      "name": "GameCanceled",
      "type": "event"
    },
    {
      "anonymous": false,
      "inputs": [
        {
          "indexed": false,
          "internalType": "uint256",
          "name": "gameId",
          "type": "uint256"
        },
        {
          "indexed": false,
          "internalType": "address",
          "name": "winner",
          "type": "address"
        }
      ],
      "name": "GameCompleted",
      "type": "event"
    },
    {
      "anonymous": false,
      "inputs": [
        {
          "indexed": false,
          "internalType": "uint256",
          "name": "gameId",
          "type": "uint256"
        },
        {
          "indexed": false,
          "internalType": "address",
          "name": "owner",
          "type": "address"
        },
        {
          "indexed": false,
          "internalType": "uint256",
          "name": "entryFee",
          "type": "uint256"
        }
      ],
      "name": "GameCreated",
      "type": "event"
    },
    {
      "anonymous": false,
      "inputs": [
        {
          "indexed": false,
          "internalType": "uint256",
          "name": "gameId",
          "type": "uint256"
        }
      ],
      "name": "GameDraw",
      "type": "event"
    },
    {
      "anonymous": false,
      "inputs": [
        {
          "indexed": false,
          "internalType": "uint256",
          "name": "gameId",
          "type": "uint256"
        }
      ],
      "name": "GameStarted",
      "type": "event"
    },
    {
      "anonymous": false,
      "inputs": [
        {
          "indexed": false,
          "internalType": "uint256",
          "name": "gameId",
          "type": "uint256"
        },
        {
          "indexed": false,
          "internalType": "address",
          "name": "player",
          "type": "address"
        }
      ],
      "name": "PlayerJoined",
      "type": "event"
    },
    {
      "anonymous": false,
      "inputs": [
        {
          "indexed": false,
          "internalType": "uint256",
          "name": "gameId",
          "type": "uint256"
        },
        {
          "indexed": false,
          "internalType": "address",
          "name": "player",
          "type": "address"
        },
        {
          "indexed": false,
          "internalType": "uint256",
          "name": "piece",
          "type": "uint256"
        }
      ],
      "name": "PlayerMoved",
      "type": "event"
    },
    {
      "inputs": [
        {
          "internalType": "address",
          "name": "",
          "type": "address"
        }
      ],
      "name": "balances",
      "outputs": [
        {
          "internalType": "uint256",
          "name": "",
          "type": "uint256"
        }
      ],
      "stateMutability": "view",
      "type": "function"
    },
    {
      "inputs": [
        {
          "internalType": "uint256",
          "name": "gameId",
          "type": "uint256"
        }
      ],
      "name": "cancelGame",
      "outputs": [],
      "stateMutability": "nonpayable",
      "type": "function"
    },
    {
      "inputs": [
        {
          "internalType": "uint256",
          "name": "gameId",
          "type": "uint256"
        }
      ],
      "name": "cancelRequestStartGame",
      "outputs": [],
      "stateMutability": "nonpayable",
      "type": "function"
    },
    {
      "inputs": [
        {
          "internalType": "uint256",
          "name": "entryFee",
          "type": "uint256"
        }
      ],
      "name": "createGame",
      "outputs": [],
      "stateMutability": "nonpayable",
      "type": "function"
    },
    {
      "inputs": [
        {
          "internalType": "uint256",
          "name": "gameId",
          "type": "uint256"
        },
        {
          "internalType": "address",
          "name": "winner",
          "type": "address"
        }
      ],
      "name": "endGame",
      "outputs": [],
      "stateMutability": "nonpayable",
      "type": "function"
    },
    {
      "inputs": [],
      "name": "gameCounter",
      "outputs": [
        {
          "internalType": "uint256",
          "name": "",
          "type": "uint256"
        }
      ],
      "stateMutability": "view",
      "type": "function"
    },
    {
      "inputs": [
        {
          "internalType": "uint256",
          "name": "",
          "type": "uint256"
        }
      ],
      "name": "games",
      "outputs": [
        {
          "internalType": "uint256",
          "name": "id",
          "type": "uint256"
        },
        {
          "internalType": "address",
          "name": "owner",
          "type": "address"
        },
        {
          "internalType": "enum DominoGame.GameStatus",
          "name": "status",
          "type": "uint8"
        },
        {
          "internalType": "uint256",
          "name": "entryFee",
          "type": "uint256"
        },
        {
          "internalType": "uint256",
          "name": "prizePool",
          "type": "uint256"
        },
        {
          "internalType": "uint256",
          "name": "currentPlayerIndex",
          "type": "uint256"
        }
      ],
      "stateMutability": "view",
      "type": "function"
    },
    {
      "inputs": [
        {
          "internalType": "uint256",
          "name": "gameId",
          "type": "uint256"
        }
      ],
      "name": "joinGame",
      "outputs": [],
      "stateMutability": "payable",
      "type": "function"
    },
    {
      "inputs": [
        {
          "internalType": "uint256",
          "name": "gameId",
          "type": "uint256"
        },
        {
          "internalType": "uint256",
          "name": "piece",
          "type": "uint256"
        }
      ],
      "name": "makeMove",
      "outputs": [],
      "stateMutability": "nonpayable",
      "type": "function"
    },
    {
      "inputs": [
        {
          "internalType": "uint256",
          "name": "gameId",
          "type": "uint256"
        }
      ],
      "name": "requestStartGame",
      "outputs": [],
      "stateMutability": "nonpayable",
      "type": "function"
    },
    {
      "inputs": [
        {
          "internalType": "uint256",
          "name": "gameId",
          "type": "uint256"
        }
      ],
      "name": "startGame",
      "outputs": [],
      "stateMutability": "nonpayable",
      "type": "function"
    },
    {
      "inputs": [],
      "name": "withdraw",
      "outputs": [],
      "stateMutability": "nonpayable",
      "type": "function"
    }
  ],
  "bytecode": "0x6080604052348015600f57600080fd5b506113dc8061001f6000396000f3fe6080604052600436106100a75760003560e01c806369958ab91161006457806369958ab9146101cc57806386514131146101ec578063dea9456d1461020c578063e5ed1d591461022c578063efaa55a01461024c578063f052eb001461025f57600080fd5b8063117a5b90146100ac57806327c46aaa1461012457806327e235e3146101465780632e0be39a146101815780633ccfd60b1461019757806348e837b9146101ac575b600080fd5b3480156100b857600080fd5b506101096100c73660046111ae565b6001602081905260009182526040909120805491810154600282015460038301546009909301546001600160a01b03831693600160a01b90930460ff16929086565b60405161011b969594939291906111dd565b60405180910390f35b34801561013057600080fd5b5061014461013f3660046111ae565b61027f565b005b34801561015257600080fd5b50610173610161366004611250565b60026020526000908152604090205481565b60405190815260200161011b565b34801561018d57600080fd5b5061017360005481565b3480156101a357600080fd5b5061014461035c565b3480156101b857600080fd5b506101446101c73660046111ae565b6103f1565b3480156101d857600080fd5b506101446101e73660046111ae565b610488565b3480156101f857600080fd5b50610144610207366004611272565b610624565b34801561021857600080fd5b5061014461022736600461129e565b610761565b34801561023857600080fd5b506101446102473660046111ae565b610920565b61014461025a3660046111ae565b610b71565b34801561026b57600080fd5b5061014461027a3660046111ae565b610d38565b6000818152600160208190526040909120015481906001600160a01b031633146102c45760405162461bcd60e51b81526004016102bb906112c0565b60405180910390fd5b6000828152600160208190526040909120906001820154600160a01b900460ff1660058111156102f6576102f66111c7565b1461033a5760405162461bcd60e51b815260206004820152601460248201527311d85b5948185b1c9958591e481cdd185c9d195960621b60448201526064016102bb565b6001810180546000919060ff60a01b1916600160a01b835b0217905550505050565b33600090815260026020526040902054806103b25760405162461bcd60e51b81526020600482015260166024820152754e6f2062616c616e636520746f20776974686472617760501b60448201526064016102bb565b336000818152600260205260408082208290555183156108fc0291849190818181858888f193505050501580156103ed573d6000803e3d6000fd5b5050565b60008054908061040083611302565b90915550506000805480825260016020818152604080852093845591830180546001600160a81b03191660ff60a01b1933908116919091179091556002840186905593548251908152908101939093528201839052907f7dfb67e9ff596fca4da65c7eedb128cd1aac553af54b3c0cb733625a2480d8bd906060015b60405180910390a15050565b6000818152600160208190526040909120015481906001600160a01b031633146104c45760405162461bcd60e51b81526004016102bb906112c0565b600082815260016020526040902060046001820154600160a01b900460ff1660058111156104f4576104f46111c7565b14158015610522575060056001820154600160a01b900460ff16600581111561051f5761051f6111c7565b14155b6105675760405162461bcd60e51b815260206004820152601660248201527511d85b5948185b1c9958591e48199a5b985b1a5e995960521b60448201526064016102bb565b60018101805460ff60a01b1916600360a01b17905560005b60048201548110156105ea578160020154600260008460040184815481106105a9576105a961131b565b60009182526020808320909101546001600160a01b03168352820192909252604001812080549091906105dd908490611331565b909155505060010161057f565b506040518381527f8f1ffb72cf9e5acc4eddafab2be9e2951d12377b9e1e4bdc7bd686b19c91fd89906020015b60405180910390a1505050565b6000828152600160208190526040909120015482906001600160a01b031633146106605760405162461bcd60e51b81526004016102bb906112c0565b600083815260016020526040902060026001820154600160a01b900460ff166005811115610690576106906111c7565b146106d25760405162461bcd60e51b815260206004820152601260248201527147616d65206973206e6f742061637469766560701b60448201526064016102bb565b60018101805460ff60a01b1916600160a21b17905560038101546001600160a01b03841660009081526002602052604081208054909190610714908490611331565b9091555050604080518581526001600160a01b03851660208201527f7f40df5127524300187445e867486da572aab86769c0212e0b392bd87c4ca97f91015b60405180910390a150505050565b8161076c8133610e4a565b6107af5760405162461bcd60e51b81526020600482015260146024820152732737ba1030b71030b1ba34bb3290383630bcb2b960611b60448201526064016102bb565b600083815260016020526040902060026001820154600160a01b900460ff1660058111156107df576107df6111c7565b146108215760405162461bcd60e51b815260206004820152601260248201527147616d65206973206e6f742061637469766560701b60448201526064016102bb565b336000908152600682016020526040902061083c9084610ebf565b6108885760405162461bcd60e51b815260206004820152601e60248201527f506c6179657220646f6573206e6f74206861766520746865207069656365000060448201526064016102bb565b33600090815260068201602052604090206108a39084610f0b565b6008810180546001818101835560009283526020909220018490556005820154600983015490916108d49190611331565b6108de9190611344565b6009820155604080518581523360208201529081018490527f953a0c0baf4a6e0dc4e5e310567187c0e370783b04a1c4ddbe4e721c8aac945c90606001610753565b6000818152600160208190526040909120015481906001600160a01b0316331461095c5760405162461bcd60e51b81526004016102bb906112c0565b60008281526001602052604090206004810154600211156109b45760405162461bcd60e51b81526020600482015260126024820152714e6f7420656e6f75676820706c617965727360701b60448201526064016102bb565b600180820154600160a01b900460ff1660058111156109d5576109d56111c7565b14610a225760405162461bcd60e51b815260206004820152601760248201527f47616d65206e6f7420726561647920746f20737461727400000000000000000060448201526064016102bb565b610a2a610fbd565b8051610a4091600784019160209091019061114e565b50610a4d81600701611067565b60005b6004820154811015610b245760005b6007811015610b1b57826006016000846004018481548110610a8357610a8361131b565b60009182526020808320909101546001600160a01b031683528201929092526040019020600784018054610ab990600190611366565b81548110610ac957610ac961131b565b6000918252602080832090910154835460018101855593835291209091015560078301805480610afb57610afb611379565b600082815260208120820160001990810191909155019055600101610a5f565b50600101610a50565b5060018101805460ff60a01b1916600160a11b179055600060098201556040518381527f50ad08f58a27f2851d7e3a1b3a6a46b290f2ce677e99642d30ff639721e7779090602001610617565b6000818152600160205260408120906001820154600160a01b900460ff166005811115610ba057610ba06111c7565b1480610bca5750600180820154600160a01b900460ff166005811115610bc857610bc86111c7565b145b610c165760405162461bcd60e51b815260206004820152601a60248201527f47616d65206e6f7420616363657074696e6720706c617965727300000000000060448201526064016102bb565b80600201543414610c5f5760405162461bcd60e51b8152602060048201526013602482015272496e636f727265637420656e7472792066656560681b60448201526064016102bb565b60048181015410610ca15760405162461bcd60e51b815260206004820152600c60248201526b11d85b59481a5cc8199d5b1b60a21b60448201526064016102bb565b60048101805460018082018355600092835260208084209092018054336001600160a01b03199182168117909255600586018054938401815585529284209091018054909216179055600382018054349290610cfe908490611331565b9091555050604080518381523360208201527f87969bc7faf902221a147b95ceba76e011c5efb0339a0a8ee7a2bb82d9cfbbd6910161047c565b6000818152600160208190526040909120015481906001600160a01b03163314610d745760405162461bcd60e51b81526004016102bb906112c0565b6000828152600160205260408120906001820154600160a01b900460ff166005811115610da357610da36111c7565b14610de75760405162461bcd60e51b815260206004820152601460248201527311d85b5948185b1c9958591e481cdd185c9d195960621b60448201526064016102bb565b600481015460021115610e315760405162461bcd60e51b81526020600482015260126024820152714e6f7420656e6f75676820706c617965727360701b60448201526064016102bb565b6001818101805460ff60a01b1916600160a01b83610352565b6000828152600160205260408120815b6005820154811015610eb257836001600160a01b0316826005018281548110610e8557610e8561131b565b6000918252602090912001546001600160a01b031603610eaa57600192505050610eb9565b600101610e5a565b5060009150505b92915050565b6000805b8354811015610f015782848281548110610edf57610edf61131b565b906000526020600020015403610ef9576001915050610eb9565b600101610ec3565b5060009392505050565b60005b8254811015610fb85781838281548110610f2a57610f2a61131b565b906000526020600020015403610fb05782548390610f4a90600190611366565b81548110610f5a57610f5a61131b565b9060005260206000200154838281548110610f7757610f7761131b565b906000526020600020018190555082805480610f9557610f95611379565b60019003818190600052602060002001600090559055505050565b600101610f0e565b505050565b60408051601c8082526103a082019092526060916000919060208201610380803683370190505090506000805b6006811161105f57805b6006811161104c578061100883600a61138f565b6110129190611331565b848461101d81611302565b95508151811061102f5761102f61131b565b60209081029190910101528061104481611302565b915050610ff4565b508061105781611302565b915050610fea565b509092915050565b60005b81548110156103ed578154600090611083908390611366565b6040805142602082015244918101919091526060016040516020818303038152906040528051906020012060001c6110bb9190611344565b6110c59083611331565b905060008382815481106110db576110db61131b565b906000526020600020015490508383815481106110fa576110fa61131b565b90600052602060002001548483815481106111175761111761131b565b9060005260206000200181905550808484815481106111385761113861131b565b600091825260209091200155505060010161106a565b828054828255906000526020600020908101928215611189579160200282015b8281111561118957825182559160200191906001019061116e565b50611195929150611199565b5090565b5b80821115611195576000815560010161119a565b6000602082840312156111c057600080fd5b5035919050565b634e487b7160e01b600052602160045260246000fd5b8681526001600160a01b038616602082015260c081016006861061121157634e487b7160e01b600052602160045260246000fd5b8560408301528460608301528360808301528260a0830152979650505050505050565b80356001600160a01b038116811461124b57600080fd5b919050565b60006020828403121561126257600080fd5b61126b82611234565b9392505050565b6000806040838503121561128557600080fd5b8235915061129560208401611234565b90509250929050565b600080604083850312156112b157600080fd5b50508035926020909101359150565b6020808252601290820152712737ba103a34329033b0b6b29037bbb732b960711b604082015260600190565b634e487b7160e01b600052601160045260246000fd5b600060018201611314576113146112ec565b5060010190565b634e487b7160e01b600052603260045260246000fd5b80820180821115610eb957610eb96112ec565b60008261136157634e487b7160e01b600052601260045260246000fd5b500690565b81810381811115610eb957610eb96112ec565b634e487b7160e01b600052603160045260246000fd5b8082028115828204841417610eb957610eb96112ec56fea2646970667358221220a7f5bd40308283d628b2ebebfd5a0005f82fda2eb10863d1481fb506128197d964736f6c634300081c0033",
  "linkReferences": {},
  "deployedLinkReferences": {}
}