{
  "_format": "hh-sol-artifact-1",
  "contractName": "DominoGame",
  "sourceName": "blockchain/contracts/game.sol",
  "abi": [
    {
      "anonymous": false,
      "inputs": [
        {
          "indexed": false,
          "internalType": "uint256",
          "name": "gameId",
          "type": "uint256"
        }
      ],
      "name": "GameCanceled",
      "type": "event"
    },
    {
      "anonymous": false,
      "inputs": [
        {
          "indexed": false,
          "internalType": "uint256",
          "name": "gameId",
          "type": "uint256"
        },
        {
          "indexed": false,
          "internalType": "address",
          "name": "winner",
          "type": "address"
        }
      ],
      "name": "GameCompleted",
      "type": "event"
    },
    {
      "anonymous": false,
      "inputs": [
        {
          "indexed": false,
          "internalType": "uint256",
          "name": "gameId",
          "type": "uint256"
        },
        {
          "indexed": false,
          "internalType": "address",
          "name": "owner",
          "type": "address"
        },
        {
          "indexed": false,
          "internalType": "uint256",
          "name": "entryFee",
          "type": "uint256"
        }
      ],
      "name": "GameCreated",
      "type": "event"
    },
    {
      "anonymous": false,
      "inputs": [
        {
          "indexed": false,
          "internalType": "uint256",
          "name": "gameId",
          "type": "uint256"
        }
      ],
      "name": "GameDraw",
      "type": "event"
    },
    {
      "anonymous": false,
      "inputs": [
        {
          "indexed": false,
          "internalType": "uint256",
          "name": "gameId",
          "type": "uint256"
        }
      ],
      "name": "GameStarted",
      "type": "event"
    },
    {
      "anonymous": false,
      "inputs": [
        {
          "indexed": false,
          "internalType": "uint256",
          "name": "gameId",
          "type": "uint256"
        },
        {
          "indexed": false,
          "internalType": "address",
          "name": "player",
          "type": "address"
        }
      ],
      "name": "PlayerJoined",
      "type": "event"
    },
    {
      "anonymous": false,
      "inputs": [
        {
          "indexed": false,
          "internalType": "uint256",
          "name": "gameId",
          "type": "uint256"
        },
        {
          "indexed": false,
          "internalType": "address",
          "name": "player",
          "type": "address"
        },
        {
          "indexed": false,
          "internalType": "uint256",
          "name": "piece",
          "type": "uint256"
        }
      ],
      "name": "PlayerMoved",
      "type": "event"
    },
    {
      "inputs": [
        {
          "internalType": "address",
          "name": "",
          "type": "address"
        }
      ],
      "name": "balances",
      "outputs": [
        {
          "internalType": "uint256",
          "name": "",
          "type": "uint256"
        }
      ],
      "stateMutability": "view",
      "type": "function"
    },
    {
      "inputs": [
        {
          "internalType": "uint256",
          "name": "gameId",
          "type": "uint256"
        }
      ],
      "name": "cancelGame",
      "outputs": [],
      "stateMutability": "nonpayable",
      "type": "function"
    },
    {
      "inputs": [
        {
          "internalType": "uint256",
          "name": "gameId",
          "type": "uint256"
        }
      ],
      "name": "cancelRequestStartGame",
      "outputs": [],
      "stateMutability": "nonpayable",
      "type": "function"
    },
    {
      "inputs": [
        {
          "internalType": "string",
          "name": "name",
          "type": "string"
        },
        {
          "internalType": "uint256",
          "name": "entryFee",
          "type": "uint256"
        },
        {
          "internalType": "bool",
          "name": "isPlayer",
          "type": "bool"
        }
      ],
      "name": "createGame",
      "outputs": [],
      "stateMutability": "payable",
      "type": "function"
    },
    {
      "inputs": [
        {
          "internalType": "uint256",
          "name": "gameId",
          "type": "uint256"
        },
        {
          "internalType": "address",
          "name": "winner",
          "type": "address"
        }
      ],
      "name": "endGame",
      "outputs": [],
      "stateMutability": "nonpayable",
      "type": "function"
    },
    {
      "inputs": [],
      "name": "gameCounter",
      "outputs": [
        {
          "internalType": "uint256",
          "name": "",
          "type": "uint256"
        }
      ],
      "stateMutability": "view",
      "type": "function"
    },
    {
      "inputs": [
        {
          "internalType": "uint256",
          "name": "",
          "type": "uint256"
        }
      ],
      "name": "games",
      "outputs": [
        {
          "internalType": "uint256",
          "name": "id",
          "type": "uint256"
        },
        {
          "internalType": "string",
          "name": "name",
          "type": "string"
        },
        {
          "internalType": "address",
          "name": "owner",
          "type": "address"
        },
        {
          "internalType": "enum DominoGame.GameStatus",
          "name": "status",
          "type": "uint8"
        },
        {
          "internalType": "uint256",
          "name": "entryFee",
          "type": "uint256"
        },
        {
          "internalType": "uint256",
          "name": "prizePool",
          "type": "uint256"
        },
        {
          "internalType": "uint256",
          "name": "maxPlayers",
          "type": "uint256"
        },
        {
          "internalType": "uint256",
          "name": "currentPlayerIndex",
          "type": "uint256"
        }
      ],
      "stateMutability": "view",
      "type": "function"
    },
    {
      "inputs": [],
      "name": "getAllGames",
      "outputs": [
        {
          "components": [
            {
              "internalType": "uint256",
              "name": "id",
              "type": "uint256"
            },
            {
              "internalType": "string",
              "name": "name",
              "type": "string"
            },
            {
              "internalType": "address",
              "name": "owner",
              "type": "address"
            },
            {
              "internalType": "enum DominoGame.GameStatus",
              "name": "status",
              "type": "uint8"
            },
            {
              "internalType": "uint256",
              "name": "entryFee",
              "type": "uint256"
            },
            {
              "internalType": "uint256",
              "name": "prizePool",
              "type": "uint256"
            },
            {
              "internalType": "uint256",
              "name": "maxPlayers",
              "type": "uint256"
            },
            {
              "internalType": "address[]",
              "name": "players",
              "type": "address[]"
            },
            {
              "internalType": "address[]",
              "name": "activePlayers",
              "type": "address[]"
            },
            {
              "internalType": "uint256[]",
              "name": "deck",
              "type": "uint256[]"
            },
            {
              "internalType": "uint256[]",
              "name": "board",
              "type": "uint256[]"
            },
            {
              "internalType": "uint256[]",
              "name": "playerPieces",
              "type": "uint256[]"
            }
          ],
          "internalType": "struct DominoGame.GameResponse[]",
          "name": "",
          "type": "tuple[]"
        }
      ],
      "stateMutability": "view",
      "type": "function"
    },
    {
      "inputs": [
        {
          "internalType": "uint256",
          "name": "gameId",
          "type": "uint256"
        }
      ],
      "name": "getCurrentPlayer",
      "outputs": [
        {
          "components": [
            {
              "internalType": "uint256",
              "name": "playerIndex",
              "type": "uint256"
            },
            {
              "internalType": "uint256[]",
              "name": "playerPieces",
              "type": "uint256[]"
            },
            {
              "internalType": "enum DominoGame.GameStatus",
              "name": "gameStatus",
              "type": "uint8"
            }
          ],
          "internalType": "struct DominoGame.CurrentPlayer",
          "name": "",
          "type": "tuple"
        }
      ],
      "stateMutability": "view",
      "type": "function"
    },
    {
      "inputs": [
        {
          "internalType": "uint256",
          "name": "gameId",
          "type": "uint256"
        }
      ],
      "name": "getGame",
      "outputs": [
        {
          "components": [
            {
              "internalType": "uint256",
              "name": "id",
              "type": "uint256"
            },
            {
              "internalType": "string",
              "name": "name",
              "type": "string"
            },
            {
              "internalType": "address",
              "name": "owner",
              "type": "address"
            },
            {
              "internalType": "enum DominoGame.GameStatus",
              "name": "status",
              "type": "uint8"
            },
            {
              "internalType": "uint256",
              "name": "entryFee",
              "type": "uint256"
            },
            {
              "internalType": "uint256",
              "name": "prizePool",
              "type": "uint256"
            },
            {
              "internalType": "uint256",
              "name": "maxPlayers",
              "type": "uint256"
            },
            {
              "internalType": "address[]",
              "name": "players",
              "type": "address[]"
            },
            {
              "internalType": "address[]",
              "name": "activePlayers",
              "type": "address[]"
            },
            {
              "internalType": "uint256[]",
              "name": "deck",
              "type": "uint256[]"
            },
            {
              "internalType": "uint256[]",
              "name": "board",
              "type": "uint256[]"
            },
            {
              "internalType": "uint256[]",
              "name": "playerPieces",
              "type": "uint256[]"
            }
          ],
          "internalType": "struct DominoGame.GameResponse",
          "name": "",
          "type": "tuple"
        }
      ],
      "stateMutability": "view",
      "type": "function"
    },
    {
      "inputs": [
        {
          "internalType": "uint256",
          "name": "gameId",
          "type": "uint256"
        }
      ],
      "name": "joinGame",
      "outputs": [],
      "stateMutability": "payable",
      "type": "function"
    },
    {
      "inputs": [
        {
          "internalType": "uint256",
          "name": "gameId",
          "type": "uint256"
        }
      ],
      "name": "makeAutomaticMove",
      "outputs": [],
      "stateMutability": "nonpayable",
      "type": "function"
    },
    {
      "inputs": [
        {
          "internalType": "uint256",
          "name": "gameId",
          "type": "uint256"
        },
        {
          "internalType": "uint256",
          "name": "left",
          "type": "uint256"
        },
        {
          "internalType": "uint256",
          "name": "right",
          "type": "uint256"
        }
      ],
      "name": "makeMove",
      "outputs": [],
      "stateMutability": "nonpayable",
      "type": "function"
    },
    {
      "inputs": [
        {
          "internalType": "uint256",
          "name": "gameId",
          "type": "uint256"
        }
      ],
      "name": "requestStartGame",
      "outputs": [],
      "stateMutability": "nonpayable",
      "type": "function"
    },
    {
      "inputs": [
        {
          "internalType": "uint256",
          "name": "gameId",
          "type": "uint256"
        }
      ],
      "name": "startGame",
      "outputs": [],
      "stateMutability": "nonpayable",
      "type": "function"
    },
    {
      "inputs": [],
      "name": "withdraw",
      "outputs": [],
      "stateMutability": "nonpayable",
      "type": "function"
    }
  ],
  "bytecode": "0x6080604052348015600f57600080fd5b506127628061001f6000396000f3fe6080604052600436106100f35760003560e01c806369958ab91161008a578063db1c45f911610059578063db1c45f9146102aa578063e5ed1d59146102cc578063efaa55a0146102ec578063f052eb00146102ff57600080fd5b806369958ab91461021d578063865141311461023d578063a2f77bcc1461025d578063cfc2f5ff1461028a57600080fd5b80632e0be39a116100c65780632e0be39a146101bf5780633ccfd60b146101d557806343dbf0ef146101ea5780635491d468146101fd57600080fd5b8063117a5b90146100f8578063266386311461013557806327c46aaa1461016257806327e235e314610184575b600080fd5b34801561010457600080fd5b50610118610113366004612012565b61031f565b60405161012c9897969594939291906120a9565b60405180910390f35b34801561014157600080fd5b50610155610150366004612012565b6103f9565b60405161012c9190612143565b34801561016e57600080fd5b5061018261017d366004612012565b6105c1565b005b34801561019057600080fd5b506101b161019f3660046121a1565b60026020526000908152604090205481565b60405190815260200161012c565b3480156101cb57600080fd5b506101b160005481565b3480156101e157600080fd5b50610182610692565b6101826101f83660046121e9565b610724565b34801561020957600080fd5b50610182610218366004612012565b6107de565b34801561022957600080fd5b50610182610238366004612012565b610bf7565b34801561024957600080fd5b506101826102583660046122b9565b610d90565b34801561026957600080fd5b5061027d610278366004612012565b610eac565b60405161012c919061241f565b34801561029657600080fd5b506101826102a5366004612432565b61119c565b3480156102b657600080fd5b506102bf611358565b60405161012c919061245e565b3480156102d857600080fd5b506101826102e7366004612012565b6116cc565b6101826102fa366004612012565b611921565b34801561030b57600080fd5b5061018261031a366004612012565b611af0565b600160208190526000918252604090912080549181018054610340906124c3565b80601f016020809104026020016040519081016040528092919081815260200182805461036c906124c3565b80156103b95780601f1061038e576101008083540402835291602001916103b9565b820191906000526020600020905b81548152906001019060200180831161039c57829003601f168201915b505050506002830154600384015460048501546005860154600b9096015494956001600160a01b03841695600160a01b90940460ff169450919290919088565b610401611f06565b60008281526001602052604090206104198333611bff565b61045c5760405162461bcd60e51b815260206004820152600f60248201526e706c617965724e6f74496e47616d6560881b60448201526064015b60405180910390fd5b6000805b60078301548110156104b557336001600160a01b031683600701828154811061048b5761048b6124f7565b6000918252602090912001546001600160a01b0316036104ad578091506104b5565b600101610460565b5033600090815260088301602052604081205467ffffffffffffffff8111156104e0576104e06121c3565b604051908082528060200260200182016040528015610509578160200160208202803683370190505b50905060005b33600090815260088501602052604090205481101561057b57336000908152600885016020526040902080548290811061054b5761054b6124f7565b9060005260206000200154828281518110610568576105686124f7565b602090810291909101015260010161050f565b5060405180606001604052808381526020018281526020018460020160149054906101000a900460ff1660058111156105b6576105b6612071565b905295945050505050565b60008181526001602052604090206002015481906001600160a01b031633146105fc5760405162461bcd60e51b81526004016104539061250d565b6000828152600160208190526040909120906002820154600160a01b900460ff16600581111561062e5761062e612071565b146106705760405162461bcd60e51b815260206004820152601260248201527119d85b59505b1c9958591e54dd185c9d195960721b6044820152606401610453565b6002810180546000919060ff60a01b1916600160a01b835b0217905550505050565b33600090815260026020526040902054806106e55760405162461bcd60e51b81526020600482015260136024820152726e6f42616c616e6365546f576974686472617760681b6044820152606401610453565b336000818152600260205260408082208290555183156108fc0291849190818181858888f19350505050158015610720573d6000803e3d6000fd5b5050565b600080548082526001602081905260409092209081559081016107478582612584565b50600460058201556002810180546001600160a81b0319163360ff60a01b19161790556003810183905560008054908061078083612659565b90915550506000546040805191825233602083015281018490527f7dfb67e9ff596fca4da65c7eedb128cd1aac553af54b3c0cb733625a2480d8bd9060600160405180910390a181156107d85780546107d890611921565b50505050565b806107e98133611bff565b6108295760405162461bcd60e51b81526020600482015260116024820152703737ba20b720b1ba34bb32a83630bcb2b960791b6044820152606401610453565b6000828152600160205260409020600280820154600160a01b900460ff16600581111561085857610858612071565b146108755760405162461bcd60e51b815260040161045390612672565b600a8101546108be5760405162461bcd60e51b81526020600482015260156024820152741b9bd41a5958d95cd3db951a19509bd85c9916595d605a1b6044820152606401610453565b3360009081526008820160205260408120600a8301805491929182906108e6576108e66124f7565b6000918252602082200154600a85018054919350906109079060019061269b565b81548110610917576109176124f7565b906000526020600020015490506000805b8454811015610b82576000858281548110610945576109456124f7565b90600052602060002001549050600a8461095f91906126c4565b61096a600a836126d8565b1480610989575061097c600a856126c4565b610987600a836126c4565b145b156109fc57600a8701805460018101825560009182526020909120018190556109b28682611c74565b604080518a81523360208201529081018290527f953a0c0baf4a6e0dc4e5e310567187c0e370783b04a1c4ddbe4e721c8aac945c9060600160405180910390a16001925050610b82565b610a07600a866126d8565b610a12600a836126d8565b1480610a315750610a24600a866126c4565b610a2f600a836126c4565b145b15610b7957600a870154600090610a499060016126ec565b67ffffffffffffffff811115610a6157610a616121c3565b604051908082528060200260200182016040528015610a8a578160200160208202803683370190505b5090508181600081518110610aa157610aa16124f7565b60200260200101818152505060005b600a890154811015610b0d5788600a018181548110610ad157610ad16124f7565b906000526020600020015482826001610aea91906126ec565b81518110610afa57610afa6124f7565b6020908102919091010152600101610ab0565b508051610b2390600a8a01906020840190611f37565b50610b2e8783611c74565b604080518b81523360208201529081018390527f953a0c0baf4a6e0dc4e5e310567187c0e370783b04a1c4ddbe4e721c8aac945c9060600160405180910390a1600193505050610b82565b50600101610928565b5080610bc75760405162461bcd60e51b81526020600482015260146024820152736e6f56616c69644d6f7665417661696c61626c6560601b6044820152606401610453565b6007850154600b860154610bdc9060016126ec565b610be691906126c4565b85600b018190555050505050505050565b60008181526001602052604090206002015481906001600160a01b03163314610c325760405162461bcd60e51b81526004016104539061250d565b600082815260016020526040902060046002820154600160a01b900460ff166005811115610c6257610c62612071565b14158015610c90575060056002820154600160a01b900460ff166005811115610c8d57610c8d612071565b14155b610cd35760405162461bcd60e51b815260206004820152601460248201527319d85b59505b1c9958591e519a5b985b1a5e995960621b6044820152606401610453565b60028101805460ff60a01b1916600360a01b17905560005b6006820154811015610d5657816003015460026000846006018481548110610d1557610d156124f7565b60009182526020808320909101546001600160a01b0316835282019290925260400181208054909190610d499084906126ec565b9091555050600101610ceb565b506040518381527f8f1ffb72cf9e5acc4eddafab2be9e2951d12377b9e1e4bdc7bd686b19c91fd89906020015b60405180910390a1505050565b60008281526001602052604090206002015482906001600160a01b03163314610dcb5760405162461bcd60e51b81526004016104539061250d565b6000838152600160205260409020600280820154600160a01b900460ff166005811115610dfa57610dfa612071565b14610e175760405162461bcd60e51b815260040161045390612672565b6002810180546004919060ff60a01b1916600160a01b83021790555060048101546001600160a01b03841660009081526002602052604081208054909190610e609084906126ec565b9091555050604080518581526001600160a01b03851660208201527f7f40df5127524300187445e867486da572aab86769c0212e0b392bd87c4ca97f910160405180910390a150505050565b610eb4611f82565b60008281526001602090815260408083203384526008810183528184208054835181860281018601909452808452919493909190830182828015610f1757602002820191906000526020600020905b815481526020019060010190808311610f03575b5050505050905060405180610180016040528083600001548152602001836001018054610f43906124c3565b80601f0160208091040260200160405190810160405280929190818152602001828054610f6f906124c3565b8015610fbc5780601f10610f9157610100808354040283529160200191610fbc565b820191906000526020600020905b815481529060010190602001808311610f9f57829003601f168201915b505050918352505060028401546001600160a01b0381166020830152604090910190600160a01b900460ff166005811115610ff957610ff9612071565b81526020018360030154815260200183600401548152602001836005015481526020018360060180548060200260200160405190810160405280929190818152602001828054801561107457602002820191906000526020600020905b81546001600160a01b03168152600190910190602001808311611056575b50505050508152602001836007018054806020026020016040519081016040528092919081815260200182805480156110d657602002820191906000526020600020905b81546001600160a01b031681526001909101906020018083116110b8575b505050505081526020018360090180548060200260200160405190810160405280929190818152602001828054801561112e57602002820191906000526020600020905b81548152602001906001019080831161111a575b5050505050815260200183600a0180548060200260200160405190810160405280929190818152602001828054801561118657602002820191906000526020600020905b815481526020019060010190808311611172575b5050509183525050602001919091529392505050565b826111a78133611bff565b6111e75760405162461bcd60e51b81526020600482015260116024820152703737ba20b720b1ba34bb32a83630bcb2b960791b6044820152606401610453565b6000848152600160205260409020600280820154600160a01b900460ff16600581111561121657611216612071565b146112335760405162461bcd60e51b815260040161045390612672565b60008361124186600a6126ff565b61124b91906126ec565b33600090815260088401602052604090209091506112699082611d26565b6112b55760405162461bcd60e51b815260206004820152601960248201527f706c61796572446f65734e6f74486176655468655069656365000000000000006044820152606401610453565b33600090815260088301602052604090206112d09082611c74565b600a820180546001818101835560009283526020909220018290556007830154600b840154909161130191906126ec565b61130b91906126c4565b600b830155604080518781523360208201529081018290527f953a0c0baf4a6e0dc4e5e310567187c0e370783b04a1c4ddbe4e721c8aac945c9060600160405180910390a1505050505050565b60606000805467ffffffffffffffff811115611376576113766121c3565b6040519080825280602002602001820160405280156113af57816020015b61139c611f82565b8152602001906001900390816113945790505b50905060005b6000548110156116c6576000818152600160209081526040808320338452600881018352818420805483518186028101860190945280845291949390919083018282801561142257602002820191906000526020600020905b81548152602001906001019080831161140e575b505050505090506040518061018001604052808360000154815260200183600101805461144e906124c3565b80601f016020809104026020016040519081016040528092919081815260200182805461147a906124c3565b80156114c75780601f1061149c576101008083540402835291602001916114c7565b820191906000526020600020905b8154815290600101906020018083116114aa57829003601f168201915b505050918352505060028401546001600160a01b0381166020830152604090910190600160a01b900460ff16600581111561150457611504612071565b81526020018360030154815260200183600401548152602001836005015481526020018360060180548060200260200160405190810160405280929190818152602001828054801561157f57602002820191906000526020600020905b81546001600160a01b03168152600190910190602001808311611561575b50505050508152602001836007018054806020026020016040519081016040528092919081815260200182805480156115e157602002820191906000526020600020905b81546001600160a01b031681526001909101906020018083116115c3575b505050505081526020018360090180548060200260200160405190810160405280929190818152602001828054801561163957602002820191906000526020600020905b815481526020019060010190808311611625575b5050505050815260200183600a0180548060200260200160405190810160405280929190818152602001828054801561169157602002820191906000526020600020905b81548152602001906001019080831161167d575b50505050508152602001828152508484815181106116b1576116b16124f7565b602090810291909101015250506001016113b5565b50919050565b60008181526001602052604090206002015481906001600160a01b031633146117075760405162461bcd60e51b81526004016104539061250d565b600082815260016020526040902060068101546002111561175d5760405162461bcd60e51b815260206004820152601060248201526f6e6f74456e6f756768506c617965727360801b6044820152606401610453565b60016002820154600160a01b900460ff16600581111561177f5761177f612071565b146117c25760405162461bcd60e51b815260206004820152601360248201527219d85b59539bdd149958591e551bd4dd185c9d606a1b6044820152606401610453565b6117ca611d72565b80516117e0916009840191602090910190611f37565b506117ed81600901611e1f565b60005b60068201548110156118d45760005b600681116118cb576009830180546000919061181d9060019061269b565b8154811061182d5761182d6124f7565b90600052602060002001549050836008016000856006018581548110611855576118556124f7565b60009182526020808320909101546001600160a01b031683528281019390935260409091018120805460018101825590825291902001819055600984018054806118a1576118a1612716565b600190038181906000526020600020016000905590555080806118c390612659565b9150506117ff565b506001016117f0565b5060028101805460ff60a01b1916600160a11b1790556000600b8201556040518381527f50ad08f58a27f2851d7e3a1b3a6a46b290f2ce677e99642d30ff639721e7779090602001610d83565b6000818152600160205260408120906002820154600160a01b900460ff16600581111561195057611950612071565b148061197b575060016002820154600160a01b900460ff16600581111561197957611979612071565b145b6119c75760405162461bcd60e51b815260206004820152601760248201527f67616d654e6f74416363657074696e67506c61796572730000000000000000006044820152606401610453565b80600301543414611a0e5760405162461bcd60e51b8152602060048201526011602482015270696e636f7272656374456e74727946656560781b6044820152606401610453565b6005810154600682015410611a525760405162461bcd60e51b815260206004820152600a60248201526919d85b59525cd19d5b1b60b21b6044820152606401610453565b60068101805460018082018355600092835260208084209092018054336001600160a01b03199182168117909255600786018054938401815585529284209091018054909216179055600482018054349290611aaf9084906126ec565b9091555050604080518381523360208201527f87969bc7faf902221a147b95ceba76e011c5efb0339a0a8ee7a2bb82d9cfbbd6910160405180910390a15050565b60008181526001602052604090206002015481906001600160a01b03163314611b2b5760405162461bcd60e51b81526004016104539061250d565b6000828152600160205260408120906002820154600160a01b900460ff166005811115611b5a57611b5a612071565b14611b9c5760405162461bcd60e51b815260206004820152601260248201527119d85b59505b1c9958591e54dd185c9d195960721b6044820152606401610453565b6006810154600110611be35760405162461bcd60e51b815260206004820152601060248201526f6e6f74456e6f756768506c617965727360801b6044820152606401610453565b6002810180546001919060ff60a01b1916600160a01b83610688565b6000828152600160205260408120815b6007820154811015611c6757836001600160a01b0316826007018281548110611c3a57611c3a6124f7565b6000918252602090912001546001600160a01b031603611c5f57600192505050611c6e565b600101611c0f565b5060009150505b92915050565b60005b8254811015611d215781838281548110611c9357611c936124f7565b906000526020600020015403611d195782548390611cb39060019061269b565b81548110611cc357611cc36124f7565b9060005260206000200154838281548110611ce057611ce06124f7565b906000526020600020018190555082805480611cfe57611cfe612716565b60019003818190600052602060002001600090559055505050565b600101611c77565b505050565b6000805b8354811015611d685782848281548110611d4657611d466124f7565b906000526020600020015403611d60576001915050611c6e565b600101611d2a565b5060009392505050565b60408051601c8082526103a082019092526060916000919060208201610380803683370190505090506000805b60068111611e1757805b60068111611e045780611dbd83600a6126ff565b611dc791906126ec565b848481518110611dd957611dd96124f7565b602090810291909101015282611dee81612659565b9350508080611dfc90612659565b915050611da9565b5080611e0f81612659565b915050611d9f565b509092915050565b60005b8154811015610720578154600090611e3b90839061269b565b6040805142602082015244918101919091526060016040516020818303038152906040528051906020012060001c611e7391906126c4565b611e7d90836126ec565b90506000838281548110611e9357611e936124f7565b90600052602060002001549050838381548110611eb257611eb26124f7565b9060005260206000200154848381548110611ecf57611ecf6124f7565b906000526020600020018190555080848481548110611ef057611ef06124f7565b6000918252602090912001555050600101611e22565b6040518060600160405280600081526020016060815260200160006005811115611f3257611f32612071565b905290565b828054828255906000526020600020908101928215611f72579160200282015b82811115611f72578251825591602001919060010190611f57565b50611f7e929150611ffd565b5090565b604051806101800160405280600081526020016060815260200160006001600160a01b0316815260200160006005811115611fbf57611fbf612071565b815260200160008152602001600081526020016000815260200160608152602001606081526020016060815260200160608152602001606081525090565b5b80821115611f7e5760008155600101611ffe565b60006020828403121561202457600080fd5b5035919050565b6000815180845260005b8181101561205157602081850181015186830182015201612035565b506000602082860101526020601f19601f83011685010191505092915050565b634e487b7160e01b600052602160045260246000fd5b600681106120a557634e487b7160e01b600052602160045260246000fd5b9052565b888152610100602082015260006120c461010083018a61202b565b6001600160a01b038916604084015290506120e26060830188612087565b8560808301528460a08301528360c08301528260e08301529998505050505050505050565b600081518084526020840193506020830160005b8281101561213957815186526020958601959091019060010161211b565b5093949350505050565b602081528151602082015260006020830151606060408401526121696080840182612107565b9050604084015161217d6060850182612087565b509392505050565b80356001600160a01b038116811461219c57600080fd5b919050565b6000602082840312156121b357600080fd5b6121bc82612185565b9392505050565b634e487b7160e01b600052604160045260246000fd5b8035801515811461219c57600080fd5b6000806000606084860312156121fe57600080fd5b833567ffffffffffffffff81111561221557600080fd5b8401601f8101861361222657600080fd5b803567ffffffffffffffff811115612240576122406121c3565b604051601f8201601f19908116603f0116810167ffffffffffffffff8111828210171561226f5761226f6121c3565b60405281815282820160200188101561228757600080fd5b8160208401602083013760006020928201830152945085013592506122b09050604085016121d9565b90509250925092565b600080604083850312156122cc57600080fd5b823591506122dc60208401612185565b90509250929050565b600081518084526020840193506020830160005b828110156121395781516001600160a01b03168652602095860195909101906001016122f9565b8051825260006020820151610180602085015261234161018085018261202b565b9050604083015161235d60408601826001600160a01b03169052565b5060608301516123706060860182612087565b506080830151608085015260a083015160a085015260c083015160c085015260e083015184820360e08601526123a682826122e5565b9150506101008301518482036101008601526123c282826122e5565b9150506101208301518482036101208601526123de8282612107565b9150506101408301518482036101408601526123fa8282612107565b9150506101608301518482036101608601526124168282612107565b95945050505050565b6020815260006121bc6020830184612320565b60008060006060848603121561244757600080fd5b505081359360208301359350604090920135919050565b6000602082016020835280845180835260408501915060408160051b86010192506020860160005b828110156124b757603f198786030184526124a2858351612320565b94506020938401939190910190600101612486565b50929695505050505050565b600181811c908216806124d757607f821691505b6020821081036116c657634e487b7160e01b600052602260045260246000fd5b634e487b7160e01b600052603260045260246000fd5b6020808252600f908201526e3737ba2a3432a3b0b6b2a7bbb732b960891b604082015260600190565b601f821115611d2157806000526020600020601f840160051c8101602085101561255d5750805b601f840160051c820191505b8181101561257d5760008155600101612569565b5050505050565b815167ffffffffffffffff81111561259e5761259e6121c3565b6125b2816125ac84546124c3565b84612536565b6020601f8211600181146125e657600083156125ce5750848201515b600019600385901b1c1916600184901b17845561257d565b600084815260208120601f198516915b8281101561261657878501518255602094850194600190920191016125f6565b50848210156126345786840151600019600387901b60f8161c191681555b50505050600190811b01905550565b634e487b7160e01b600052601160045260246000fd5b60006001820161266b5761266b612643565b5060010190565b6020808252600f908201526e67616d6549734e6f7441637469766560881b604082015260600190565b81810381811115611c6e57611c6e612643565b634e487b7160e01b600052601260045260246000fd5b6000826126d3576126d36126ae565b500690565b6000826126e7576126e76126ae565b500490565b80820180821115611c6e57611c6e612643565b8082028115828204841417611c6e57611c6e612643565b634e487b7160e01b600052603160045260246000fdfea2646970667358221220dd1181908ff4a55a0fb555aeede57147fbc0d95db36d1d6ab5a28eeb2fa1687b64736f6c634300081c0033",
  "linkReferences": {},
  "deployedLinkReferences": {}
}