{
  "_format": "hh-sol-artifact-1",
  "contractName": "DominoGame",
  "sourceName": "blockchain/contracts/game.sol",
  "abi": [
    {
      "anonymous": false,
      "inputs": [
        {
          "indexed": false,
          "internalType": "uint256",
          "name": "gameId",
          "type": "uint256"
        }
      ],
      "name": "GameCanceled",
      "type": "event"
    },
    {
      "anonymous": false,
      "inputs": [
        {
          "indexed": false,
          "internalType": "uint256",
          "name": "gameId",
          "type": "uint256"
        },
        {
          "indexed": false,
          "internalType": "address",
          "name": "winner",
          "type": "address"
        }
      ],
      "name": "GameCompleted",
      "type": "event"
    },
    {
      "anonymous": false,
      "inputs": [
        {
          "indexed": false,
          "internalType": "uint256",
          "name": "gameId",
          "type": "uint256"
        },
        {
          "indexed": false,
          "internalType": "address",
          "name": "owner",
          "type": "address"
        },
        {
          "indexed": false,
          "internalType": "uint256",
          "name": "entryFee",
          "type": "uint256"
        }
      ],
      "name": "GameCreated",
      "type": "event"
    },
    {
      "anonymous": false,
      "inputs": [
        {
          "indexed": false,
          "internalType": "uint256",
          "name": "gameId",
          "type": "uint256"
        }
      ],
      "name": "GameDraw",
      "type": "event"
    },
    {
      "anonymous": false,
      "inputs": [
        {
          "indexed": false,
          "internalType": "uint256",
          "name": "gameId",
          "type": "uint256"
        }
      ],
      "name": "GameStarted",
      "type": "event"
    },
    {
      "anonymous": false,
      "inputs": [
        {
          "indexed": false,
          "internalType": "uint256",
          "name": "gameId",
          "type": "uint256"
        },
        {
          "indexed": false,
          "internalType": "address",
          "name": "player",
          "type": "address"
        }
      ],
      "name": "PlayerJoined",
      "type": "event"
    },
    {
      "anonymous": false,
      "inputs": [
        {
          "indexed": false,
          "internalType": "uint256",
          "name": "gameId",
          "type": "uint256"
        },
        {
          "indexed": false,
          "internalType": "address",
          "name": "player",
          "type": "address"
        },
        {
          "indexed": false,
          "internalType": "uint256",
          "name": "piece",
          "type": "uint256"
        }
      ],
      "name": "PlayerMoved",
      "type": "event"
    },
    {
      "inputs": [
        {
          "internalType": "address",
          "name": "",
          "type": "address"
        }
      ],
      "name": "balances",
      "outputs": [
        {
          "internalType": "uint256",
          "name": "",
          "type": "uint256"
        }
      ],
      "stateMutability": "view",
      "type": "function"
    },
    {
      "inputs": [
        {
          "internalType": "uint256",
          "name": "gameId",
          "type": "uint256"
        }
      ],
      "name": "cancelGame",
      "outputs": [],
      "stateMutability": "nonpayable",
      "type": "function"
    },
    {
      "inputs": [
        {
          "internalType": "string",
          "name": "name",
          "type": "string"
        },
        {
          "internalType": "uint256",
          "name": "entryFee",
          "type": "uint256"
        },
        {
          "internalType": "bool",
          "name": "isPlayer",
          "type": "bool"
        }
      ],
      "name": "createGame",
      "outputs": [],
      "stateMutability": "payable",
      "type": "function"
    },
    {
      "inputs": [],
      "name": "gameCounter",
      "outputs": [
        {
          "internalType": "uint256",
          "name": "",
          "type": "uint256"
        }
      ],
      "stateMutability": "view",
      "type": "function"
    },
    {
      "inputs": [
        {
          "internalType": "uint256",
          "name": "",
          "type": "uint256"
        }
      ],
      "name": "games",
      "outputs": [
        {
          "internalType": "uint256",
          "name": "id",
          "type": "uint256"
        },
        {
          "internalType": "string",
          "name": "name",
          "type": "string"
        },
        {
          "internalType": "address",
          "name": "owner",
          "type": "address"
        },
        {
          "internalType": "address",
          "name": "winner",
          "type": "address"
        },
        {
          "internalType": "enum DominoGame.GameStatus",
          "name": "status",
          "type": "uint8"
        },
        {
          "internalType": "uint256",
          "name": "entryFee",
          "type": "uint256"
        },
        {
          "internalType": "uint256",
          "name": "prizePool",
          "type": "uint256"
        },
        {
          "internalType": "uint256",
          "name": "maxPlayers",
          "type": "uint256"
        },
        {
          "internalType": "uint256",
          "name": "currentPlayerIndex",
          "type": "uint256"
        }
      ],
      "stateMutability": "view",
      "type": "function"
    },
    {
      "inputs": [],
      "name": "getAllGames",
      "outputs": [
        {
          "components": [
            {
              "internalType": "uint256",
              "name": "id",
              "type": "uint256"
            },
            {
              "internalType": "string",
              "name": "name",
              "type": "string"
            },
            {
              "internalType": "address",
              "name": "owner",
              "type": "address"
            },
            {
              "internalType": "address",
              "name": "winner",
              "type": "address"
            },
            {
              "internalType": "enum DominoGame.GameStatus",
              "name": "status",
              "type": "uint8"
            },
            {
              "internalType": "uint256",
              "name": "entryFee",
              "type": "uint256"
            },
            {
              "internalType": "uint256",
              "name": "prizePool",
              "type": "uint256"
            },
            {
              "internalType": "uint256",
              "name": "maxPlayers",
              "type": "uint256"
            },
            {
              "internalType": "address[]",
              "name": "players",
              "type": "address[]"
            },
            {
              "internalType": "address[]",
              "name": "activePlayers",
              "type": "address[]"
            },
            {
              "internalType": "uint256[]",
              "name": "gameDeck",
              "type": "uint256[]"
            },
            {
              "internalType": "uint256[]",
              "name": "boardDeck",
              "type": "uint256[]"
            },
            {
              "internalType": "uint256[]",
              "name": "playerDeck",
              "type": "uint256[]"
            }
          ],
          "internalType": "struct DominoGame.GameResponse[]",
          "name": "",
          "type": "tuple[]"
        }
      ],
      "stateMutability": "view",
      "type": "function"
    },
    {
      "inputs": [
        {
          "internalType": "uint256",
          "name": "gameId",
          "type": "uint256"
        }
      ],
      "name": "getGame",
      "outputs": [
        {
          "components": [
            {
              "internalType": "uint256",
              "name": "id",
              "type": "uint256"
            },
            {
              "internalType": "string",
              "name": "name",
              "type": "string"
            },
            {
              "internalType": "address",
              "name": "owner",
              "type": "address"
            },
            {
              "internalType": "address",
              "name": "winner",
              "type": "address"
            },
            {
              "internalType": "enum DominoGame.GameStatus",
              "name": "status",
              "type": "uint8"
            },
            {
              "internalType": "uint256",
              "name": "entryFee",
              "type": "uint256"
            },
            {
              "internalType": "uint256",
              "name": "prizePool",
              "type": "uint256"
            },
            {
              "internalType": "uint256",
              "name": "maxPlayers",
              "type": "uint256"
            },
            {
              "internalType": "address[]",
              "name": "players",
              "type": "address[]"
            },
            {
              "internalType": "address[]",
              "name": "activePlayers",
              "type": "address[]"
            },
            {
              "internalType": "uint256[]",
              "name": "gameDeck",
              "type": "uint256[]"
            },
            {
              "internalType": "uint256[]",
              "name": "boardDeck",
              "type": "uint256[]"
            },
            {
              "internalType": "uint256[]",
              "name": "playerDeck",
              "type": "uint256[]"
            }
          ],
          "internalType": "struct DominoGame.GameResponse",
          "name": "",
          "type": "tuple"
        }
      ],
      "stateMutability": "view",
      "type": "function"
    },
    {
      "inputs": [
        {
          "internalType": "uint256",
          "name": "gameId",
          "type": "uint256"
        }
      ],
      "name": "joinGame",
      "outputs": [],
      "stateMutability": "payable",
      "type": "function"
    },
    {
      "inputs": [
        {
          "internalType": "uint256",
          "name": "gameId",
          "type": "uint256"
        },
        {
          "internalType": "uint256",
          "name": "left",
          "type": "uint256"
        },
        {
          "internalType": "uint256",
          "name": "right",
          "type": "uint256"
        }
      ],
      "name": "makeMove",
      "outputs": [],
      "stateMutability": "nonpayable",
      "type": "function"
    },
    {
      "inputs": [
        {
          "internalType": "uint256",
          "name": "gameId",
          "type": "uint256"
        }
      ],
      "name": "startGame",
      "outputs": [],
      "stateMutability": "nonpayable",
      "type": "function"
    },
    {
      "inputs": [],
      "name": "withdraw",
      "outputs": [],
      "stateMutability": "nonpayable",
      "type": "function"
    }
  ],
  "bytecode": "0x6080604052348015600f57600080fd5b506121838061001f6000396000f3fe60806040526004361061009c5760003560e01c806369958ab91161006457806369958ab91461015a578063a2f77bcc1461017a578063cfc2f5ff146101a7578063db1c45f9146101c7578063e5ed1d59146101e9578063efaa55a01461020957600080fd5b8063117a5b90146100a157806327e235e3146100df5780632e0be39a1461011a5780633ccfd60b1461013057806343dbf0ef14610147575b600080fd5b3480156100ad57600080fd5b506100c16100bc366004611ad5565b61021c565b6040516100d699989796959493929190611b6c565b60405180910390f35b3480156100eb57600080fd5b5061010c6100fa366004611bd4565b60026020526000908152604090205481565b6040519081526020016100d6565b34801561012657600080fd5b5061010c60005481565b34801561013c57600080fd5b506101456102ff565b005b610145610155366004611c2f565b610396565b34801561016657600080fd5b50610145610175366004611ad5565b610465565b34801561018657600080fd5b5061019a610195366004611ad5565b61061f565b6040516100d69190611e92565b3480156101b357600080fd5b506101456101c2366004611ea5565b61096a565b3480156101d357600080fd5b506101dc610b94565b6040516100d69190611ed1565b3480156101f557600080fd5b50610145610204366004611ad5565b610f16565b610145610217366004611ad5565b61118d565b60016020819052600091825260409091208054918101805461023d90611f36565b80601f016020809104026020016040519081016040528092919081815260200182805461026990611f36565b80156102b65780601f1061028b576101008083540402835291602001916102b6565b820191906000526020600020905b81548152906001019060200180831161029957829003601f168201915b5050505060028301546003840154600485015460058601546006870154600c9097015495966001600160a01b03948516969484169550600160a01b90930460ff16939192909189565b33600090815260026020526040902054806103575760405162461bcd60e51b81526020600482015260136024820152726e6f42616c616e6365546f576974686472617760681b60448201526064015b60405180910390fd5b336000818152600260205260408082208290555183156108fc0291849190818181858888f19350505050158015610392573d6000803e3d6000fd5b5050565b600080548082526001602081905260409092209081559081016103b98582611fb8565b50600460068201556002810180546001600160a01b031916331790556003810180546000919060ff60a01b1916600160a01b830217905550600481018390556000546040805191825233602083015281018490527f7dfb67e9ff596fca4da65c7eedb128cd1aac553af54b3c0cb733625a2480d8bd9060600160405180910390a16000805490806104498361208d565b9190505550811561045f57805461045f9061118d565b50505050565b60008181526001602052604090206002015481906001600160a01b031633146104c25760405162461bcd60e51b815260206004820152600f60248201526e3737ba2a3432a3b0b6b2a7bbb732b960891b604482015260640161034e565b6000828152600160205260409020600380820154600160a01b900460ff1660048111156104f1576104f1611b34565b1415801561051f575060046003820154600160a01b900460ff16600481111561051c5761051c611b34565b14155b6105625760405162461bcd60e51b815260206004820152601460248201527319d85b59505b1c9958591e519a5b985b1a5e995960621b604482015260640161034e565b60038101805460ff60a01b1916600160a11b17905560005b60078201548110156105e5578160040154600260008460070184815481106105a4576105a46120a6565b60009182526020808320909101546001600160a01b03168352820192909252604001812080549091906105d89084906120bc565b909155505060010161057a565b506040518381527f8f1ffb72cf9e5acc4eddafab2be9e2951d12377b9e1e4bdc7bd686b19c91fd89906020015b60405180910390a1505050565b610627611a0c565b600082815260016020526040902060028101546001600160a01b031661067e5760405162461bcd60e51b815260206004820152600c60248201526b19d85b59539bdd119bdd5b9960a21b604482015260640161034e565b3360009081526009820160209081526040808320805482518185028101850190935280835291929091908301828280156106d757602002820191906000526020600020905b8154815260200190600101908083116106c3575b50505050509050604051806101a001604052808360000154815260200183600101805461070390611f36565b80601f016020809104026020016040519081016040528092919081815260200182805461072f90611f36565b801561077c5780601f106107515761010080835404028352916020019161077c565b820191906000526020600020905b81548152906001019060200180831161075f57829003601f168201915b505050918352505060028401546001600160a01b03908116602083015260038501549081166040830152606090910190600160a01b900460ff1660048111156107c7576107c7611b34565b81526020018360040154815260200183600501548152602001836006015481526020018360070180548060200260200160405190810160405280929190818152602001828054801561084257602002820191906000526020600020905b81546001600160a01b03168152600190910190602001808311610824575b50505050508152602001836008018054806020026020016040519081016040528092919081815260200182805480156108a457602002820191906000526020600020905b81546001600160a01b03168152600190910190602001808311610886575b5050505050815260200183600a018054806020026020016040519081016040528092919081815260200182805480156108fc57602002820191906000526020600020905b8154815260200190600101908083116108e8575b5050505050815260200183600b0180548060200260200160405190810160405280929190818152602001828054801561095457602002820191906000526020600020905b815481526020019060010190808311610940575b5050509183525050602001919091529392505050565b8261097581336113c2565b6109b55760405162461bcd60e51b81526020600482015260116024820152703737ba20b720b1ba34bb32a83630bcb2b960791b604482015260640161034e565b6000848152600160208190526040909120906003820154600160a01b900460ff1660048111156109e7576109e7611b34565b14610a265760405162461bcd60e51b815260206004820152600f60248201526e67616d6549734e6f7441637469766560881b604482015260640161034e565b600083610a3486600a6120cf565b610a3e91906120bc565b3360009081526009840160205260409020909150610a5c9082611437565b610aa85760405162461bcd60e51b815260206004820152601960248201527f706c61796572446f65734e6f7448617665546865506965636500000000000000604482015260640161034e565b3360009081526009830160205260409020610ac39082611483565b600b820180546001810182556000918252602080832090910183905533825260098401905260408120549003610b0457610afd8633611535565b505061045f565b6000610b0f83611644565b905080610b2757610b1f876117b7565b50505061045f565b6008830154600c840154610b3c9060016120bc565b610b4691906120fc565b600c840155604080518881523360208201529081018390527f953a0c0baf4a6e0dc4e5e310567187c0e370783b04a1c4ddbe4e721c8aac945c9060600160405180910390a150505050505050565b60606000805467ffffffffffffffff811115610bb257610bb2611c04565b604051908082528060200260200182016040528015610beb57816020015b610bd8611a0c565b815260200190600190039081610bd05790505b50905060005b600054811015610f105760008181526001602090815260408083203384526009810183528184208054835181860281018601909452808452919493909190830182828015610c5e57602002820191906000526020600020905b815481526020019060010190808311610c4a575b50505050509050604051806101a0016040528083600001548152602001836001018054610c8a90611f36565b80601f0160208091040260200160405190810160405280929190818152602001828054610cb690611f36565b8015610d035780601f10610cd857610100808354040283529160200191610d03565b820191906000526020600020905b815481529060010190602001808311610ce657829003601f168201915b505050918352505060028401546001600160a01b03908116602083015260038501549081166040830152606090910190600160a01b900460ff166004811115610d4e57610d4e611b34565b815260200183600401548152602001836005015481526020018360060154815260200183600701805480602002602001604051908101604052809291908181526020018280548015610dc957602002820191906000526020600020905b81546001600160a01b03168152600190910190602001808311610dab575b5050505050815260200183600801805480602002602001604051908101604052809291908181526020018280548015610e2b57602002820191906000526020600020905b81546001600160a01b03168152600190910190602001808311610e0d575b5050505050815260200183600a01805480602002602001604051908101604052809291908181526020018280548015610e8357602002820191906000526020600020905b815481526020019060010190808311610e6f575b5050505050815260200183600b01805480602002602001604051908101604052809291908181526020018280548015610edb57602002820191906000526020600020905b815481526020019060010190808311610ec7575b5050505050815260200182815250848481518110610efb57610efb6120a6565b60209081029190910101525050600101610bf1565b50919050565b60008181526001602052604090206002015481906001600160a01b03163314610f735760405162461bcd60e51b815260206004820152600f60248201526e3737ba2a3432a3b0b6b2a7bbb732b960891b604482015260640161034e565b6000828152600160205260409020600781015460021115610fc95760405162461bcd60e51b815260206004820152601060248201526f6e6f74456e6f756768506c617965727360801b604482015260640161034e565b60006003820154600160a01b900460ff166004811115610feb57610feb611b34565b1461102e5760405162461bcd60e51b815260206004820152601360248201527219d85b59539bdd149958591e551bd4dd185c9d606a1b604482015260640161034e565b611036611878565b805161104c91600a840191602090910190611a75565b5061105981600a01611925565b60005b60078201548110156111405760005b6006811161113757600a830180546000919061108990600190612110565b81548110611099576110996120a6565b906000526020600020015490508360090160008560070185815481106110c1576110c16120a6565b60009182526020808320909101546001600160a01b031683528281019390935260409091018120805460018101825590825291902001819055600a840180548061110d5761110d612123565b6001900381819060005260206000200160009055905550808061112f9061208d565b91505061106b565b5060010161105c565b5060038101805460ff60a01b1916600160a01b1790556000600c8201556040518381527f50ad08f58a27f2851d7e3a1b3a6a46b290f2ce677e99642d30ff639721e7779090602001610612565b6000818152600160205260408120906003820154600160a01b900460ff1660048111156111bc576111bc611b34565b146112095760405162461bcd60e51b815260206004820152601760248201527f67616d654e6f74416363657074696e67506c6179657273000000000000000000604482015260640161034e565b806004015434146112505760405162461bcd60e51b8152602060048201526011602482015270696e636f7272656374456e74727946656560781b604482015260640161034e565b60068101546007820154106112945760405162461bcd60e51b815260206004820152600a60248201526919d85b59525cd19d5b1b60b21b604482015260640161034e565b60005b600782015481101561132257336001600160a01b03168260070182815481106112c2576112c26120a6565b6000918252602090912001546001600160a01b03160361131a5760405162461bcd60e51b8152602060048201526013602482015272706c61796572416c7265616479496e47616d6560681b604482015260640161034e565b600101611297565b5060078101805460018082018355600092835260208084209092018054336001600160a01b031991821681179092556008860180549384018155855292842090910180549092161790556005820180543492906113809084906120bc565b9091555050604080518381523360208201527f87969bc7faf902221a147b95ceba76e011c5efb0339a0a8ee7a2bb82d9cfbbd691015b60405180910390a15050565b6000828152600160205260408120815b600882015481101561142a57836001600160a01b03168260080182815481106113fd576113fd6120a6565b6000918252602090912001546001600160a01b03160361142257600192505050611431565b6001016113d2565b5060009150505b92915050565b6000805b83548110156114795782848281548110611457576114576120a6565b906000526020600020015403611471576001915050611431565b60010161143b565b5060009392505050565b60005b825481101561153057818382815481106114a2576114a26120a6565b90600052602060002001540361152857825483906114c290600190612110565b815481106114d2576114d26120a6565b90600052602060002001548382815481106114ef576114ef6120a6565b90600052602060002001819055508280548061150d5761150d612123565b60019003818190600052602060002001600090559055505050565b600101611486565b505050565b6000828152600160208190526040909120906003820154600160a01b900460ff16600481111561156757611567611b34565b146115a65760405162461bcd60e51b815260206004820152600f60248201526e67616d6549734e6f7441637469766560881b604482015260640161034e565b60038101805460ff60a01b1916600360a01b17905560058101546001600160a01b038316600090815260026020526040812080549091906115e89084906120bc565b90915550506003810180546001600160a01b0319166001600160a01b0384169081179091556040805185815260208101929092527f7f40df5127524300187445e867486da572aab86769c0212e0b392bd87c4ca97f9101610612565b6000805b60088301548110156117ae57600083600801828154811061166b5761166b6120a6565b60009182526020808320909101546001600160a01b03168083526009870190915260408220909250905b81548110156117a35760008282815481106116b2576116b26120a6565b600091825260208220015491506116ca600a83612139565b905060006116d9600a846120fc565b9050600089600b016000815481106116f3576116f36120a6565b6000918252602082200154600b8c0180549193509061171490600190612110565b81548110611724576117246120a6565b90600052602060002001549050600a8261173e9190612139565b8414806117545750611751600a83612139565b83145b806117685750611765600a826120fc565b84145b8061177c5750611779600a826120fc565b83145b15611792575060019a9950505050505050505050565b505060019093019250611695915050565b505050600101611648565b50600092915050565b600081815260016020526040812060038101805460ff60a01b1916600160a21b179055905b600782015481101561184757816004015460026000846007018481548110611806576118066120a6565b60009182526020808320909101546001600160a01b031683528201929092526040018120805490919061183a9084906120bc565b90915550506001016117dc565b506040518281527fbde3492a0339dd7cc8e00379877e059a377bad88cd45be37d94fc781910b95c9906020016113b6565b60408051601c8082526103a082019092526060916000919060208201610380803683370190505090506000805b6006811161191d57805b6006811161190a57806118c383600a6120cf565b6118cd91906120bc565b8484815181106118df576118df6120a6565b6020908102919091010152826118f48161208d565b93505080806119029061208d565b9150506118af565b50806119158161208d565b9150506118a5565b509092915050565b60005b8154811015610392578154600090611941908390612110565b6040805142602082015244918101919091526060016040516020818303038152906040528051906020012060001c61197991906120fc565b61198390836120bc565b90506000838281548110611999576119996120a6565b906000526020600020015490508383815481106119b8576119b86120a6565b90600052602060002001548483815481106119d5576119d56120a6565b9060005260206000200181905550808484815481106119f6576119f66120a6565b6000918252602090912001555050600101611928565b604080516101a0810182526000808252606060208301819052928201819052918101829052906080820190815260200160008152602001600081526020016000815260200160608152602001606081526020016060815260200160608152602001606081525090565b828054828255906000526020600020908101928215611ab0579160200282015b82811115611ab0578251825591602001919060010190611a95565b50611abc929150611ac0565b5090565b5b80821115611abc5760008155600101611ac1565b600060208284031215611ae757600080fd5b5035919050565b6000815180845260005b81811015611b1457602081850181015186830182015201611af8565b506000602082860101526020601f19601f83011685010191505092915050565b634e487b7160e01b600052602160045260246000fd5b60058110611b6857634e487b7160e01b600052602160045260246000fd5b9052565b89815261012060208201526000611b8761012083018b611aee565b6001600160a01b038a81166040850152891660608401529050611bad6080830188611b4a565b8560a08301528460c08301528360e0830152826101008301529a9950505050505050505050565b600060208284031215611be657600080fd5b81356001600160a01b0381168114611bfd57600080fd5b9392505050565b634e487b7160e01b600052604160045260246000fd5b80358015158114611c2a57600080fd5b919050565b600080600060608486031215611c4457600080fd5b833567ffffffffffffffff811115611c5b57600080fd5b8401601f81018613611c6c57600080fd5b803567ffffffffffffffff811115611c8657611c86611c04565b604051601f8201601f19908116603f0116810167ffffffffffffffff81118282101715611cb557611cb5611c04565b604052818152828201602001881015611ccd57600080fd5b816020840160208301376000602092820183015294508501359250611cf6905060408501611c1a565b90509250925092565b600081518084526020840193506020830160005b82811015611d3a5781516001600160a01b0316865260209586019590910190600101611d13565b5093949350505050565b600081518084526020840193506020830160005b82811015611d3a578151865260209586019590910190600101611d58565b80518252600060208201516101a06020850152611d976101a0850182611aee565b90506040830151611db360408601826001600160a01b03169052565b506060830151611dce60608601826001600160a01b03169052565b506080830151611de16080860182611b4a565b5060a083015160a085015260c083015160c085015260e083015160e0850152610100830151848203610100860152611e198282611cff565b915050610120830151848203610120860152611e358282611cff565b915050610140830151848203610140860152611e518282611d44565b915050610160830151848203610160860152611e6d8282611d44565b915050610180830151848203610180860152611e898282611d44565b95945050505050565b602081526000611bfd6020830184611d76565b600080600060608486031215611eba57600080fd5b505081359360208301359350604090920135919050565b6000602082016020835280845180835260408501915060408160051b86010192506020860160005b82811015611f2a57603f19878603018452611f15858351611d76565b94506020938401939190910190600101611ef9565b50929695505050505050565b600181811c90821680611f4a57607f821691505b602082108103610f1057634e487b7160e01b600052602260045260246000fd5b601f82111561153057806000526020600020601f840160051c81016020851015611f915750805b601f840160051c820191505b81811015611fb15760008155600101611f9d565b5050505050565b815167ffffffffffffffff811115611fd257611fd2611c04565b611fe681611fe08454611f36565b84611f6a565b6020601f82116001811461201a57600083156120025750848201515b600019600385901b1c1916600184901b178455611fb1565b600084815260208120601f198516915b8281101561204a578785015182556020948501946001909201910161202a565b50848210156120685786840151600019600387901b60f8161c191681555b50505050600190811b01905550565b634e487b7160e01b600052601160045260246000fd5b60006001820161209f5761209f612077565b5060010190565b634e487b7160e01b600052603260045260246000fd5b8082018082111561143157611431612077565b808202811582820484141761143157611431612077565b634e487b7160e01b600052601260045260246000fd5b60008261210b5761210b6120e6565b500690565b8181038181111561143157611431612077565b634e487b7160e01b600052603160045260246000fd5b600082612148576121486120e6565b50049056fea26469706673582212209e70542240afedbafcab1462f75a0bb300e98a1148fe028861d5f8e48078357e64736f6c634300081c0033",
  "linkReferences": {},
  "deployedLinkReferences": {}
}